:020000040800F2
:1000000000500020750300087D0300087F030008EE
:100010008103000883030008850300080000000036
:10002000000000000000000000000000AD02000819
:100030008903000800000000250300086103000890
:100040008F0300088F0300088F0300088F03000848
:100050008F0300088F0300088F0300088F03000838
:100060008F0300088F0300088F0300088F03000828
:100070008F0300088F0300088F0300088F03000818
:100080008F0300088F0300088F030008953D0008C8
:10009000A13D00088F030008552C00088F030008BD
:1000A0008F0300088F0300088F0300088F030008E8
:1000B0008F0300088F0300088F0300088F030008D8
:1000C0008F0300088F0300088F0300088F030008C8
:1000D0008F0300088F0300088F0300088F030008B8
:1000E0008F0300088F0300088F03000800F002F858
:1000F00000F096F80AA090E8000C82448344AAF12C
:100100000107DA4501D100F08BF8AFF2090EBAE829
:100110000F0013F0010F18BFFB1A43F0010318473B
:10012000486B0000686B0000103A24BF78C878C1A3
:10013000FAD8520724BF30C830C144BF04680C60ED
:10014000704700000023002400250026103A28BF35
:1001500078C1FBD8520728BF30C148BF0B60704739
:100160006E2900F00E87702900F08982662906F05A
:100170002984652906F02684672906F023846129ED
:1001800006F0228403681B0A28BF41F08001692918
:1001900000F0FA81642900F0F781752900F0F481FC
:1001A0006F2900F0F587782900F05582E92900F0E1
:1001B0008F87E42900F08C87F52900F08987EF29E3
:1001C00000F0F287F82900F054820368DB0928BFA9
:1001D00041F08001632900F01087732900F0158732
:1001E000E32901F03D86F32901F0428600207047A3
:1001F0001FB59DE8030000F021FE00F002FE0400A0
:100200000020002106F08CFB401C606000200021D3
:1002100006F09CFBE06001F03DF900F0DBFD1FBD46
:1002200003F0E4FE03F05AFF04F0FEFB06F048F88A
:100230000348002104F0BEFC04F00CFCFEE70000C3
:100240002401002080F309887047EFF3098070478C
:10025000684680F3098804480078C00714BF02206C
:10026000032080F314887047E0690008DFF818C0A5
:10027000EFF305831B0618BF6047EFF31483DB071A
:1002800008BF604700DF7047BD500008DFF818C0A6
:10029000EFF305831B0618BF6047EFF31483DB07FA
:1002A00008BF604700DF704715530008EFF309806F
:1002B000816911F8021CF1B990E80F10E047EFF3E3
:1002C000098C8CE80700144B93E8060091420FD08C
:1002D00039B12CE9F00FC1F82CC00CB405F008FCC2
:1002E0000CBC1A60D2F82CC0BCE8F00F8CF3098863
:1002F0006FF0020E704710B5084A1268914209D893
:10030000074C54F8214090E80F10A047EFF3098CF8
:100310008CE80F0010BD000014010020402C0008E4
:10032000402C000805F070FA0C4B93E8060091424F
:1003300010D0EFF3098C2CE9F00FC1F82CC00CB4ED
:1003400005F0D6FB0CBC1A60D2F82CC0BCE8F00F4C
:100350008CF309886FF0020E704700001401002032
:1003600005F0BCFCE0E7000004F0ECFC05F0B6FC96
:10037000DAE700000648804706480047FEE7FEE748
:10038000FEE7FEE7FEE7FEE7FEE7FEE7FEE7FEE745
:10039000053B0008ED00000800487047B01700203A
:1003A00010B500F02EFD001D10BD00BF75650000EA
:1003B0000B3020F0070070472DE9F04117460E463C
:1003C0000446FFF7F5FFA042054633D9002F1CBFB6
:1003D00006F10C0003F03EFE30467468F4B121686B
:1003E000A94217D305F1080291423CBF6168416000
:1003F00007D3626861194A602268521B0A60416033
:100400002560002F1CBF06F10C0003F059FE201DD3
:10041000BDE8F08120466468002CE0D129463046D2
:1004200000F0F8FC0028D7D1002F1CBF06F10C000B
:1004300003F046FE0020BDE8F08110B5044600F050
:10044000DBFC01682046BDE810400122B4E770B52E
:1004500016460D46041F002808BF70BD002E1CBFA5
:1004600005F10C0003F0F6FD2B465868002818BF74
:10047000A04238BF0346F8D31968CA18A24218BF71
:100480005C6003D122681C461144196021680A1976
:10049000824218BF606004D142686260006808440C
:1004A0002060002E1CBF05F10C0003F009FE70BD9A
:1004B00010B5044600F0A0FC01682046BDE81040DD
:1004C0000122C4E71CB50C46064B7B4469460090EC
:1004D000204600F070FD04460020694600F07EFDD5
:1004E00020461CBD0F0B000070B5044685690068EE
:1004F000C10601D5302600E02026C00707D070BD18
:10050000D4E9012130469047206A401C20626D1ECC
:10051000F6D570BD70B5044685690078C00707D16F
:1005200070BDD4E9012120209047206A401C206240
:100530006D1EF6D570BD70B50C460546012A05D076
:100540002878800600D5EA69002302E0012305E04F
:100550005B1C934202D2E05C0028F9D1A869E6183E
:10056000C01AA861286A184428622846FFF7BCFF11
:1005700004E0D5E9012114F8010B9047B442F8D307
:100580002846FFF7C7FF70BD2DE9F041064600245D
:1005900010687529314616A510D000F087FC002898
:1005A00002DA404213A507E031688A0701D512A597
:1005B00002E0490704D511A5012401E000F07FFC09
:1005C00000210A2206F1240709E0B0FBF2FCB0FB8F
:1005D000F2F302FB1C00303078541846491C002806
:1005E000F3D123462A463046BDE8F04100F070BC06
:1005F000000000002D0000002B0000002000000083
:10060000F0B40D460188090502D5214C7C4402E076
:100610001F4C7C440E34002100F1240608E002F057
:100620000F071209E75D42EA03721B097754491C60
:1006300052EA0307F3D102780023120704D5702D84
:1006400006D009B1022311342246F0BC00F040BCB0
:1006500001231034F8E770B504460D4621461068B2
:1006600000F02DFC024629462046BDE870400023DC
:10067000C6E7D21D22F00703D3E90023C0E70368D1
:10068000126843F0200303600823C3610023B7E727
:10069000236500002DE9F05F894604464FF0000A0B
:1006A000DFF874B1FB44C0F820A02046E168884719
:1006B000002874D0252806D0D4E901219047206A6B
:1006C000401C2062F1E700265F462046E16888472B
:1006D0002028054607DB312D05D2781910F8200CAB
:1006E00008B10643F1E7B00701D526F00406C4F8C7
:1006F0001CA00027C4F818A02A2D09D0284603F012
:10070000A1FC38B304EB8708303DC8F8185019E055
:1007100059F8041B204604EB87029161E168884781
:10072000012F054618D1E069002820DA26F02006BE
:100730001DE0D8F8180000EB800005EB40003038D1
:10074000C8F818002046E1688847054603F07AFC9F
:100750000028EED1012F0AD02E2D08D12046E168C5
:1007600088477F1C0546022F46F02006C4DBA0699F
:10077000002803DA404246F00106A061F00701D0EC
:1007800026F010066C2D0BD0682D09D04C2D39D0D9
:100790006A2D35D0742D35D07A2D33D016E038E05F
:1007A000E1682F4620468847B842054609D16C2F9C
:1007B00026D04FF48060E16806432046884705460E
:1007C00004E06C2F1AD04FF4807006430DB3A5F1EE
:1007D0004100192802D8203546F400664A462946C9
:1007E000204626604E46FFF7BBFC80B101280BD0A7
:1007F000F61D26F0070000F1080956E74020E4E75F
:100800008020D8E70020D6E706F104094DE7284606
:1008100052E7206ABDE8F09FB36400000FB400B552
:100820008DB010A9099000910B904FF0FF300A9005
:1008300000200C90064878440690064878446A46A2
:1008400007900F9909A800F0CDFC0DB05DF814FBDE
:10085000CB090000E30900002DE9FF5F1D464FF0C2
:10086000FF3B91464FF000085F46D5E90146A96974
:1008700001987F1C8847296A824688470028F6D15C
:10088000BAF1FF3F0CD0002E24F4C06419DD6006DD
:1008900014D5BAF12B0F09D0BAF12D0F0ED103E008
:1008A000584604B0BDE8F09F44F48064A9690198FB
:1008B0007F1C8847761E8246002E02DDBAF1300F7B
:1008C00003D0B9F1000F26D032E0A969761E019855
:1008D0007F1C44F400748847002E824605DDBAF17F
:1008E000780F06D0BAF1580F03D0B9F1000F10D02D
:1008F0001EE0B9F1000F02D0B9F1100F18D1A969AB
:10090000761E01987F1C24F40074884782461020CC
:1009100002E0082000E00A20814609E0A96908FBFE
:100920000908761E01987F1C44F4007488478246AB
:10093000002E05DD4946504600F040FC0028EDDA67
:10094000E96901988847A00502D46FF00100A8E783
:10095000E00725D1600613D5600502D5C8F1000077
:1009600000E0404629680A1D2A600968220501D571
:10097000087015E0220701D5088011E008600FE03B
:100980002868011D29600068210502D580F80080D3
:1009900006E0210702D5A0F8008001E0C0F8008041
:1009A00038467EE72DE9F04704464FF000094FF046
:1009B000FF37C568D4E90486A80707D0204600F0B1
:1009C000F1FC304603F08EFB002802DA3846BDE821
:1009D000F087280502D54046FFF76AFD4C212046E6
:1009E00000F08CF9206D20F0010020654846EEE70C
:1009F0002DE9F041044600F14C07384603F02AFB8C
:100A0000E068810712D0800601D5A66A04E0A169DA
:100A1000606808442169461A204600F0C3FC0022A1
:100A200005463146204600F00DFC00E00025384622
:100A300003F046FB2846BDE8F0812DE9F04118B1EE
:100A4000BDE8F041FFF7D4BF0B4E0025304603F060
:100A500001FB0A4C6F1E07E02046FFF7C9FF00B1FB
:100A60003D46206D20F00104002CF5D1304603F006
:100A700027FB2846DFE70000AC010020101800200B
:100A80002DE9F04716468846814602F14C07384664
:100A900003F0E0FA3046FFF785FF18F8010B6128F4
:100AA0000AD0722802D077283FD102E00125002425
:100AB00005E00225042402E0082448F2020518F8A3
:100AC000010B2B2806D0622809D018F8010C7428D5
:100AD0000AD00BE045F0030544F00204EFE745F0CF
:100AE000040544F00104EAE744F0100448462146B6
:100AF00003F036FB411C18D00021316171604FF4C6
:100B00000071F560F1617061200704D53046022262
:100B1000002100F097FB306D40F001003065384651
:100B200003F0CEFA3046BDE8F0870026F7E72DE95E
:100B3000F04115460E460746204C204603F08AFA3F
:100B40002A4631463846FFF79BFF0546204603F00C
:100B5000B7FA2846BDE8F0812DE9F0410E468046FF
:100B6000164D284603F076FA154C206DC10704D0C7
:100B7000410804D020F00104F7E7224612E0542097
:100B8000FFF75BFC070017D0206D47F00101084319
:100B900054212065384600F0B1F807F14C0003F00D
:100BA00069FA3A4631464046FFF76AFF044628464E
:100BB00003F086FA2046CDE70024F8E7AC010020D8
:100BC0001018002010B5431C02E010F8011B71B191
:100BD0008107FAD14FF0013202C88C1A8C4314EA13
:100BE000C211F9D0C01A0A0603D0C01E10BDC01A27
:100BF00010BD0A0401D0801E10BD0902FCD0401EA9
:100C000010BD40EA010370B59B072ED14FF00136AD
:100C1000042A2AD308C810C99D1B9D43121F15EA38
:100C2000C61517D0D8B2E1B2401A50EA056110D10A
:100C300098B2A1B2401A50EA05410AD123F07F4090
:100C400024F07F41401A50EA052102D1180EA0EB92
:100C5000146070BDA342DBD018BA21BA884201D912
:100C6000012070BD4FF0FF3070BD0AB9002070BD8B
:100C700010F8013B11F8014B63B1A3420AD1521E97
:100C800008D010F8013B11F8014B1BB1A34201D170
:100C9000521EEDD1181B70BD10B5203AC0F00B806C
:100CA000B1E81850203AA0E81850B1E81850A0E870
:100CB0001850BFF4F5AF5FEA027C24BFB1E81850CA
:100CC000A0E8185044BF18C918C0BDE810405FEA3A
:100CD000827C24BF51F8043B40F8043B08BF7047B6
:100CE000D20728BF31F8023B48BF11F8012B28BFBB
:100CF00020F8023B48BF00F8012B70474FF000027C
:100D000000B5134694469646203922BFA0E80C5001
:100D1000A0E80C50B1F12001BFF4F7AF090728BFDC
:100D2000A0E80C5048BF0CC05DF804EB890028BF58
:100D300040F8042B08BF704748BF20F8022B11F081
:100D4000804F18BF00F8012B704700004FF0013CA6
:100D500050F8042B51F8043B9A4221D1A2EB0C032A
:100D6000934313EACC1317D150F8042B51F8043BEA
:100D70009A4215D1A2EB0C03934313EACC130BD187
:100D800050F8042B51F8043B9A4209D1A2EB0C0312
:100D9000934313EACC13DBD04FF00000704700BF41
:100DA000D01A01BAB1FA81F101F0180122FA01F06A
:100DB000CB40C1F12001DBB2C0B2C01A2CFA01F362
:100DC000D11A914311EAC311E6D1704770477047B9
:100DD0007047000070B5064C7C44064D7D4403E02E
:100DE000206820448047241DAC42F9D170BD00002A
:100DF000D85F0000D85F000010B5FFF7CDFA0830CB
:100E000010BD10B5FFF7C8FA203010BD704770470D
:100E10007047704738B504460A4600206946AFF36C
:100E20000080002808BF38BD02460099204600F027
:100E300015FC012038BD012001F025BAF8B5AFF34B
:100E40000080054600200C46102000BF0646A81969
:100E5000A0420DD9324669460020AFF3008007005A
:100E600008BF01F010FA0098A04218BF0546C41947
:100E7000FFF7C2FF05600746F01D20F00700461986
:100E8000284600F00AF8B44208BFF8BDA21B31465C
:100E90003868BDE8F84000F0E1BB00210160C0E91E
:100EA00001100C3003F0E6B81020704709684A05BD
:100EB00001D540B27047C905FCD500B2704709683A
:100EC0004A0501D5C0B27047C905FCD580B270474C
:100ED0002DE9F0470D4699469246044600F1240854
:100EE0000168880604D5E06921F01001216000E066
:100EF0000120A84201DD471B00E00027A1697A1903
:100F000002EB0900081AA0612078C00602D420462E
:100F1000FFF7EAFA002608E0D4E901211AF80600F2
:100F20009047206A401C761C20624E45F4DB2078F6
:100F3000C0060AD52046FFF7D7FA06E0D4E901211A
:100F400030209047206A401C2062381EA7F101071C
:100F5000F4DC07E0D4E9012118F805009047206A85
:100F6000401C2062281EA5F10105F3DC2046FFF796
:100F7000D1FA2078000602D50220BDE8F0870120D2
:100F8000FBE711680268006A530501D508700AE0A2
:100F9000D30501D5088006E0130603D5C217C1E9C1
:100FA000000200E0086001207047000001694A1C4F
:100FB00002610878704700B58FB0CDE9013100219A
:100FC000059105497944CDE9031011466846FFF7BC
:100FD00061FB0FB000BD0000E5FFFFFF0A6802F8EB
:100FE000010B0A60704710B5436913B1AFF300807D
:100FF00001E0FFF7A0FA012010BD127800F12401F2
:101000000A7000224A700122EDE711684FF0FF32AA
:10101000E9E700002DE9FF5F15468A460446DFF840
:10102000AC80F8440027D8E900103E46CDE9001016
:1010300010E03AF816106A4602A801F0F8F8411CD0
:1010400007D02178890603D5E269391891420DD875
:101050000744761C2078800602D5E069B84205DD99
:10106000AE42E6DB3AF816000028E2D1A069C01BC8
:10107000A0612046FFF738FAD8E90010CDE900104A
:10108000002017E03AF818106A4602A801F0CFF8DD
:10109000B0F1FF3F81460BD000250DF1080B05E0B4
:1010A000D4E901211BF8050090476D1C4D45F7D38D
:1010B00008F10100B0428046E4DB206A3844206237
:1010C0002046FFF727FABDE8FF9F0000465B0000BF
:1010D0002DE9F0418046D21D22F007020025D2E919
:1010E0000002F52915A614D0011E72F1000106DADE
:1010F0000023D0EB030063EB020211A608E0D8F84E
:1011000000108B0701D50FA602E0490701D50EA6F6
:1011100001251146002408F1240704E000F0BDFA7F
:1011200030323A55641C50EA0102F7D12B46324660
:1011300021464046BDE8F041FFF7CABE000000006E
:101140002D0000002B0000002000000030B4002122
:1011500000F1240408E002F00705D208303542EA25
:101160004372DB086554491C52EA0305F3D1046855
:10117000002310A2250708D504F020040C4304D056
:10118000C46901230CA2641EC46130BCFFF7A0BE79
:1011900010B5044621461068FFF791FE024620462E
:1011A000BDE810400023D1E7D21D22F00701D1E9AC
:1011B0000023CBE700000000300000003A2800D2F6
:1011C000303820F02002412A01D3A2F137008842B2
:1011D00001D34FF0FF30704702681144137801606B
:1011E00018467047D16005497944516104497944F2
:1011F000116200211161114600F03EBEEDFFFFFFBC
:1012000033050000426842B1016811F8013B23B187
:10121000521EC0E90012184670470121C160881EA5
:10122000704742685AB1C368016843B983688B420A
:1012300005D0491E521CC0E90012002070474FF033
:10124000FF3070472DE9F041044616460D464769C8
:10125000007B80072ED0384602F06EFF50BB3EB3B5
:10126000012E02D0022E25D104E0204600F0BEFF60
:1012700005441DE0384602F04BFFE168002841F0CC
:101280001001E16005DA204600F058F80120BDE8C1
:10129000F081C9030BD56268E16A914200D811461A
:1012A000A26911442269891A814200DD0846054479
:1012B000002D01DA0220EAE7E16A6068E268814213
:1012C00006D29103E06203D522F4003141F010020E
:1012D000A6690027AE4213DCE16A814201D90B46C0
:1012E00000E0034603EB060C2369ACEB030CAC45B2
:1012F00006DD814201D98C4600E084469C4505D13B
:10130000A760276042F02000A5620DE0AD1BE669F2
:10131000AE1B8142A66000D90846C01A281A206078
:101320005819606022F0200003490840E060002066
:1013300084F84870ABE70000BFCFD7FFC16821F445
:10134000001141F08001C16000218160016070479F
:101350002DE9F047814614460E464FF0FF383248DB
:10136000D5685769054209D03846A16903F012F8DB
:10137000002811DB2C48C0430540E5602B4632466F
:101380004946384603F01AF8A16920F00042B21A23
:1013900011440028A16103D02046FFF7CFFF40464B
:1013A000BDE8F08770B504460569C06A6168884287
:1013B00000D80846E16821F42011E160C90312D584
:1013C000A84208D02246411B2846FFF7C1FF10B1B2
:1013D0004FF0FF3070BD0020E562C4E90150E068C5
:1013E00020F48030E060002070BD10B50446C06875
:1013F00020F02000E060A16AA06988420DD020465C
:10140000FFF7D0FFE06820F4405040F01000E060AB
:10141000A06AA0612069E062606044F24001E06877
:101420008843E06010BD0000100002002DE9F04785
:1014300004461E4690460D46C7684C30814602F071
:1014400009FEB80714D0780212D44046B8F5807F60
:1014500009D0B0F5007F06D0B8F5806F08D101261D
:1014600004F1240506E0701E6FF07F41884201D32D
:10147000012409E02561E6616560E06820F47060A0
:1014800040EA0800E0600024484602F019FE2046C9
:10149000BDE8F08710B565485421FFF72FFC64487C
:1014A0005421FFF72BFC63485421FFF727FC6248C7
:1014B0005E49624A624B01605D4810605D4A1A6095
:1014C000431C0B65511C01650120106557484C30C9
:1014D00002F0D0FD56484C3002F0CCFD55484C305F
:1014E00002F0C8FD574802F0C5FD58484F4A56A1C2
:1014F0007844FFF71CFB20B9544878440A3800F0C0
:10150000BBFE54484A4A52A17844FFF710FB20B969
:10151000504878440A3800F0AFFE4F48454A4CA185
:101520007844FFF704FB20B94B4878440A3800F0B0
:10153000A3FE40233D48DC0000212246FFF776FF52
:1015400020B142487844543800F096FE384822468C
:1015500040230021FFF76AFF20B13E487844543809
:1015600000F08AFE3348224610230021FFF75EFF79
:10157000002806D038487844BDE81040563800F0BE
:101580007BBE10BD2B482DE9F041006D2D4E20F0A3
:101590000104304602F05EFD244D4C35284602F031
:1015A00059FD2248FFF7FEF9284602F089FD28463A
:1015B000AFF300801E4D4C35284602F04BFD1C4811
:1015C000FFF7F0F9284602F07BFD2846AFF30080D4
:1015D000184D4C35284602F03DFD1648FFF7E2F95C
:1015E000284602F06DFD2846AFF3008014E0206D20
:1015F00020F0010504F14C00074602F02BFD2046C7
:10160000FFF7D0F9384602F05BFD3846AFF30080B3
:101610002046FEF74DFF2C46002CE8D1304602F064
:101620004FFD0848AFF30080BDE8F081101800209E
:1016300064180020B8180020A0010020A401002098
:10164000A8010020AC010020720000002856000014
:1016500077000000175600000756000030B404461B
:101660008C464368002B18BF634538BF1846F8D333
:1016700003681844604507D0C81C20F0070000F13B
:10168000040CACEB0100121A2146CCF8002030BC4F
:1016900000220CF10400FEF7DABE30B5B0F10A0208
:1016A0004FEA900E71F100034EEA817EB0EB0E001E
:1016B00061EB91014FEA101E4EEA017E10EB0E0025
:1016C00041EB11114FEA102E4EEA016E10EB0E00A5
:1016D00041EB11214FEA104E4EEA014E10EB0E0085
:1016E00041EB1141401841F100014FEAD00040EABE
:1016F00041704FEAD10110EB80054FEA810444EAC2
:10170000907444EB01046D1944EB0404521BA34193
:101710004FF0000348BF0A3200D530BD401C41F1F4
:10172000000130BD10B50446FEF73AFE0068005DCA
:1017300000F0010010BD70472DE9FF4F0C461E461A
:101740004FF0FF378BB0D2E90001DDF860800A90DE
:101750008A46C1F30A5505B93D46002108464FF0B7
:101760000000BAF1000F00F4400005DA00EB800041
:101770004FF4400101EA50004FEA9059B9F1010FCE
:1017800000DDB9460A9850EA4A000ED044F61050DF
:10179000A5F2FF3545432F14B8F1000F1ED0754256
:1017A000291E1EDDC9F100021CE0B8F1010F4FF047
:1017B000000001D0302103E0F24305E02154401C39
:1017C000B042FBDB30460022002121540B99C1F8C6
:1017D0000880C1E900200FB0BDE8F08FBD1B6D1C73
:1017E000DEE74A4600DA694206A800F09BFD06AB38
:1017F00093E8070003AB83E8070050460A9900F01E
:1018000063FE8DE80700A0F500501F380090039894
:10181000002D09DD42F21F014A46084403A9039046
:10182000684601F0C2F808E0A0F500504A461F38AB
:1018300003A90390684601F0CCF88DE80700000486
:10184000000C03D04FF0FF30410800E01046B8F123
:10185000000F03D00022009215461EE0751E05D42D
:10186000FFF71BFF303262556D1EF9D5B3460122DA
:10187000084302D000227F1C04E02078302801D1E8
:1018800000227F1E002A099786D01DE0112D07DA5D
:10189000FFF703FF303262556D1C50EA0102F5D1AB
:1018A000084302D00098C8B10EE00021681E05E090
:1018B000235C625C63542254401E491C8142F7DB66
:1018C000AB46A81B401E0990002004F80B000B98A3
:1018D000099AC0F80880C0E9002B7CE711264FF078
:1018E000000859E72DE9F04F88460446D21D22F042
:1018F000070191B0D1E90001CDE90A0102F026FB10
:1019000002460B98C00F01D02D2007E02068810708
:1019100001D52B2002E0202101EAC000032A099012
:1019200001D0072A05DB03464146204600F0BAFCF9
:101930000BE12078800601D5E06900E00620B8F1CF
:10194000650F814606D0B8F1660F18D0B8F1670F61
:1019500070D131E00020B9F1110F009001DB1123AB
:1019600001E009F101030AAA01A90CA8FFF7E4FEAE
:10197000DDE90C70002609F10105834647E00120EE
:101980004B4600904FF000470AAA01A90CA8FFF7A8
:10199000D3FEDDE90DB00C995D46002610B909F1C2
:1019A00001000D18B9EB050003D4C0F1FF3609F1B1
:1019B0000105A5EB09002BE0B9F1010F01DA4FF0A9
:1019C00001090020B9F1110F0090484601DD1123F3
:1019D00000E003460AAA01A90CA8FFF7ADFEDDE965
:1019E0000C704D4600268346207800070AD4AB458C
:1019F00000DA5D4601A8012D04DD411911F8011C32
:101A0000302907D04F4502DA17F1040F04DA01201C
:101A100082460FE06D1EEEE7002F02DCED1B3E4418
:101A200003E0781CA84200DD7D1CB81B00F1010A10
:101A30004FF000472078000703D4AA4501DB4FF0A0
:101A4000FF3A0021B7F1004F0DF143088DF8431024
:101A500024D002202B23002F01DA7F422D230A21DC
:101A6000021EA0F1010000DC5FB197FBF1FC97FBC7
:101A7000F1F201FB1C7C17460CF1300C08F801CD8B
:101A8000EEE7A8F1010003702188090501D5452181
:101A900000E06521A0F1010800F8011C09980FA9D8
:101AA000A1EB0807FF1D00B10120411901EBEA700D
:101AB000A1693844081A401EA0612078C00602D4EB
:101AC0002046FEF711FD099828B1D4E9012190477D
:101AD000206A401C20622078C00622D52046FEF7EE
:101AE00003FD1EE0002E04DBB34502DD01A8805D8E
:101AF00000E03020D4E901219047206A401C206298
:101B0000761CAAF101005FEA000A0AD1FFF779F911
:101B1000C0680168405CD4E901219047206A401CFC
:101B20002062281EA5F10105DCDC07E0D4E90121D3
:101B300018F8010B9047206A401C2062381EA7F15C
:101B40000107F3DC2046FEF7E5FC032011B043E675
:101B50002DE9F04F04460D46D21D22F0070089B052
:101B6000D0E900974846394602F0F0F90246F80FEE
:101B700001D02D2307E02068810701D52B2302E047
:101B8000202101EAC0038DF820300BB1012000E0D4
:101B90000020032A824601D0072A04DB294620467A
:101BA00000F080FB3FE12078800601D40D2500E0A5
:101BB000E569C7F30A560D2D49DA00214FEA175B94
:101BC00008464FF00000002F00F4400007DA00EB59
:101BD00080004FF4400100EBD07001EA60008115F5
:101BE000012901DD4FF0FF3100224FEA850CBCF1E5
:101BF000180F06D31346ACF118004FF08052C240C4
:101C000003E04FF4801323FA0CF30CF10C0CBCF13D
:101C1000200F04D3ACF1200C09FA0CF001E007FA14
:101C20000CF000294FF0004801DD18B90FE00ED18B
:101C300040450CD319EB02095F4121B9404502D15F
:101C40009F4329EA0209BBEB175F00D0761C20886E
:101C5000000502D57B48784402E07A487844193878
:101C600008AA302302F80A30037C0AF10101002E91
:101C70000AF1020A53546A4602DC4FF0300101E0D7
:101C80004FF031014FF001088DF8001002D0A6F29C
:101C9000FF3603E059EA470100D06B4E002D02DC0D
:101CA0002178090704D54FF002082E218DF8011084
:101CB000C44600210BE0C7F303433F01C35C491C4A
:101CC0006D1E02F80830052908F1010801DA002D1F
:101CD000F1DC00210CE000EB1973491C1B786D1E30
:101CE000082902F808304FEA091908F1010801DA59
:101CF000002DF0DC21688B0602D516E0A8F1010862
:101D0000E04505DD02EB080313F8013C302BF5D06C
:101D1000B8F1000F09DD02EB080313F8013C2E2B8C
:101D200003D1090701D4A8F10108002D05DD3E21EA
:101D300002F808106D1E08F10108407C002E02F820
:101D4000080008F1010804DA2D20764202F80800A4
:101D500002E02B2002F808000A214FF47A70864234
:101D600008F101080BDB96FBF0F3303302F8083082
:101D700096FBF0F308F1010800FB136601E0642E06
:101D80000CDB642096FBF0F3303302F8083096FB4E
:101D9000F0F308F1010800FB136601E00A2E06DBF0
:101DA00096FBF1F0303002F8080008F1010896FBCC
:101DB000F1F001FB1060303002F80800A16908F171
:101DC000010808EB050202EB0A00081AA06120785E
:101DD000C00602D42046FEF787FB216A08AE01EB5D
:101DE0000A00206204E0D4E9012116F8010B9047B3
:101DF000BAF1010AF7D22078C00602D52046FEF7D4
:101E000073FB6E4609E016F8010B3E280FD0D4E9AB
:101E100001219047206A401C2062B8F10108F2D2EB
:101E20002046FEF777FB09B00320BDE8F08F206A5B
:101E30002844206203E0D4E90121302090476D1E40
:101E4000EBD3F8E72D4F000002FCFFFF10B543690C
:101E500013B1AFF3008001E0FFF7DCF8012010BD03
:101E6000128800F1240182840022C2840122EDE75D
:101E700011684FF0FF32E9E72DE9F34F4FF0000A08
:101E80000C4656468DB001200C9001F10C000B90D1
:101E900062690B9801219047051E2DD0252D2CD06D
:101EA000216A8847C0B162690B9801219047216A75
:101EB00088470028F7D16269411E0B98904700E0DF
:101EC000761CA1690D988847216A88470028F7D1B8
:101ED000E1690D988847DBE7A1690D988847A8421A
:101EE000074601D1761CD3E7E1690D9888477F1C2E
:101EF00002D1BAF1000F6FD06BE162690B98002735
:101F00003D46394690472A2804D162690B98012141
:101F100090470125DFF8D08262690B980121904734
:101F2000A0F130010A290AD24745E5DC07EB870119
:101F300000EB4107303FDFD445F01005ECE7E90640
:101F400001D46FF000476C280AD04C2814D06828C0
:101F500015D06A280DD074281CD07A281AD01DE01C
:101F600062690B98012190476C2802D045F0040566
:101F700014E045F002050DE045F020050AE0626935
:101F80000B9801219047682802D045F0080505E02C
:101F900045F4006562690B9801219047C4E9015737
:101FA00065283DD019DC58287AD00CDC452837D07C
:101FB00004DC252826D041289ED131E046282FD0A8
:101FC000472899D12CE05B2877D0612828D0632856
:101FD0007CD0642823D15AE0F6E06F2848D008DC92
:101FE00066281DD067281BD0692821D06E2816D1FD
:101FF00027E0702845D0732868D0752847D0782806
:102000000DD14DE0A1690D988847252805463FF47C
:1020100069AFE1690D9888476D1C3FF46AAFD8E05D
:102020000D9923466A466FF00100AFF30080C5E0CA
:1020300045F0400023464FF000026060A80736D408
:102040003EE0E8077FF447AF2068011D216000688B
:10205000290501D506701BE7290701D5068017E77A
:10206000A90703D5F117C0E9006111E706600FE782
:1020700045F0400023464FF008026060A80716D4E0
:102080001EE040F60E0125EA0100606016E045F012
:10209000400023464FF00A026060A80707D40FE013
:1020A00045F040006060A80708D5234610220D992E
:1020B0006FF00100AFF3008080E007E010222346BC
:1020C0000D996FF00100FEF7C7FB77E04FF00009B4
:1020D00063284F46C8464B46CB4602D05B2806D005
:1020E00038E0E80601D40120A060012732E06269EF
:1020F000D4F80CB00B98012190475E2807D14FF01F
:10210000010949466269D4F80CB00B9890472169DF
:1021100039B900210A4603AB43F82120491C08299C
:10212000FADBD8B3216949B308F1010862690B9859
:10213000012190475D28F4D1B9F1000F09D00020AA
:1021400003A951F82020D24341F82020401C082840
:10215000F7DB03AB2069002820794FEA40701ED0DE
:102160005B462246CDF80080CDE901970D99002805
:102170006FF0010020DAAFF300801FE0C11703AA5F
:1021800000EBD1614B1121F01F0102EB8302411AD8
:1021900013680120884003431360C7E719E00D99D5
:1021A000224600286FF00100009702DAAFF30080AA
:1021B00004E0AFF3008001E0AFF3008000280ADA0A
:1021C000401C06D10C9820B14FF0FF300FB0BDE895
:1021D000F08F5046FAE7E90701D10AF1010A0644F7
:1021E00000200C9054E60000CCCCCC0C10B501467D
:1021F000C268900703D0900607D5886A0AE000F00D
:102200004FF801210160881E10BD8B694868184491
:102210000B69C01A91F848301BB191F84910401A67
:1022200010BD1103FCD50028FADD401E10BD70B5AD
:1022300016460C460546FEF7B3F8036893F801010D
:10224000012806D0FF2C0FD8185D68B101202C7032
:1022500070BDD3F807013246214603F20713034449
:102260002846BDE8704018474FF0FF3070BD002889
:1022700001D000F00FB8704710B500F0DBF8BDE8F2
:102280001040FFF7F4BF10B500F0EEF8BDE81040C5
:10229000FFF7EDBF01491820ABBEFEE726000200A4
:1022A00001F08EBE2DE9F0411F4604460326016869
:1022B000072A01F4006004DB08B116A505E016A5A5
:1022C00003E008B115A500E015A521F0100020607D
:1022D000A069C01EA0610FB1401EA0612046FEF79C
:1022E00003F94FB1D4E9012138469047206A401CD8
:1022F0002062C01C206206E0206AFAE7D4E90121CE
:1023000015F8010B9047761EF8D22046FEF702F929
:10231000BDE8F0814E414E006E616E00494E4600B0
:10232000696E66002DE9F047814616468AB033484B
:1023300078440DC88DE80D0030487844801C03AC0B
:102340000DC884E80D0041F69B300844372190FB0E
:10235000F1F290FBF1F5A5F1800501FB12041B3CA5
:1023600002D56442012000E00020DFF890A0804602
:102370000027FA44AAF1BE0A0DE0E00709D0324670
:10238000684607EB47010AEB810100F022FB8DE86C
:10239000070064107F1C002CEFD1184F7F44AC3F26
:1023A00018E0E80714D007EB04100DF1180A90E8C4
:1023B0000E008AE80E00C068F04201D1981908901A
:1023C000324606A903A800F004FB03AB83E807002C
:1023D0006D10641C002DE4D132466946B8F1000F3F
:1023E00003A802D000F0E1FA01E000F0F2FAC9E936
:1023F0000001C9F808200AB0BDE8F087E4480000F1
:1024000070B505460C460A2000E06D1C00F054F83B
:1024100035B128780028F8D102E0641C00F04CF8AF
:1024200014B120780028F8D1BDE870400A2000F0EF
:1024300043B8000010B5014602A0FFF7E1FF0120FC
:1024400010BD000053494752545245443A2052654A
:102450006469726563743A2063616E2774206F70DB
:10246000656E3A200000000010B5012805D000215B
:1024700003A0FFF7C5FF012010BD09A1F8E7000088
:1024800053494752544D454D3A204F7574206F665D
:102490002068656170206D656D6F727900000000C5
:1024A0003A2048656170206D656D6F727920636FA9
:1024B000727275707465640008B569468DF8000025
:1024C0000320ABBE08BD70475FEA400C08BF91F027
:1024D000000F4FEA8C234FEAC12243EA51514FEAE1
:1024E0001C5018BF00F5F0404FEA300018BF41F013
:1024F00000415FEA6C5C00F02980BCF1FF3F08BF3F
:1025000040F080407047130C06BF12044FF0100CCF
:102510004FF0000C130E04BF12020CF1080C130F45
:1025200004BF12010CF1040C930F04BF92000CF1D4
:10253000020CD30F04BF52000CF1010C11464FF0F6
:102540000002A0F11F00A0EB0C00704711F0004F3B
:1025500008BF704731F000413FF4D5AF0B0C06BF08
:1025600009044FF0100C4FF0000C0B0E04BF0902D1
:102570000CF1080C0B0F04BF09010CF1040C8B0FBC
:1025800004BF89000CF1020CCB0F04BF49000CF111
:10259000010CCCF12003A0EB0C0022FA03F302FAA9
:1025A0000CF241EA030100F10100704720F07F4C7A
:1025B00080EA030023F07F47ACEB070303F57C536D
:1025C00000F0004003F1FF032DE980494FEA154B6D
:1025D00009B44FEA144325EA0B4E24EA03480FF2EC
:1025E000042606EB132749083E785FEA320203FB14
:1025F0000667C7F5000707FB06F64FEA54374FEAB0
:10260000D64606F1020607FB066CCCF1005C4FEAE9
:102610001C472CEA074C07FB06F40CFB06F504EB01
:1026200015464FEA961634BF00204FF000404FEA9F
:10263000D13706FB07FC4FEA1C4C0CFB0BF7D21BF7
:1026400003FB0CF761EB07010CFB0EF7B0EB074047
:1026500072EB17420CFB08F734BFA2EB0742B2EB58
:10266000074261EB17414FEA0C444FEA910706FB22
:1026700007FC4FEA1C4C0CFB0BF7B0EBC74072EBAE
:10268000573203FB0CF734BFA2EBC742B2EBC74291
:1026900061EB57310CFB0EF7B0EBC70072EB5772D2
:1026A0000CFB08F734BFA2EBC702B2EBC70261EB29
:1026B0005771039F4FEA816141EA921104EBCC0408
:1026C0004FEAD1374FEA826206FB07FC42EA9012DA
:1026D0004FEA80604FEA1C4C0CFB0BF7D21B03FB4C
:1026E0000CF761EB07010CFB0EF7B0EB074072EB48
:1026F00017420CFB08F734BFA2EB0742B2EB0742CC
:1027000061EB17414FEA8C554FEA910704EB9C248B
:1027100006FB07FC4FEA1C4C0CFB0BF7B0EBC74069
:1027200072EB573203FB0CF734BFA2EBC742B2EB9C
:10273000C74261EB57310CFB0EF7B0EBC70072EBF1
:1027400057720CFB08F734BFA2EBC702B2EBC7020B
:1027500061EB577115EB4C254FEA816141EA92110B
:102760004FEA82624FEAD13742EA901206FB07FC39
:1027700044F100044FEA80604FEA1C4C0CFB0BF75D
:10278000D21B03FB0CF761EB07010CFB0EF7B0EB60
:10279000074072EB17420CFB08F734BFA2EB07426D
:1027A000B2EB074261EB174115EB1C154FEA813183
:1027B00041EA92414FEA823242EA90424FEA803047
:1027C0004FEA0C7644F1000448EA03434EEA0B4812
:1027D0004FF0000EB2EB080C71EB030724BF62460A
:1027E00039464EEB0E0E4FF0000B00185241494196
:1027F0004BEB0B0BB2EB080C71EB03077BF1000BFF
:1028000024BF624639464EEB0E0E4FF0000B001807
:10281000524149414BEB0B0BB2EB080C71EB030738
:102820007BF1000B24BF624639464EEB0E0E51EA97
:10283000020718BF46F0010616EB0E7655F10002AE
:1028400054F1000103D5BDE88901BDE80088BDE869
:102850008901BDE80048B619524141EB0101A3F1DD
:102860000103704780807F7E7D7C7B7A79787776E4
:1028700076757473727171706F6E6E6D6C6C6B6A5D
:102880006A696868676666656464636362616160FB
:10289000605F5F5E5E5D5D5C5C5B5B5A5A59595878
:1028A00058575756565555555454535352525251E2
:1028B000515050504F4F4F4E4E4D4D4D4C4C4C4B38
:1028C0004B4B4A4A4A49494948484847474747467F
:1028D00046464545454444444443434343424242BB
:1028E00042414141002B26D4770021D01CB54FEA4C
:1028F000370703B44FF010004FF010014FF0000005
:102900000FBCBDE810400BF1010BBBF1010F08BF7C
:102910005FEA170722BF12F1010211F101014FF026
:10292000004143F1000300F0004043EA000070471B
:10293000F9D35708DAE746EA064613F1400F4FEAA3
:1029400016461FDD13F1200FDFBF16430A46002194
:1029500020335B42C8D0C3F1200746EA064602FA9C
:1029600007F74FEA164646EA0706C3F1200722FAA0
:1029700003F201FA07F721FA03F14FF0000342EAEC
:102980000702B1E746EA020646EA06464FEA16465D
:1029900046EA0106BCBF46EA0646360C4FF0000385
:1029A0004FF000024FF000019EE72DE9C04893462A
:1029B00030B491E8380007C831EA400C48BF34EA27
:1029C000430C03D5FFF7F2FDFFF78CFFF0BCBDE829
:1029D00000882DE9C048934630B491E8380007C814
:1029E00010F0804F08BF13F0804F03D100F005F8BE
:1029F000FFF778FFF0BCBDE8008820F07F4780EA51
:102A0000030023F07F4C07EB0C03A3F57C5300F08D
:102A10000040A3F1FE0392F0000F00F0B38095F0A8
:102A2000000F00F077802DE901494FEA11404FEA8D
:102A3000144621EA004800FB06FC24EA064708FB8E
:102A400006F607FB08F800FB07F718EB06484CEB07
:102A5000164C4FEA124B18EB07484FEA15464CEB61
:102A6000174022EA0B4E0BFB06FC25EA06470EFB3D
:102A700006F607FB0EFE0BFB07F71EEB064E4CEBB4
:102A8000164C4FF000061EEB074E4CEB174B18EBA5
:102A90000B0840F1000018EB0E0B58EB000840F15A
:102AA00000008F1A4FF000013CBFC943661B14BFE2
:102AB000B5EB040C00213CBFC943F61B4FEA174499
:102AC0004EEA8E0E27EA04454FEA1C4704FB0762D4
:102AD0002CEA074C05FB07F70CFB05F604FB0CFC86
:102AE00016EB074642EB174216EB0C4642EB1C4234
:102AF0001BEB060658EB0202414146EA9E0601D551
:102B0000BDE80189B619524141EB0101A3F101036E
:102B1000BDE801894FEA14454FEA114724EA05460A
:102B200021EA074C05FB07F406FB07F70CFB06F14F
:102B300005FB0CFC11EB074144EB17444FEA12472D
:102B400011EB0C4144EB1C4422EA074C05FB07F255
:102B500006FB07F70CFB06F605FB0CFC16EB07461D
:102B600042EB174216EB0C4642EB1C456A1854F137
:102B7000000148BF7047B619524141EB0101A3F172
:102B80000103704795F0000F37D04FEA11424FEA2A
:102B9000144721EA024624EA074C02FB07F106FB30
:102BA00007F70CFB06F402FB0CFC14EB074441EBAB
:102BB00017414FEA154714EB0C4441EB1C4125EA41
:102BC000074C02FB07F506FB07F70CFB06F602FBBA
:102BD0000CFC16EB074645EB174516EB0C4645EB90
:102BE0001C42121951F1000148BF7047B6195241F9
:102BF00041EB0101A3F1010370474FEA14454FEA8D
:102C0000114724EA054621EA074C05FB07F106FBBC
:102C100007F70CFB06F24FF0000605FB0CFC12EB6D
:102C2000074241EB174112EB0C4251EB1C4148BFEC
:102C30007047921841EB0101A3F1010370470000B6
:102C40000000000010B501F0D7FEBDE8104001F013
:102C5000FDBD00000021014801F0E4BB006400401C
:102C600031B500F0F7F8044600F0F4F80099001BC5
:102C70008842F9D338BD00002DE9F84F714E4FF06E
:102C8000000CDFF8BC9163464FF001080F2706F1F6
:102C9000040E00BF0A6808FA03F42240A2427DD164
:102CA0004D68A5F1805AAAF5881A4D4577D077DC92
:102CB000032D08BF4FF0000C1BD00DDC002D6ED093
:102CC000012D08BFD1F80CC013D0022D04BFD1F8DC
:102CD0000CC00CF1080C0CE0112D04BFD1F80CC095
:102CE0000CF1040C05D0122D04BFD1F80CC00CF16E
:102CF0000C0CB2F5807F34BF0546051D4FEA8304F6
:102D000028BF203CD5F800A007FA04FB2AEA0B0AEA
:102D10000CFA04F44AEA04042C604C6814F0805F56
:102D200064D0494CA56945F00105A561A46904F08A
:102D30000104009423F0030404F1804505F5803577
:102D4000D5F808A04FEA83744FEA147407FA04FB1D
:102D50002AEA0B0AA0F1804BBBF5843B18D0A0F106
:102D6000804BBBF5863B08BF4FF0010B10D0A0F1A4
:102D7000804BBBF5883B08BF4FF0020B08D0A0F199
:102D8000804BBBF58A3B0CBF4FF0030B4FF0040B9D
:102D90000BFA04F444EA0A04AC6002E026E03EE0E8
:102DA0002AE04C6814F4803F346814BF1443944301
:102DB00034604C6814F4003FDEF8004014BF144344
:102DC0009443CEF800404C6814F4801F1F4C2568D3
:102DD00014BF1543954325604C6814F4001F1C4C28
:102DE000256814BF2A4325EA020222605B1C102BCF
:102DF000FFF450AFBDE8F88FBAF5881F0FD007DC9D
:102E0000BAF5803F18BFBAF5801F7FF472AF06E0B5
:102E1000BAF5001F18BFBAF5041F7FF46AAFD1F8E6
:102E200008C0BCF1000F08BF4FF0040C3FF461AFC5
:102E3000BCF1010F4FF0080C0CBF0461446158E76E
:102E4000000011100004014000100240080401407D
:102E50000C04014001480068704700007401002024
:102E600002480168491C016070470000740100209D
:102E7000074810B5016841F010010160032000F01F
:102E800069F80F2000F006F800F062F8002010BD8D
:102E90000020024038B52748C16941F00401C161F2
:102EA000C16901F004010091016941F0040101616F
:102EB000016921F00401016100F0ECFD1F4C1E4886
:102EC000204920604FF0FF30E0601D480068B0FBF3
:102ED000F1F0401E606000202061A060204600F0FC
:102EE000B2FC0021204600F0D7FC0421204600F06F
:102EF000D3FC2068416A144A116001F57A7181633C
:102F000012491E2001F036F84FF0E0214FF08040CA
:102F1000C1F800012068C16841F00101C16020686A
:102F2000C16841F00401C160204600F0A8FC002007
:102F300038BD00000010024000080040FC160020D0
:102F40007801002040420F0070010020E166000877
:102F500070470000074900F007000A684FF6FF03BA
:102F60001A4042EA002040F0FD7040F080600860A6
:102F7000704700000CED00E02DE9F0478A4F044651
:102F800086B03868884600F0070040450AD23868A5
:102F900020F0070040EA08003860386800F00700B9
:102FA000404573D12078814E10F0020F05D0706833
:102FB000A16820F0F0000843706020784FF4003AD8
:102FC00010F0010F72D061680122012933D002296B
:102FD00045D0022090FAA0F3B3FA83F343F0200324
:102FE0005B090CBF736A336890FAA0F0B0FA80F006
:102FF00000F01F0002FA00F003427AD0706820F05F
:10300000030008437060FFF725FF0546606841F242
:10301000883901283BD00228706800F00C0046D0A7
:10302000002856D0FFF716FF401B48454DD906B083
:103030000320BDE8F0879AFAAAF0B0FA80F040F0D9
:103040002000400914BF3068706A9AFAAAF3B3FAF4
:1030500083F303F01F039A4010424AD0CEE74FF0AB
:10306000007090FAA0F3B3FA83F343F020035B09F6
:1030700014BF3368736A90FAA0F0B0FA80F000F0E1
:103080001F0002FA00F0034233D0B7E731E0706866
:1030900000F00C0004281CD0FFF7DCFE401B484564
:1030A000C5D8706800F00C000428F5D111E008289C
:1030B0000FD000BFFFF7CEFE401B4845B7D8706861
:1030C00000F00C000828F5D103E0706810F00C0F38
:1030D000A8D1386800F0070040450ED9386820F0C4
:1030E000070040EA08003860386800F007004045F3
:1030F00003D006B00120BDE8F087207810F0040F5F
:1031000005D07068E16820F4E060084370602078C2
:1031100010F0080F06D07068216920F4605040EA72
:10312000C1007060224B0FCB8DE80F002148006872
:1031300004907168204801F00C02042A1FD0082A6C
:103140001DD14FF4701393FAA3F301F47012B3FA84
:1031500083F3DA4011F4803F1DF8022004BF1748C2
:1031600050430CD071689AFAAAF301F40031B3FA13
:1031700083F3D94004AB595CB0FBF1F05043716864
:10318000F02292FAA2F201F0F001B2FA82F2D140FA
:103190000B4A515CC8400B4908600F20FFF77AFECC
:1031A00006B00020BDE8F087002002400010024079
:1031B0009C320008AC32000800127A0000093D0081
:1031C000E86A000878010020084809490068496851
:1031D0004FF4E06292FAA2F201F4E061B2FA82F2F4
:1031E000D140044A515CC84070470000780100207B
:1031F00000100240F86A0008084809490068496858
:103200004FF4605292FAA2F201F46051B2FA82F2E3
:10321000D140044A515CC84070470000780100204A
:1032200000100240F86A00081CA386B00FCB8DE89E
:103230000F001EA01E4B0068049059681D4801F045
:103240000C02042A04BF06B07047082A1CBF06B04F
:10325000704701F470124FF4701C9CFAACFCBCFA7D
:103260008CFC22FA0CF211F4803F1DF8022001BF01
:103270001148504306B0704759684FF4003393FA31
:10328000A3F301F40031B3FA83F3D94004AB595CE2
:1032900006B0B0FBF1F05043704700000203040594
:1032A000060708090A0B0C0D0E0F10100102000092
:1032B0000010024000127A0000093D002DE9F84F8D
:1032C00004460078FB4D10F0010F4FF0010626D0A8
:1032D0006868770400F00C00042808D0686800F0E3
:1032E0000C00082860D1686810F4803F5CD097FA21
:1032F000A7F0B0FA80F040F02000400914BF286821
:10330000686A97FAA7F1B1FA81F101F01F0106FA94
:1033100001F1084203D06068002800F08E82207816
:103320004FF0000810F0020F4FF0020772D06868EB
:103330004FF0F80A10F00C0F6DD0686800F00C0028
:10334000082804BF686810F4803F64D02069002812
:1033500096FAA6F0B0FA80F04FEA800000F18440BF
:1033600000F5840000F0E4800660FFF773FD8146FD
:1033700097FAA7F0B0FA80F040F02000400914BF9F
:103380002868686A97FAA7F1B1FA81F101F01F0184
:1033900006FA01F108427CD1FFF75CFDA0EB0900C1
:1033A0000228E5D900F0EBB96068B0F5803F04BFB2
:1033B000286840F480300AD010B1B0F5A02F2BD08F
:1033C000286820F480302860286820F48020286055
:1033D000606848B3FFF73EFD4FEA000897FAA7F090
:1033E000B0FA80F040F02000400914BF2868686AF5
:1033F00097FAA7F1B1FA81F101F01F0106FA01F184
:1034000008428CD1FFF726FDA0EB08006428E5D91F
:1034100000F0B5B94EE028E0286840F4802028602C
:10342000286840F48030D2E7FFF714FD4FEA000827
:1034300097FAA7F0B0FA80F040F02000400914BFDE
:103440002868686A97FAA7F1B1FA81F101F01F01C3
:1034500006FA01F108423FF462AFFFF7FBFCA0EB74
:1034600008006428E4D900F08AB997FAA7F0B0FA06
:1034700080F040F02000400914BF2868686A97FA7D
:10348000A7F1B1FA81F101F01F0106FA01F108423A
:1034900000E004E01CBF2069012840F0CE812868CC
:1034A0009AFAAAF26169B2FA82F220F0F800914029
:1034B00008432860207810F0080F5DD0A06900282C
:1034C00096FAA6F0B0FA80F04FEA800000F184404E
:1034D00000F5840051D0C0F88064FFF7BBFC814642
:1034E00097FAA7F0B0FA80F040F06000B6EB501FFA
:1034F00008BF28680AD097FAA7F0B0FA80F040F029
:103500006000B7EB501F0CBF286A686A97FAA7F1F2
:10351000B1FA81F101F01F0106FA01F1084228D148
:10352000FFF798FCA0EB09000228D9D900F027B9D1
:10353000C0F80080FFF78EFC4FEA000997FAA7F069
:10354000B0FA80F040F02000400914BF2868686A93
:1035500097FAA7F1B1FA81F101F01F0106FA01F122
:103560000842A7D0FFF776FCA0EB09000228E5D9B6
:1035700005E10120FFF774FB2BE0C0F88084FFF722
:1035800069FC814697FAA7F0B0FA80F040F060003D
:10359000B6EB501F08BF28680AD097FAA7F0B0FA18
:1035A00080F040F06000B7EB501F0CBF286A686ADB
:1035B00097FAA7F1B1FA81F101F01F0106FA01F1C2
:1035C000084206D0FFF746FCA0EB09000228D9D933
:1035D000D5E0207810F0040F70D0E86940F08050FA
:1035E000E861E869DFF8D0A000F080500090DAF8D8
:1035F000000040F48070CAF80000FFF72BFC814601
:10360000DAF8000010F4807F0BD100BFFFF722FC36
:10361000A0EB0900642843D8DAF8000010F4807F9A
:10362000F4D0E068012804BF286A40F0010009D006
:1036300008B1052835D0286A20F001002862286AE0
:1036400020F004002862E06841F2883988B3FFF76F
:1036500001FC824697FAA7F0B0FA80F040F04000F3
:10366000B6EB501F08BF28680AD097FAA7F0B0FA47
:1036700080F040F04000B7EB501F0CBF286A686A2A
:1036800097FAA7F1B1FA81F101F01F0106FA01F1F1
:1036900008423ED1FFF7DEFBA0EB0A004845D9D92E
:1036A0006DE0286A40F004002862286A40F00100BA
:1036B000C8E704E0001002400070004029E0FFF776
:1036C000C9FB824697FAA7F0B0FA80F040F04000BC
:1036D000B6EB501F08BF28680AD097FAA7F0B0FAD7
:1036E00080F040F04000B7EB501F0CBF286A686ABA
:1036F00097FAA7F1B1FA81F101F01F0106FA01F181
:10370000084206D0FFF7A6FBA0EB0A004845D9D92E
:1037100035E0E06900287BD0696801F00C010829D8
:1037200077D04FF08079022899FAA9F0B0FA80F0AA
:103730004FEA800000F1844000F584004FF00077EC
:10374000C0F800801ED0FFF785FB044697FAA7F06B
:10375000B0FA80F040F02000400914BF2868686A81
:1037600097FAA7F1B1FA81F101F01F0106FA01F110
:10377000084265D0FFF76EFB001B0228E6D9032044
:10378000BDE8F88FFFF766FB4FEA000897FAA7F04D
:10379000B0FA80F040F02000400914BF2968696A3F
:1037A00097FAA7F0B0FA80F000F01F0006FA00F0D8
:1037B000014206D0FFF74EFBA0EB08000228E5D936
:1037C000DDE7206AB0F5803F05D16868A16820F484
:1037D000003008436860D4E908010843696821F4AF
:1037E00074110843686099FAA9F0B0FA80F080007B
:1037F00000F1844000F584000660FFF72BFB0446CF
:1038000097FAA7F0B0FA80F040F02000400901E0FC
:1038100016E012E014BF2868686A97FAA7F1B1FAB7
:1038200081F101F01F0106FA01F1084208D1FFF70A
:1038300011FB001B0228E3D9A1E70120BDE8F88FA6
:103840000020BDE8F88F002804BF0120704710B5A4
:10385000044690F8390028B9002084F83800204642
:1038600000F00CF8022084F83900211D206800F0D7
:1038700081F9012084F83900002010BD7047022131
:1038800080F8391001680A6842F001020A600121DB
:1038900080F83910002070470268012303FA01F113
:1038A000136A8B431362136A194311620168A1F111
:1038B0008042B2F5963203D14A6C42F400424A6427
:1038C0000068016841F00101016000207047002894
:1038D00004BF0120704770B5044690F839000025F8
:1038E00020B984F83850204600F020F8022084F8EF
:1038F00039002068C16821F40051C160204600F001
:103900006FF92068016921F49041016120684169E3
:1039100021F02A0141612068C16841F40051C16071
:10392000E563012084F83900002070BD70472DE95F
:10393000F04790B001264FF4E01A4FF4A020002485
:10394000CDF824A00096CDE901040225EF03CDE9CE
:1039500007576846FFF7B2FC4FF00F084FF4806935
:1039600070B9CDF82880CDE90B54CDE90D94022132
:103970000AA8FFF701FB002804BF10B0BDE8F087DC
:103980000096CDE90174CDF824A0CDE9075768462B
:10399000FFF794FC70B9CDF82880CDE90B54CDE940
:1039A0000D9402210AA8FFF7E7FA002804BF10B01F
:1039B000BDE8F0870320CDE900041020CDE90460C4
:1039C0004FF46010CDE9084007956846FFF776FC94
:1039D00070B9CDF82880CDE90B54CDE90D940221C2
:1039E0000AA8FFF7C9FA002804BF10B0BDE8F087A5
:1039F000FEE7000038B51949002450B1012811D064
:103A0000022818D003281FD015A000F022FE20465F
:103A100038BD1C4C886940F004008861886900F05A
:103A2000040019E0184C886940F008008861886932
:103A300000F0080010E0154C886940F01000886123
:103A4000886900F0100007E0114C886940F0200000
:103A50008861886900F020000090D8E700100240DB
:103A600050696E6D6170206572726F723A20777264
:103A70006F6E6720706F7274206E756D6265722E46
:103A80000000000000080140000C0140001001404F
:103A90000014014016494868164A10F00C031648F5
:103AA00018BF042B01D0082B01D0026015E04A6832
:103AB0004B6802F470124FF0020C13F4803F0CEBD1
:103AC000924203D04B6813F4003F03D00B4B5A4390
:103AD000026002E0074B5A4302604968084AC1F39A
:103AE0000311515C026822FA01F101607047000085
:103AF0000010024000127A007801002000093D0009
:103B0000E86A000810B5164C206840F001002060FB
:103B10006068144908406060206820F4102020F09C
:103B200080702060206820F480202060606820F48D
:103B3000FE0060604FF41F00A0600B49E0030860C6
:103B40000B490A480860FFF793F9FFF7F0FE206978
:103B500040F004002061206920F00400206110BDC5
:103B6000001002400000FFF808ED00E000127A00AB
:103B70007801002030B40268164BDFF85CC0174CA7
:103B8000984218BFB0F1804F03D0604518BFA042E3
:103B900003D14D6822F070022A43984218BFB0F159
:103BA000804F03D0604518BFA04205D1D1F80CC0AA
:103BB00022F440724CEA020202608A68C2620A6819
:103BC0008262984204BF096901630121416130BCEE
:103BD00070470000002C0140000400400008004035
:103BE0002DE9F041044600680169E26821F4405182
:103BF000114301612169A068084361690843216894
:103C0000CA6822F4037222F4A0521043C8602068EC
:103C10004169A26921F440711143416120685C4D02
:103C20003226A0F18041B1F59C3158D0FFF7CCFA93
:103C300000EBC00101EB001061688900B0FBF1F7F7
:103C4000FFF7C2FA00EBC00101EB001061688900C8
:103C5000B0FBF1F0A5FB001040096FF018014843DC
:103C600007EB800006EB0010A5FB0010400900F0F8
:103C7000F007FFF7A9FA00EBC00101EB0010616843
:103C80008900B0FBF1F0A5FB0010400907EB00171D
:103C9000FFF79AFA00EBC00101EB001061688900A0
:103CA000B0FBF1F8FFF790FA00EBC00101EB001058
:103CB00061688900B0FBF1F0A5FB001040096FF0CE
:103CC0001801484308EB800006EB0010A5FB00102C
:103CD0002168C0F3431038448860BDE8F081FFF7E5
:103CE0008BFA00EBC00101EB001061688900B0FBAA
:103CF000F1F7FFF781FA00EBC00101EB00106168FA
:103D00008900B0FBF1F0A5FB001040096FF018012D
:103D1000484307EB800006EB0010A5FB00104009AC
:103D200000F0F007FFF768FA00EBC00101EB0010AC
:103D300061688900B0FBF1F0A5FB0010400907EBBA
:103D40000017FFF759FA00EBC00101EB00106168A2
:103D50008900B0FBF1F8FFF74FFA00EBC00101EB6F
:103D6000001061688900B0FBF1F0A5FB001040096C
:103D70006FF01801484308EB800006EB0010A5FB2C
:103D800000102168C0F3431038448860BDE8F0811A
:103D90001F85EB510021014800F044BB0064004046
:103DA0000021014800F03EBB00640040007B7047EA
:103DB00070B506460D46204802F0DEFD4FF0FF319B
:103DC00000F091F81D480468002C2ED0A06848B37C
:103DD0002A463146FCF715FF20BBA068FCF7F2FE2F
:103DE000A8421FD1144D286870B9154E4FF0FF310D
:103DF000306800F0CFFE286818B9281D00F07AF866
:103E00002860306800F0B6FE2868291D884204D07A
:103E100059220C490C4800F06BFD286800F066F848
:103E2000204670BD6468002CD0D1034802F0A4FD88
:103E300000F05CF8002070BD381700207C010020E5
:103E400040010020446C0008306C000810B50446A6
:103E5000406828B1FFF7AAFF012804BF606810BDC1
:103E6000002010BD10B50446406810B1FFF79EFF5A
:103E700008B1002010BD6068002818BF001F10BDE9
:103E80004068002818BF0120704710B5406800281E
:103E900008BF10BDFFF78AFF00280CBF01200020DB
:103EA00010BD0068704710B50446002020606060B7
:103EB00008782F280DD1487858B14B1C0021236079
:103EC000226810782F2806D038B1501C491C206079
:103ED000F6E7204610BD501C20601846FFF768FF2B
:103EE0006060204610BD006800F054BE006800F01D
:103EF00041BE000010B504460020A060E0602061D3
:103F0000606104F108006060201D00F009FE20607F
:103F1000002804BF02A000F09CFB204610BD00005A
:103F20004572726F7220696E697469616C697A6931
:103F30006E6720746865206D75746578206F626A9D
:103F40006563740A0000000000F05EBD490050EA9D
:103F5000C12018BF04204A0D18BF40F0010040F2F4
:103F6000FF72B2EB515F08BF40F00200012808BFAA
:103F7000052070472DE9F0410A4D0E4607462C6892
:103F80002868B0F1006F07D12146AC06EC2220462C
:103F9000FCF782FE2046286004EB87000664BDE83B
:103FA000F081000008ED00E00448012100220260D9
:103FB00042608260C260026100F0C8BBB0010020B4
:103FC000074810B5007848B102F00CF830B1054947
:103FD00000EB400001EB4010603810BD024810BDFE
:103FE000ED000020100A0020B017002002486A46A9
:103FF00020F00700704700001319002012F0004F56
:104000001FBF22F00042D21D22F00703102202BF80
:10401000D21C22F003030C221BB103EB020C8C45D3
:1040200001D901207047024401448360C0E90021A6
:10403000C91AD01888429CBF10600246F9D90020E6
:104040001060704730380A2801D2012070470020E4
:104050007047000005490978002908BF70470068CB
:104060004FF6FF71DFF808C000DF7047ED00002059
:104070009D57000870B5094C0546E0680C2824BF20
:1040800007A000F0E6FA0D48E16800EB0110491CBA
:104090002860E16001F008FB012070BD38010020BC
:1040A0004E6F7420656E6F756768207374646C69F9
:1040B00062206D7574657865730A0000B00C00208D
:1040C00004490978002908BF70470068DFF808C074
:1040D00000DF7047ED000020B956000810B500F071
:1040E0008CFC10BD0328BCBF00207047074900228C
:1040F00001EB800151F80C0C41F80C2C002804BF96
:104100004FF0FF3070470168496808475417002096
:104110000328BCBF00207047064901EB800050F81F
:104120000C0C002804BF4FF0FF307047016889690C
:1041300008470000541700200328BCBF0120704727
:10414000064901EB800050F80C0C002804BF4FF02A
:10415000FF3070470168C968084700005417002005
:104160002DE9F0470F4682B082467F49FCF7EEFD0D
:104170007E4C70B17E495046FCF7E8FDC8B17D49E0
:104180005046FCF7E3FD20B37B4C7C4D206880B3A8
:104190003EE0206848B903220221794801F066FF19
:1041A0004FF41651764801F02BFF02B00020BDE815
:1041B000F087206848B903220221714801F056FFB8
:1041C0004FF416516E4801F01BFF02B00120BDE80C
:1041D000F087206848B903220221694801F046FFB0
:1041E0004FF41651664801F00BFF02B00220BDE803
:1041F000F087FFE74FF0FF31286800F0CBFC206824
:1042000018B9201DFFF776FE2060286800F0B2FC88
:10421000206804F10409484504D0592259495A48F4
:1042200000F066FB4FF0FF312068FFF75CFEDFF81F
:104230005C81002458F8240018B1641C102CF9D3B8
:1042400001E0102C1CD34C4C206868B94FF0FF31B2
:10425000286800F09FFC206818B9201DFFF74AFE6F
:104260002060286800F086FC2068484504D0592268
:104270004449454800F03CFB2068FFF737FE63E007
:104280003D4E4FF0FF3048F82400306868B94FF0D9
:10429000FF31286800F07EFC306818B9301DFFF748
:1042A00029FE3060286800F065FC3068484504D07D
:1042B00059223449344800F01BFB3068FFF716FEE2
:1042C0009AF8000000263A2810D051466846FFF7B9
:1042D000EAFD6846FFF7D4FDA0B36846FFF7D5FDB9
:1042E0000028684609D0FFF7BDFD23E06A4628A1F3
:1042F0005046FCF793FA00981CE0FFF7A7FD08B3BF
:1043000017F0020F18BF022523D000BF17F00C0FC3
:1043100018BF45F4007517F0040F18BF45F4806509
:1043200007466846FFF7BDFD014638682A468368A0
:104330003846984700281FBF48F82400E01C02B008
:10434000BDE8F08748F8246002B04FF0FF30BDE8C8
:10435000F08717F0040F18BF0125D7D117F0080F09
:1043600014BF09250025D1E71C6B00085801002067
:10437000236B00082B6B00089417002040010020DD
:104380007C160020446C0008306C00085417002094
:104390003A2570000328BCBF00207047064A02EB94
:1043A000800050F80C0C002804BF4FF0FF3070471D
:1043B00002681369002218475417002070B514468C
:1043C0000E46032818DA1448006848B9032202216F
:1043D000124801F04BFE4FF41651104801F010FE48
:1043E0000025002C06D9715D0C4801F041FF6D1CC1
:1043F000AC42F8D820460DE0094901EB800050F8A6
:104400000C0C002804BF4FF0FF3070BD01680B6832
:1044100031469847201A70BD580100207C160020B4
:10442000541700202DE9F047384C0D4620604169B3
:10443000374E11F0010F37461CD08168354A32EAF9
:1044400001010CBF012100218268334B33EA0202D3
:104450000CBF012200228068304B33EA00000CBF01
:10446000012000201143084304D07A6856F8250043
:10447000012190472068C168406911F0030FC0F323
:10448000400018BF002804D07A6856F825000021A3
:104490009047206881694269C1F340014069C2F3D5
:1044A0004022C0F3C03000291CBF002A002804D0DD
:1044B0007A6856F825000521904720688169C1F384
:1044C000800841694069C1F38029C0F3C030B8F168
:1044D000000F1CBFB9F1000F002804D07A6856F80D
:1044E00025000721904720684069B8F1000FC0F30C
:1044F000C0301ABFB9F1000F0028BDE8F08756F8A8
:1045000025007A68BDE8F0470221104770150020A9
:104510005001002003000004000300080000031005
:10452000EFF31080012121EA0000704770B5EFF32E
:104530001080012121EA000080F0010572B60D4CC7
:104540006068002808BF25706068B0F1FF3F04D1A3
:10455000332209A111A000F0CBF9606828B125B978
:10456000372205A117A000F0C3F96068401C606005
:1045700070BD0000880100206D6265642D6F732F8F
:10458000706C6174666F726D2F6D6265645F6372CB
:1045900069746963616C2E6300000000696E746564
:1045A00072727570745F656E61626C655F636F7562
:1045B0006E746572203C2055494E5433325F4D4134
:1045C00058000000696E74657272757074735F6470
:1045D000697361626C65640010B50E4C60680028F8
:1045E00008BF10BDEFF31080012121EA000090F018
:1045F000010F04D1482208A110A000F079F96068E9
:10460000401E60606068002806BF2078002810BD4A
:1046100062B610BD880100206D6265642D6F732F36
:10462000706C6174666F726D2F6D6265645F63722A
:1046300069746963616C2E6300000000696E7465C3
:104640007272757074735F64697361626C65640023
:1046500070470FB410B503A9029800F0A7F9012024
:1046600000F000F804460548FCF7E7F90448FCF7B9
:10467000E4F9002C18BF00F065F9FEE7641800208B
:10468000B818002070B50446B0F900000D46B0F12E
:10469000FF3F04D1492209A116A000F029F9B4F97D
:1046A0000000012D04D0BDE87040002100F04CBB9B
:1046B000BDE87040012100F047BB00006D626564F9
:1046C0002D6F732F746172676574732F5441524755
:1046D00045545F53544D2F5441524745545F5354F2
:1046E0004D333246312F6770696F5F6170692E6399
:1046F000000000006F626A2D3E70696E20213D202F
:104700002850696E4E616D65294E430070B50C46A8
:1047100005460180B1F1FF3F08BF70BDC4F303102F
:10472000FFF768F906460021204600F00DFB04F073
:104730000F00012101FA00F0686006F10800A8608E
:104740000830E860001D286170BD000070B50D469E
:1047500004460026FFF7DAFFB5F1FF3F08BF70BD42
:10476000B4F90000B0F1FF3F05D10949352201F14C
:10477000380000F0BDF8216960680860012120461A
:10478000FFF780FF31462046BDE8704000F052B888
:10479000E44700082DE9F04104460E46002715467F
:1047A000FFF7B4FFB6F1FF3F08BFBDE8F081B4F9F1
:1047B0000000B0F1FF3F04D135220AA117A000F09C
:1047C00097F86068002D14BFE16821690860012135
:1047D0002046FFF757FF39462046BDE8F04100F07C
:1047E00029B800006D6265642D6F732F7461726764
:1047F0006574732F5441524745545F53544D2F54A1
:1048000041524745545F53544D333246312F677000
:10481000696F5F6F626A6563742E68006F626A2DEC
:104820003E70696E20213D202850696E4E616D6595
:10483000294E4300B0F9000000F032BB10B501F082
:1048400033F8BDE8104001F01FB80000134E134CC0
:10485000B6F90000B0F1FF3F04D13F2210A11EA025
:1048600000F046F8B06800687168084214BF00257F
:104870000125B4F90000B0F1FF3F04D1352208A1B1
:1048800015A000F035F86068002D14BFE1682169BB
:1048900008604FF4FA60FFF757FBD8E7B00100203B
:1048A0006D6265642D6F732F746172676574732F09
:1048B0005441524745545F53544D2F54415247453C
:1048C000545F53544D333246312F6770696F5F6FB9
:1048D000626A6563742E68006F626A2D3E70696E4D
:1048E00020213D202850696E4E616D65294E4300A0
:1048F00070B514460D460646FFF718FE23462A46B5
:10490000314603A000F028F8BDE8704000F01AB866
:104910006D626564206173736572746174696F6E32
:10492000206661696C65643A2025732C2066696C89
:10493000653A2025732C206C696E65202564200A59
:1049400000000000FFF7F2FD962001F0C7FF96205F
:1049500001F0C4FFF8E700000FB470B5A0B025ACBB
:10496000249DFFF7E3FD224629466846FBF7AAFD92
:10497000051E10DD0B48006820B9032202210A48F9
:1049800001F074FB00246E460748315D01F070FCB5
:10499000641CAC42F8DBFFF71FFE20B070BC5DF872
:1049A00014FB0000580100207C16002070B5A0B058
:1049B0000C460546FFF7BAFD224629466846FBF736
:1049C00081FD051E10DD0A48006820B9032202217E
:1049D000084801F04BFB00246E460648315D01F0AB
:1049E00047FC641CAC42F8DBFFF7F6FD20B070BD5D
:1049F000580100207C160020704710B5FFF74AF8D8
:104A0000BDE81040FEF734BAEFF31081002902D15F
:104A1000EFF3058109B182207047DFF808C000DF9D
:104A200070470000FD620008EFF31080002802D1FB
:104A3000EFF3058008B182207047EFF3148010F087
:104A4000010F03D0DFF808C000DF704701F060BC41
:104A50001163000800B589B0EFF31080002802D17F
:104A6000EFF3058010B109B0822000BDEFF3108094
:104A700000280CD1EFF3058048B9EFF3148010F053
:104A8000010F04D0DFF884C000DF50B902E02048F5
:104A90004078FAE71F48006800281EBF40680028D9
:104AA0008047EFF3148010F003011B4806D0012962
:104AB00024D0022912D003291CD022E008A981F3B6
:104AC0000988007810F0010F14BF0220032080F342
:104AD0001488BFF34F8FBFF36F8F12E0007810F090
:104AE000010F0ED1032080F31488BFF34F8FBFF363
:104AF0006F8F06E0007810F0010F02D009B0FF20A0
:104B000000BDDFF818C000DF09B000BDCD630008AC
:104B1000EC00002000010020E0690008D9630008D3
:104B200010B5EFF31081002903D100BFEFF3058129
:104B300009B1002010BDEFF314810C4A01F001010E
:104B40005278114303D0DFF828C000DF10BD0021E8
:104B500000281CBF0468002C01D0207808B108464A
:104B600010BD204600F0A0FD204610BDEC00002046
:104B700069640008EFF31081002902D1EFF3058189
:104B800009B182207047DFF808C000DF70470000DD
:104B900087640008EFF31082002A02D1EFF3058248
:104BA0000AB182207047DFF808C000DF70470000BC
:104BB000A9640008F0B405460E460027EFF3108004
:104BC000002802D1EFF3058010B1F0BC002070473F
:104BD000EFF31480184C00F001006178084307D00F
:104BE0004FF0FF31EFF31082A068002A06D00CE0EE
:104BF0003A4631462846F0BC01F072BCEFF305821C
:104C0000002A04BFDFF834C000DF3A4631462846A8
:104C1000DFF82CC000DF0546EFF31081A068002903
:104C200007D100BFEFF30581002904BFDFF814C0EE
:104C300000DF2846F0BC7047EC000020A9640008A3
:104C4000E1640008876400080C484FF0FF31806879
:104C5000EFF31082002A06D1EFF30582002A04BF89
:104C6000DFF81CC000DFDFF81CC000DF044601F0E5
:104C7000ACFC2046DFF810C000DFFEE7EC000020AF
:104C8000A96400085D650008796500080E4D802460
:104C90004FF0FF31EFF310822868002A03D100BFE4
:104CA000EFF305820AB1204602E0DFF820C000DF02
:104CB0001028EDD10846DFF818C000DF0028E7D043
:104CC000024608469047E3E74C01002025640008AF
:104CD000B165000810B5044601F040FC21460246CB
:104CE000BDE8104001A0FFF7B4BC000052545820AA
:104CF0006572726F7220636F64653A203078253078
:104D000038582C207461736B2049443A2030782540
:104D10003038580A0000000001F06CB907480168FB
:104D20004FF0E020416100218161072101610448C9
:104D3000016841F07F41016040177047DC6900085D
:104D400020ED00E0704700002DE9F04385B00C46EF
:104D50000546B0F1FF3F04D156223CA148A0FFF721
:104D6000C7FD04F00F08C4F30217C4F3C316C5F35C
:104D7000031005F00F09FEF73DFE46498A6942F02F
:104D800001028A618969444C01F001010491AEB1CC
:104D90000A2E13D2DFE806F012050A0E25292F3558
:104DA0003B3F616841F00101616007E0616841F0EB
:104DB000020102E0616841F004016160012101FA31
:104DC00009F10091354951F82810CDE90117032167
:104DD00003916946FDF750FF0D2D18BF0E2D24D10C
:104DE0001DE0616841F00801E7E7616821F03001EA
:104DF00041F01001E1E7616821F0C00141F040019C
:104E0000DBE7616821F4406141F40061D5E7616846
:104E100041F44071D1E7616841F44061CDE76068D9
:104E200020F0E06040F0806060600F2D1FBF132D08
:104E3000142D05B0BDE8F083606820F0E06040F01C
:104E40000070606005B0BDE8F08300006D626564CD
:104E50002D6F732F746172676574732F54415247BD
:104E600045545F53544D2F5441524745545F53545A
:104E70004D333246312F70696E6D61702E630000C4
:104E800070696E20213D202850696E4E616D652944
:104E90004E4300000010024000000140B46A0008C8
:104EA00070B50E460446B0F1FF3F04D1A12226A101
:104EB00032A0FFF71DFDC4F3031004F00F05FEF749
:104EC00099FD082D39BFAB00024605F007018B00A4
:104ED00028BF021D002E08BF70BD4FF0030C042137
:104EE000012E18BF022E0ED0032E18BF70BD106801
:104EF0000CFA03FC10EA0C0F08BF70BD1068994053
:104F00000843106070BD15680CFA03FC15EA0C0F1D
:104F10000DD1D2F800C008259D404CEA050CC2F81E
:104F200000C0D2F800C099402CEA010111600121B3
:104F300004F00F029140C268012E0CBF114322EA17
:104F40000101C16070BD00006D6265642D6F732F3B
:104F5000746172676574732F5441524745545F53AF
:104F6000544D2F5441524745545F53544D333246AC
:104F7000312F70696E6D61702E63000070696E2054
:104F8000213D202850696E4E616D65294E43000019
:104F9000884208BF7047B0F1FF3F04BF0846704722
:104FA00010B5B1F1FF3F08BF10BD03A0FFF751FBE3
:104FB0004FF0FF3010BD000070696E6D6170206DA4
:104FC00069732D6D617463680000000010B5B0F165
:104FD000FF3F08BF10BDB1F90020B2F1FF3F0DD077
:104FE000B1F90020824204D14C68B4F1FF3F0AD1EC
:104FF00006E031F90C2FB2F1FF3FF1D14FF0FF3451
:1050000002A0FFF726FB204610BD000070696E6D00
:105010006170206E6F7420666F756E6420666F72AB
:10502000207065726970686572616C0010B5044625
:10503000B0F1FF3F08BF10BDB1F90000B0F1FF3F74
:1050400013D000BFB1F90000A04209D18968204601
:10505000FFF77AFE2046BDE810400021FFF720BF91
:1050600031F90C0FB0F1FF3FECD1BDE8104001A0C9
:10507000FFF7EFBA636F756C64206E6F7420706910
:105080006E6F75740000000010B50848FFF748FD0A
:105090000749886007480849006809680144FBF728
:1050A000A7F8BDE81040FDF7CDBD0000E469000899
:1050B00038010020900100209401002050E8001FDA
:1050C00031B10B6840E80032002AF7D1084670473A
:1050D000BFF32F8FFAE70000002808BF704770B5B4
:1050E0000D464FF6FF710D4C884204D222680146EE
:1050F000104600F007FC20684570094800F020F9D0
:105100000221606041700749096800291ABF0969D6
:10511000002970BDC06BBDE8704008471401002035
:10512000D4010020000100200F490E484A680F49B1
:1051300003680968934204D00260C2884B1E1A4477
:105140008280828889B28A4218BF704710B50021D8
:105150000160054800F0F4F80146BDE8104002483F
:1051600000F004BC04010020D40100201C01002038
:10517000DFF8B8C0DCF80C00002808BF70472DE944
:10518000F001BCF814000024401E294FACF81400B4
:105190005FF00106BCF8140000281CBFBDE8F00158
:1051A0007047DCF80C10002904BFBDE8F00170471F
:1051B000886838B14A684260486810B18A6882607D
:1051C0004C608C601B4A0025107802281ABF012809
:1051D000032801258B78506828B190F80280984503
:1051E00028BF0246F7D248605160002D04BF084630
:1051F0008C6004D000281CBF0B4681608A60888ABE
:10520000ACF814004878042803D1C88A3A881044BE
:1052100088824E70C868CCF80C00C86800281CBF93
:10522000C0F810C0CC600C61B4E70000EC010020B5
:105230001C010020D40100202DE9F0411B4D1C4E23
:1052400004004FF0020718D02868A1784FF0010839
:105250008278914221D900F0ABFB286880F8018068
:105260006C606770306800281ABF01690029BDE8CA
:10527000F081E06BBDE8F04108470E4800F060F8AF
:1052800068604770316800291ABF09690029BDE8C4
:10529000F081C06BBDE8F041084784F801802146E9
:1052A000BDE8F041034800F061BB0000140100209C
:1052B00000010020D40100200321FFF70DBF0000F2
:1052C00010B50446008B084320836278618B062A60
:1052D0001AD0052A18BF10BD084208BF10BD01EA48
:1052E0000002628388432083204600F0B8FB01203F
:1052F0006070628B0821204600F0ADFB2146BDE8BE
:105300001040034800F032BB31EA0002EAD010BD81
:10531000D4010020814224BF42688A429CBF012000
:10532000704702680A60BFF35F8F50E8003F0A6869
:105330009A4204BF40E80012002AF2D100207047D0
:105340000146406842684A600B780022022B18BF71
:10535000012B03D0032B1CBF426070474368002B16
:105360001CBF9960426082607047000003480021C2
:10537000016003490988C1807047000004010020D2
:10538000D869000830B4826A374C930804BF228879
:10539000C2F38D03026B02EB830212F0040F18BFFD
:1053A000121F4FF0807C42E9021C4FF0000C42F8C3
:1053B00040CDC2F804C0C2F808C0C2F80CC0C2F8A0
:1053C00010C0C2F814C0C2F818C0C2F81CC0C2F89D
:1053D00020C0C2F824C0C2F828C0C2F82CC0C2F84D
:1053E00030C0C2F834C0D0F81CC0C2F820C0C262BD
:1053F0004163216811F0805F18BF112B2FD9103B3A
:105400004FF0FF3101EB53054FF0010C4FF0CC3161
:10541000BCEB530F1ED04FF0000C15F0010F05D060
:1054200042F8041C42F8081C4FF0010C6B100FD01E
:10543000CCF1000402EBC4045B1E44F8041C44F8E5
:10544000081C44F80C1C44F8101C0CF1020CEFD1A1
:10545000A2EBC502036B121F9A4288BF1160034979
:10546000006B016030BC7047D4690008A52E5AE279
:10547000C1898089081A7047012202700022427097
:105480008270426002814281103982818908C18123
:10549000704700002DE9F0410446406800260F46A1
:1054A00004F10C0500285DD060784FF00108012858
:1054B00045D002281CD0032818BFBDE8F08108465B
:1054C000FFF7FCFD050008BFBDE8F0812046FFF7AF
:1054D00037FF0446294600F0BBFA84F801802046D5
:1054E00000F0BDFA2146BDE8F0412E4800F03EBA7A
:1054F0002046FFF725FF0746002100F0A9FA218981
:10550000F86904EB81010861D5E85F0F401C81B2A6
:10551000C5E8501F0028F7D12089401C80B22081A7
:10552000E189884208BF268187F80180384600F06B
:1055300096FA3946BDE8F0411A4800F017BA2046FD
:10554000FFF7FEFE04463A46102100F084FA84F884
:105550000180204600F083FA2146BDE8F041114861
:1055600000F004BAA089E189884215D2208904EBB1
:1055700080000761D5E85F0F401C81B2C5E8501F6D
:105580000028F7D12089401C80B22081E18988421F
:1055900008BF2681BDE8F0810320BDE8F041FFF798
:1055A00099BB0000D401002070B504468089002515
:1055B0001646002839D0608904EB80000069086035
:1055C0006089401C80B26081E189884208BF6581A2
:1055D000606810B1607802280CD004F10C0000BFA4
:1055E000D0E85F1F491E8AB2C0E8512F0029F7D1C9
:1055F000002070BD2046FFF7A3FE0646002100F004
:1056000027FA2189F06904EB810108612089401C97
:1056100080B22081E189884208BF2581304600F0B0
:105620001EFA3046FFF708FEE2E7002E04BF012015
:1056300070BD0A48626801681AB1204600F096F908
:1056400006E0616001684D60006884600120607060
:1056500008213046FFF740FD012070BD14010020F5
:10566000002808BF7047B0F1FF3F04BF4FF6FF703E
:1056700070470B49884210D800EB4001C1EBC011C4
:105680000848006800EBC101491EB1FBF0F04FF67D
:10569000FE71814224BF80B270474FF6FE707047A2
:1056A00000093D00F06900080321017000214180DC
:1056B00041608160C16070472DE9F0410446408837
:1056C00020B1344DA1682A68914202D0FF20BDE884
:1056D000F081401E0004000C608057D12968086AE0
:1056E000A04206BFE0680862002807D0C268A24254
:1056F00002D1E268C26001E01000F7D191F82420E5
:10570000086A48B14368002B1CBF9B78934288BF4E
:105710001A46C0680028F5D18A70DFF87C8060687E
:10572000012728B32046FFF70BFE0646002100F0B4
:105730008FF9304600F093F96780A660306AE06028
:1057400034622968D8F8042088789278904228BF7B
:10575000304619D2104800F009F931460E4800F0E1
:1057600005F92868477077700020FFF765FD0DE0A8
:10577000D8F8040029688078904207D9064800F0DC
:10578000F5F8286847700020FFF756FD0020BDE8B7
:10579000F081000014010020D401002070B5194DE3
:1057A0000E4604464188286839B1A168814209D172
:1057B0006088401C6080002070BDA060016AE160CC
:1057C0000462F5E7002E04BF012070BD8A7880785E
:1057D000824203D28870A06800F0F4F8606820B1BB
:1057E0002046296800F0C2F806E028686060296851
:1057F000002048602868846009213046FFF76CFC6F
:10580000012070BD1401002070B51C480121026800
:105810005170006800F0CCF8194DA8786E78002817
:1058200018BFAC1C19D000BF05EBC6014868027850
:10583000DAB1012A1ED000F041F9E878761C8642E0
:1058400008BF0026D4E84F0F401EC1B2C4E8401F75
:105850000028F7D1A8780028E6D16E700948FFF734
:105860006FFDBDE8704000F055B9098989B2FFF7B6
:1058700027FDE2E78968FFF70DFEDEE7140100204F
:1058800050060020D40100200548017800291EBFE1
:105890000121417070474FF0805002490860704705
:1058A0000C01002004ED00E0F0B4154DAB1CEC78C9
:1058B0004FEA050CD3E84F2FA2420ED1BFF32F8F32
:1058C000EB78934281BF05EBC202C2E90101F0BC53
:1058D00070470220F0BCFFF7FDB9521CD6B2C3E8F6
:1058E000426F002AE6D100BFDCE84F2F531CA342D1
:1058F00008BF0023DEB2CCE8436F002BF4D1DFE712
:1059000050060020184AD36813B313469B8A8B4273
:105910000BD204E0D2F80CC0BCF1000F18D0D26852
:10592000B2F814C063448B42F4D3D2F80CC0C0F870
:105930000CC0D0600261D0F80CC0BCF1000F18BFE1
:10594000CCF81000591A8182908A401A90827047D0
:105950004FF0000CC0F80CC0D060C91A02619182EF
:10596000A0F814C070470000EC01002010B40278C9
:105970004FF0000C022A1ABF012A032A4FF0010C33
:105980008B78426822B194789C4228BF1046F8D2A6
:105990004A604160BCF1000F01BF0020886010BC6C
:1059A0007047002A18BF9160886010BC70470000E3
:1059B00003494A68426000228260486070470000E4
:1059C000D401002010B483681BB11A7819463AB18B
:1059D0000AE0417801290EBF1C4910BC704703E062
:1059E00089680A78002AFBD0002B08BF174A07D025
:1059F00042685A604268002A1CBF8368936007E0CF
:105A00005368834202D14368536001E01A00F7D122
:105A10000A780023022A1ABF012A032A012390F8D8
:105A200002C04A6822B19478644528BF1146F8D272
:105A300042604860002B01BF0021816010BC7047AC
:105A4000002A18BF9060816010BC7047D40100200C
:105A5000C06A01627047C06AC0E9081270470169F4
:105A6000002908BF7047C268CA60C3680022002BC3
:105A700008BF8A8207D08B8AB0F814C063448B8237
:105A8000C3681961C2600261704700008168002923
:105A900008BF094907D042684A60416800291CBF15
:105AA0008068886070474A68824202D140684860D6
:105AB00070471100F7D17047D401002010B541683C
:105AC00081B1FFF73DFC0446FFF7C9FF012060707C
:105AD00001462046FFF7BCFF2146BDE810400348C1
