:020000040800F2
:1000000000500020750300087D0300087F030008EE
:100010008103000883030008850300080000000036
:10002000000000000000000000000000AD02000819
:100030008903000800000000250300086103000890
:100040008F0300088F0300088F0300088F03000848
:100050008F0300088F0300088F0300088F03000838
:100060008F0300088F0300088F0300088F03000828
:100070008F0300088F0300088F0300088F03000818
:100080008F0300088F0300088F0300083D4100081C
:10009000494100088F030008E12D00088F03000884
:1000A0008F0300088F0300088F0300088F030008E8
:1000B0008F0300088F0300088F0300088F030008D8
:1000C0008F0300088F0300088F0300088F030008C8
:1000D0008F0300088F0300088F0300088F030008B8
:1000E0008F0300088F0300088F03000800F002F858
:1000F00000F096F80AA090E8000C82448344AAF12C
:100100000107DA4501D100F08BF8AFF2090EBAE829
:100110000F0013F0010F18BFFB1A43F0010318473B
:10012000B87C0000D87C0000103A24BF78C878C1A1
:10013000FAD8520724BF30C830C144BF04680C60ED
:10014000704700000023002400250026103A28BF35
:1001500078C1FBD8520728BF30C148BF0B60704739
:100160006E2900F04D87702900F09F82662907F004
:100170009384652907F09084672907F08D846129AD
:1001800007F08C8403681B0A28BF41F080016929AD
:1001900000F01082642900F00D82752900F00A82B7
:1001A0006F2901F03380782900F06B82E92900F093
:1001B000CD87E42900F0CA87F52900F0C787EF2929
:1001C00001F03080F82900F06A820368DB0928BF5B
:1001D00041F08001632900F04E87732900F05387B6
:1001E000E32901F07D86F32901F082860020704723
:1001F0001FB59DE8030000F060FE00F03CFE040027
:100200000020002107F0BCFB401C606000200021A2
:1002100007F0CCFBE06001F07BF900F015FE1FBD9C
:1002200004F0A8FC04F01EFD05F016FA07F008F82B
:100230000348002105F02CFB05F024FAFEE700003E
:100240003001002080F309887047EFF30980704780
:10025000684680F3098804480078C00714BF02206C
:10026000032080F314887047C47A0008DFF818C0B0
:10027000EFF305831B0618BF6047EFF31483DB071A
:1002800008BF604700DF7047995D0008DFF818C0BD
:10029000EFF305831B0618BF6047EFF31483DB07FA
:1002A00008BF604700DF7047F15F0008EFF3098087
:1002B000816911F8021CF1B990E80F10E047EFF3E3
:1002C000098C8CE80700144B93E8060091420FD08C
:1002D00039B12CE9F00FC1F82CC00CB406F092FA39
:1002E0000CBC1A60D2F82CC0BCE8F00F8CF3098863
:1002F0006FF0020E704710B5084A1268914209D893
:10030000074C54F8214090E80F10A047EFF3098CF8
:100310008CE80F0010BD000020010020C82D00084F
:10032000C82D000806F0DEF80C4B93E80600914259
:1003300010D0EFF3098C2CE9F00FC1F82CC00CB4ED
:1003400006F060FA0CBC1A60D2F82CC0BCE8F00FC2
:100350008CF309886FF0020E704700002001002026
:1003600006F046FBE0E7000005F05AFB06F040FB14
:10037000DAE700000648804706480047FEE7FEE748
:10038000FEE7FEE7FEE7FEE7FEE7FEE7FEE7FEE745
:10039000AD3E0008ED00000800487047D01700206F
:1003A00010B500F068FD001D10BD00BFD575000040
:1003B0000B3020F0070070472DE9F04117460E463C
:1003C0000446FFF7F5FFA042054633D9002F1CBFB6
:1003D00006F10C0004F002FC30467468F4B12168A8
:1003E000A94217D305F1080291423CBF6168416000
:1003F00007D3626861194A602268521B0A60416033
:100400002560002F1CBF06F10C0004F01DFC201D10
:10041000BDE8F08120466468002CE0D129463046D2
:1004200000F037FD0028D7D1002F1CBF06F10C00CB
:1004300004F00AFC0020BDE8F08110B5044600F08D
:1004400015FD01682046BDE810400122B4E770B5F3
:1004500016460D46041F002808BF70BD002E1CBFA5
:1004600005F10C0004F0BAFB2B465868002818BFB1
:10047000A04238BF0346F8D31968CA18A24218BF71
:100480005C6003D122681C461144196021680A1976
:10049000824218BF606004D142686260006808440C
:1004A0002060002E1CBF05F10C0004F0CDFB70BDD8
:1004B00010B5044600F0DAFC01682046BDE81040A3
:1004C0000122C4E71CB50C46064B7B4469460090EC
:1004D000204600F0AEFD04460020694600F0BCFD59
:1004E00020461CBD8B0B00000FB41CB5084B06AAA0
:1004F0007B4469460090059800F09BFD044600206F
:10050000694600F0A9FD20461CBC5DF814FB000004
:10051000650B000070B5044685690068C10601D509
:10052000302600E02026C00707D070BDD4E90121A5
:1005300030469047206A401C20626D1EF6D570BD83
:1005400070B5044685690078C00707D170BDD4E94D
:10055000012120209047206A401C20626D1EF6D5A4
:1005600070BD70B50C460546012A05D02878800676
:1005700000D5EA69002302E0012305E05B1C9342F9
:1005800002D2E05C0028F9D1A869E618C01AA86177
:10059000286A184428622846FFF7BCFF04E0D5E922
:1005A000012114F8010B9047B442F8D32846FFF715
:1005B000C7FF70BD2DE9F04106460024106875297B
:1005C000314616A510D000F0B0FC002802DA4042F7
:1005D00013A507E031688A0701D512A502E0490793
:1005E00004D511A5012401E000F0A8FC00210A2295
:1005F00006F1240709E0B0FBF2FCB0FBF2F302FBCA
:100600001C00303078541846491C0028F3D123468A
:100610002A463046BDE8F04100F099BC00000000D9
:100620002D0000002B00000020000000F0B40D465B
:100630000188090502D5214C7C4402E01F4C7C4412
:100640000E34002100F1240608E002F00F07120921
:10065000E75D42EA03721B097754491C52EA03071B
:10066000F3D102780023120704D5702D06D009B10A
:10067000022311342246F0BC00F069BC012310347F
:10068000F8E770B504460D462146106800F056FCA8
:10069000024629462046BDE870400023C6E7D21D29
:1006A00022F00703D3E90023C0E70368126843F090
:1006B000200303600823C3610023B7E7D37500005C
:1006C0002DE9F05F894604464FF0000ADFF874B167
:1006D000FB44C0F820A02046E1688847002874D079
:1006E000252806D0D4E901219047206A401C2062C9
:1006F000F1E700265F462046E16888472028054646
:1007000007DB312D05D2781910F8200C08B106430B
:10071000F1E7B00701D526F00406C4F81CA00027B5
:10072000C4F818A02A2D09D0284604F04FFA38B38F
:1007300004EB8708303DC8F8185019E059F8041B3D
:10074000204604EB87029161E1688847012F054646
:1007500018D1E069002820DA26F020061DE0D8F83C
:10076000180000EB800005EB40003038C8F8180096
:100770002046E1688847054604F028FA0028EED1B3
:10078000012F0AD02E2D08D12046E16888477F1C12
:100790000546022F46F02006C4DBA069002803DAD4
:1007A000404246F00106A061F00701D026F0100695
:1007B0006C2D0BD0682D09D04C2D39D06A2D35D039
:1007C000742D35D07A2D33D016E038E0E1682F460D
:1007D00020468847B842054609D16C2F26D04FF4F1
:1007E0008060E168064320468847054604E06C2F98
:1007F0001AD04FF4807006430DB3A5F141001928BB
:1008000002D8203546F400664A462946204626602E
:100810004E46FFF7A5FC80B101280BD0F61D26F04F
:10082000070000F1080956E74020E4E78020D8E7F8
:100830000020D6E706F104094DE7284652E7206A72
:10084000BDE8F09F637500000FB400B58DB010A92E
:10085000099000910B904FF0FF300A9000200C900F
:10086000064878440690064878446A4607900F99EF
:1008700009A800F0F5FC0DB05DF814FB1B0A0000A0
:10088000330A00002DE9FF5F1D464FF0FF3B914604
:100890004FF000085F46D5E90146A96901987F1C21
:1008A0008847296A824688470028F6D1BAF1FF3F77
:1008B0000CD0002E24F4C06419DD600614D5BAF102
:1008C0002B0F09D0BAF12D0F0ED103E0584604B01A
:1008D000BDE8F09F44F48064A96901987F1C8847B3
:1008E000761E8246002E02DDBAF1300F03D0B9F138
:1008F000000F26D032E0A969761E01987F1C44F4CF
:1009000000748847002E824605DDBAF1780F06D0C4
:10091000BAF1580F03D0B9F1000F10D01EE0B9F1B1
:10092000000F02D0B9F1100F18D1A969761E0198F5
:100930007F1C24F4007488478246102002E00820BF
:1009400000E00A20814609E0A96908FB0908761E33
:1009500001987F1C44F4007488478246002E05DD10
:100960004946504600F068FC0028EDDAE969019834
:100970008847A00502D46FF00100A8E7E00725D161
:10098000600613D5600502D5C8F1000000E04046BE
:1009900029680A1D2A600968220501D5087015E03A
:1009A000220701D5088011E008600FE02868011DCA
:1009B00029600068210502D580F8008006E0210743
:1009C00002D5A0F8008001E0C0F8008038467EE73C
:1009D0002DE9F04704464FF000094FF0FF37C56896
:1009E000D4E90486A80707D0204600F019FD304658
:1009F00004F03CF9002802DA3846BDE8F087280503
:100A000002D54046FFF754FD4C21204600F0B0F9D6
:100A1000206D20F0010020654846EEE72DE9F04109
:100A2000044600F14C07384604F0D8F8E068810726
:100A300012D0800601D5A66A04E0A1696068084466
:100A40002169461A204600F0EBFC0022054631469B
:100A5000204600F035FC00E00025384604F0F4F8AC
:100A60002846BDE8F0812DE9F04118B1BDE8F0411C
:100A7000FFF7D4BF0B4E0025304604F0AFF80A4C08
:100A80006F1E07E02046FFF7C9FF00B13D46206D0D
:100A900020F00104002CF5D1304604F0D5F82846AA
:100AA000DFE70000B8010020301800202DE9F047F2
:100AB00016468846814602F14C07384604F08EF807
:100AC0003046FFF785FF18F8010B61280AD072281D
:100AD00002D077283FD102E00125002405E002255D
:100AE000042402E0082448F2020518F8010B2B2820
:100AF00006D0622809D018F8010C74280AD00BE03F
:100B000045F0030544F00204EFE745F0040544F026
:100B10000104EAE744F010044846214604F0E4F8F2
:100B2000411C18D00021316171604FF40071F560F3
:100B3000F1617061200704D530460222002100F0E7
:100B4000BFFB306D40F001003065384604F07CF8A2
:100B50003046BDE8F0870026F7E72DE9F04115465D
:100B60000E460746204C204604F038F82A46314607
:100B70003846FFF79BFF0546204604F065F82846F7
:100B8000BDE8F0812DE9F0410E468046164D28461D
:100B900004F024F8154C206DC10704D0410804D09E
:100BA00020F00104F7E7224612E05420FFF745FC4D
:100BB000070017D0206D47F001010843542120653C
:100BC000384600F0D5F807F14C0004F017F83A4623
:100BD00031464046FFF76AFF0446284604F034F8E1
:100BE0002046CDE70024F8E7B801002030180020A7
:100BF00040EA0103024630B59B0710D14FF00134A3
:100C000000E008C208C91D1B9D4315EAC41FF8D0A7
:100C100013F0FF0102F8011B0DD01B0AF8E711F8D1
:100C2000013B002B02F8013B05D011F8013B002BE2
:100C300002F8013BF3D130BD10B5431C02E010F8BF
:100C4000011B71B18107FAD14FF0013202C88C1A31
:100C50008C4314EAC211F9D0C01A0A0603D0C01E90
:100C600010BDC01A10BD0A0401D0801E10BD0902BB
:100C7000FCD0401E10BD40EA010370B59B072ED189
:100C80004FF00136042A2AD308C810C99D1B9D4382
:100C9000121F15EAC61517D0D8B2E1B2401A50EAB1
:100CA000056110D198B2A1B2401A50EA05410AD1AB
:100CB00023F07F4024F07F41401A50EA052102D101
:100CC000180EA0EB146070BDA342DBD018BA21BA95
:100CD000884201D9012070BD4FF0FF3070BD0AB9C4
:100CE000002070BD10F8013B11F8014B63B1A34225
:100CF0000AD1521E08D010F8013B11F8014B1BB16C
:100D0000A34201D1521EEDD1181B70BD10B5203A7F
:100D1000C0F00B80B1E81850203AA0E81850B1E8B4
:100D20001850A0E81850BFF4F5AF5FEA027C24BF6A
:100D3000B1E81850A0E8185044BF18C918C0BDE861
:100D400010405FEA827C24BF51F8043B40F8043B2A
:100D500008BF7047D20728BF31F8023B48BF11F8DF
:100D6000012B28BF20F8023B48BF00F8012B704739
:100D70004FF0000200B5134694469646203922BF34
:100D8000A0E80C50A0E80C50B1F12001BFF4F7AF7F
:100D9000090728BFA0E80C5048BF0CC05DF804EB61
:100DA000890028BF40F8042B08BF704748BF20F8CF
:100DB000022B11F0804F18BF00F8012B7047000084
:100DC0004FF0013C50F8042B51F8043B9A4221D1DA
:100DD000A2EB0C03934313EACC1317D150F8042B66
:100DE00051F8043B9A4215D1A2EB0C03934313EA4A
:100DF000CC130BD150F8042B51F8043B9A4209D183
:100E0000A2EB0C03934313EACC13DBD04FF00000AA
:100E1000704700BFD01A01BAB1FA81F101F0180190
:100E200022FA01F0CB40C1F12001DBB2C0B2C01AFE
:100E30002CFA01F3D11A914311EAC311E6D170479C
:100E4000704770477047000070B5064C7C44064DF3
:100E50007D4403E0206820448047241DAC42F9D142
:100E600070BD0000D4700000D470000010B5FFF712
:100E700093FA083010BD10B5FFF78EFA203010BD80
:100E800010B5FFF789FA343010BD704770477047CE
:100E9000704738B504460A4600206946AFF3008023
:100EA000002808BF38BD02460099204600F016FC15
:100EB000012038BD012001F026BAF8B5AFF300805B
:100EC000054600200C46102000BF0646A819A04287
:100ED0000DD9324669460020AFF30080070008BFF5
:100EE00001F011FA0098A04218BF0546C419FFF797
:100EF000BDFF05600746F01D20F007004619284693
:100F000000F00AF8B44208BFF8BDA21B31463868A9
:100F1000BDE8F84000F0E2BB00210160C0E901102B
:100F20000C3003F06BBE1020704709684A0501D5EC
:100F300040B27047C905FCD500B2704709684A0540
:100F400001D5C0B27047C905FCD580B270472DE904
:100F5000F0470D4699469246044600F12408016880
:100F6000880604D5E06921F01001216000E001202D
:100F7000A84201DD471B00E00027A1697A1902EBB6
:100F80000900081AA0612078C00602D42046FFF7A5
:100F9000C1FA002608E0D4E901211AF806009047BA
:100FA000206A401C761C20624E45F4DB2078C00687
:100FB0000AD52046FFF7AEFA06E0D4E90121302039
:100FC0009047206A401C2062381EA7F10107F4DC1C
:100FD00007E0D4E9012118F805009047206A401C79
:100FE0002062281EA5F10105F3DC2046FFF7A8FAD0
:100FF0002078000602D50220BDE8F0870120FBE73B
:1010000011680268006A530501D508700AE0D3052B
:1010100001D5088006E0130603D5C217C1E9000216
:1010200000E008600120704701694A1C02610878ED
:10103000704700B58FB0CDE9013100210591054918
:101040007944CDE9031011466846FFF739FB0FB02C
:1010500000BD0000E5FFFFFF0A6802F8010B0A600F
:10106000704710B5436913B1AFF3008001E0FFF79B
:1010700078FA012010BD127800F124010A700022D4
:101080004A700122EDE711684FF0FF32E9E70000F6
:101090002DE9FF5F15468A460446DFF8AC80F84428
:1010A0000027D8E900103E46CDE9001010E03AF8DC
:1010B00016106A4602A801F0FAF8411C07D0217800
:1010C000890603D5E269391891420DD80744761C88
:1010D0002078800602D5E069B84205DDAE42E6DB45
:1010E0003AF816000028E2D1A069C01BA061204692
:1010F000FFF710FAD8E90010CDE90010002017E042
:101100003AF818106A4602A801F0D1F8B0F1FF3F92
:1011100081460BD000250DF1080B05E0D4E9012133
:101120001BF8050090476D1C4D45F7D308F10100F1
:10113000B0428046E4DB206A384420622046FFF754
:10114000FFF9BDE8FF9F0000A66B00002DE9F0410C
:101150008046D21D22F007020025D2E90002F529BF
:1011600015A614D0011E72F1000106DA0023D0EB9F
:10117000030063EB020211A608E0D8F800108B0709
:1011800001D50FA602E0490701D50EA6012511469B
:10119000002408F1240704E000F0BFFA30323A5589
:1011A000641C50EA0102F7D12B46324621464046E4
:1011B000BDE8F041FFF7CBBE000000002D000000AD
:1011C0002B0000002000000030B4002100F12404B6
:1011D00008E002F00705D208303542EA4372DB0826
:1011E0006554491C52EA0305F3D10468002310A298
:1011F000250708D504F020040C4304D0C46901235A
:101200000CA2641EC46130BCFFF7A1BE10B5044639
:1012100021461068FFF792FE02462046BDE81040C6
:101220000023D1E7D21D22F00701D1E90023CBE74B
:1012300000000000300000003A2800D2303820F0D2
:101240002002412A01D3A2F13700884201D34FF096
:10125000FF307047026811441378016018467047E8
:10126000D1600549794451610449794411620021F2
:101270001161114600F040BEEDFFFFFF3705000091
:10128000426842B1016811F8013B23B1521EC0E926
:101290000012184670470121C160881E70474268DD
:1012A0005AB1C368016843B983688B4205D0491EAF
:1012B000521CC0E90012002070474FF0FF30704709
:1012C0002DE9F041044616460D464769007B80072C
:1012D0002ED0384603F0F4FC50BB3EB3012E02D0B2
:1012E000022E25D104E0204600F0C0FF05441DE099
:1012F000384603F0D1FCE168002841F01001E160BC
:1013000005DA204600F058F80120BDE8F081C90355
:101310000BD56268E16A914200D81146A269114476
:101320002269891A814200DD08460544002D01DA50
:101330000220EAE7E16A6068E268814206D291032E
:10134000E06203D522F4003141F01002A6690027C3
:10135000AE4213DCE16A814201D90B4600E003464C
:1013600003EB060C2369ACEB030CAC4506DD8142B4
:1013700001D98C4600E084469C4505D1A7602760D2
:1013800042F02000A5620DE0AD1BE669AE1B814274
:10139000A66000D90846C01A281A20605819606053
:1013A00022F0200003490840E060002084F84870E3
:1013B000ABE70000BFCFD7FFC16821F4001141F0B7
:1013C0008001C16000218160016070472DE9F04714
:1013D000814614460E464FF0FF383248D5685769AB
:1013E000054209D03846A16903F098FD002811DBB9
:1013F0002C48C0430540E5602B46324649463846F6
:1014000003F0A0FDA16920F00042B21A11440028A7
:10141000A16103D02046FFF7CFFF4046BDE8F0872B
:1014200070B504460569C06A6168884200D80846FC
:10143000E16821F42011E160C90312D5A84208D067
:101440002246411B2846FFF7C1FF10B14FF0FF3085
:1014500070BD0020E562C4E90150E06820F48030EE
:10146000E060002070BD10B50446C06820F0200088
:10147000E060A16AA06988420DD02046FFF7D0FF46
:10148000E06820F4405040F01000E060A06AA061E5
:101490002069E062606044F24001E0688843E060F7
:1014A00010BD0000100002002DE9F04704461E4662
:1014B00090460D46C7684C30814603F08FFBB80755
:1014C00014D0780212D44046B8F5807F09D0B0F528
:1014D000007F06D0B8F5806F08D1012604F12405FD
:1014E00006E0701E6FF07F41884201D3012409E0BD
:1014F0002561E6616560E06820F4706040EA0800FC
:10150000E0600024484603F09FFB2046BDE8F087DA
:1015100010B565485421FFF72BFC64485421FFF7B0
:1015200027FC63485421FFF723FC62485E49624A66
:10153000624B01605D4810605D4A1A60431C0B6598
:10154000511C01650120106557484C3003F056FBD3
:1015500056484C3003F052FB55484C3003F04EFBDC
:10156000574803F04BFB58484F4A56A17844FFF7C1
:10157000F4FA20B9544878440A3800F0BDFE5448C3
:101580004A4A52A17844FFF7E8FA20B95048784413
:101590000A3800F0B1FE4F48454A4CA17844FFF7A5
:1015A000DCFA20B94B4878440A3800F0A5FE402305
:1015B0003D48DC0000212246FFF776FF20B142487B
:1015C0007844543800F098FE3848224640230021E1
:1015D000FFF76AFF20B13E487844543800F08CFE93
:1015E0003348224610230021FFF75EFF002806D073
:1015F00038487844BDE81040563800F07DBE10BD34
:101600002B482DE9F041006D2D4E20F001043046AD
:1016100003F0E4FA244D4C35284603F0DFFA224863
:10162000FFF7D6F9284603F00FFB2846AFF30080FA
:101630001E4D4C35284603F0D1FA1C48FFF7C8F977
:10164000284603F001FB2846AFF30080184D4C35C7
:10165000284603F0C3FA1648FFF7BAF9284603F004
:10166000F3FA2846AFF3008014E0206D20F0010566
:1016700004F14C00074603F0B1FA2046FFF7A8F941
:10168000384603F0E1FA3846AFF300802046FEF713
:101690000FFF2C46002CE8D1304603F0D5FA08485D
:1016A000AFF30080BDE8F0813018002084180020DE
:1016B000D8180020AC010020B0010020B4010020A7
:1016C000B80100207200000088660000770000006A
:1016D000776600006766000000F01CBE30B4044668
:1016E0008C464368002B18BF634538BF1846F8D3B3
:1016F00003681844604507D0C81C20F0070000F1BB
:10170000040CACEB0100121A2146CCF8002030BCCE
:1017100000220CF10400FEF79ABE30B5B0F10A02C7
:101720004FEA900E71F100034EEA817EB0EB0E009D
:1017300061EB91014FEA101E4EEA017E10EB0E00A4
:1017400041EB11114FEA102E4EEA016E10EB0E0024
:1017500041EB11214FEA104E4EEA014E10EB0E0004
:1017600041EB1141401841F100014FEAD00040EA3D
:1017700041704FEAD10110EB80054FEA810444EA41
:10178000907444EB01046D1944EB0404521BA34113
:101790004FF0000348BF0A3200D530BD401C41F174
:1017A000000130BD10B50446FEF7FAFD0068005D8B
:1017B00000F0010010BD70472DE9FF4F0C461E469A
:1017C0004FF0FF378BB0D2E90001DDF860800A905E
:1017D0008A46C1F30A5505B93D46002108464FF037
:1017E0000000BAF1000F00F4400005DA00EB8000C1
:1017F0004FF4400101EA50004FEA9059B9F1010F4E
:1018000000DDB9460A9850EA4A000ED044F610505E
:10181000A5F2FF3545432F14B8F1000F1ED07542D5
:10182000291E1EDDC9F100021CE0B8F1010F4FF0C6
:10183000000001D0302103E0F24305E02154401CB8
:10184000B042FBDB30460022002121540B99C1F845
:101850000880C1E900200FB0BDE8F08FBD1B6D1CF2
:10186000DEE74A4600DA694206A800F0D7FD06AB7B
:1018700093E8070003AB83E8070050460A9900F09D
:10188000E7FE8DE80700A0F500501F380090039890
:10189000002D09DD42F21F014A46084403A90390C6
:1018A000684601F046F908E0A0F500504A461F38A6
:1018B00003A90390684601F050F98DE80700000481
:1018C000000C03D04FF0FF30410800E01046B8F1A3
:1018D000000F03D00022009215461EE0751E05D4AD
:1018E000FFF71BFF303262556D1EF9D5B34601225A
:1018F000084302D000227F1C04E02078302801D168
:1019000000227F1E002A099786D01DE0112D07DADC
:10191000FFF703FF303262556D1C50EA0102F5D12A
:10192000084302D00098C8B10EE00021681E05E00F
:10193000235C625C63542254401E491C8142F7DBE5
:10194000AB46A81B401E0990002004F80B000B9822
:10195000099AC0F80880C0E9002B7CE711264FF0F7
:10196000000859E72DE9F04F88460446D21D22F0C1
:10197000070191B0D1E90001CDE90A0103F08AF82D
:1019800002460B98C00F01D02D2007E02068810788
:1019900001D52B2002E0202101EAC000032A099092
:1019A00001D0072A05DB03464146204600F0F6FC3D
:1019B0000BE12078800601D5E06900E00620B8F14F
:1019C000650F814606D0B8F1660F18D0B8F1670FE1
:1019D00070D131E00020B9F1110F009001DB11232B
:1019E00001E009F101030AAA01A90CA8FFF7E4FE2E
:1019F000DDE90C70002609F10105834647E001206E
:101A00004B4600904FF000470AAA01A90CA8FFF727
:101A1000D3FEDDE90DB00C995D46002610B909F141
:101A200001000D18B9EB050003D4C0F1FF3609F130
:101A30000105A5EB09002BE0B9F1010F01DA4FF028
:101A400001090020B9F1110F0090484601DD112372
:101A500000E003460AAA01A90CA8FFF7ADFEDDE9E4
:101A60000C704D4600268346207800070AD4AB450B
:101A700000DA5D4601A8012D04DD411911F8011CB1
:101A8000302907D04F4502DA17F1040F04DA01209C
:101A900082460FE06D1EEEE7002F02DCED1B3E4498
:101AA00003E0781CA84200DD7D1CB81B00F1010A90
:101AB0004FF000472078000703D4AA4501DB4FF020
:101AC000FF3A0021B7F1004F0DF143088DF84310A4
:101AD00024D002202B23002F01DA7F422D230A215C
:101AE000021EA0F1010000DC5FB197FBF1FC97FB47
:101AF000F1F201FB1C7C17460CF1300C08F801CD0B
:101B0000EEE7A8F1010003702188090501D5452100
:101B100000E06521A0F1010800F8011C09980FA957
:101B2000A1EB0807FF1D00B10120411901EBEA708C
:101B3000A1693844081A401EA0612078C00602D46A
:101B40002046FEF7E7FC099828B1D4E90121904727
:101B5000206A401C20622078C00622D52046FEF76D
:101B6000D9FC1EE0002E04DBB34502DD01A8805D38
:101B700000E03020D4E901219047206A401C206217
:101B8000761CAAF101005FEA000A0AD1FFF773F997
:101B9000C0680168405CD4E901219047206A401C7C
:101BA0002062281EA5F10105DCDC07E0D4E9012153
:101BB00018F8010B9047206A401C2062381EA7F1DC
:101BC0000107F3DC2046FEF7BBFC032011B043E61F
:101BD0002DE9F04F04460D46D21D22F0070089B0D2
:101BE000D0E900974846394602F054FF0246F80F04
:101BF00001D02D2307E02068810701D52B2302E0C7
:101C0000202101EAC0038DF820300BB1012000E053
:101C10000020032A824601D0072A04DB29462046F9
:101C200000F0BCFB3FE12078800601D40D2500E0E8
:101C3000E569C7F30A560D2D49DA00214FEA175B13
:101C400008464FF00000002F00F4400007DA00EBD8
:101C500080004FF4400100EBD07001EA6000811574
:101C6000012901DD4FF0FF3100224FEA850CBCF164
:101C7000180F06D31346ACF118004FF08052C24043
:101C800003E04FF4801323FA0CF30CF10C0CBCF1BD
:101C9000200F04D3ACF1200C09FA0CF001E007FA94
:101CA0000CF000294FF0004801DD18B90FE00ED10B
:101CB00040450CD319EB02095F4121B9404502D1DF
:101CC0009F4329EA0209BBEB175F00D0761C2088EE
:101CD000000502D57B48784402E07A4878441938F8
:101CE00008AA302302F80A30037C0AF10101002E11
:101CF0000AF1020A53546A4602DC4FF0300101E057
:101D00004FF031014FF001088DF8001002D0A6F21B
:101D1000FF3603E059EA470100D06B4E002D02DC8C
:101D20002178090704D54FF002082E218DF8011003
:101D3000C44600210BE0C7F303433F01C35C491CC9
:101D40006D1E02F80830052908F1010801DA002D9E
:101D5000F1DC00210CE000EB1973491C1B786D1EAF
:101D6000082902F808304FEA091908F1010801DAD8
:101D7000002DF0DC21688B0602D516E0A8F10108E1
:101D8000E04505DD02EB080313F8013C302BF5D0EC
:101D9000B8F1000F09DD02EB080313F8013C2E2B0C
:101DA00003D1090701D4A8F10108002D05DD3E216A
:101DB00002F808106D1E08F10108407C002E02F8A0
:101DC000080008F1010804DA2D20764202F8080024
:101DD00002E02B2002F808000A214FF47A708642B4
:101DE00008F101080BDB96FBF0F3303302F8083002
:101DF00096FBF0F308F1010800FB136601E0642E86
:101E00000CDB642096FBF0F3303302F8083096FBCD
:101E1000F0F308F1010800FB136601E00A2E06DB6F
:101E200096FBF1F0303002F8080008F1010896FB4B
:101E3000F1F001FB1060303002F80800A16908F1F0
:101E4000010808EB050202EB0A00081AA0612078DD
:101E5000C00602D42046FEF75DFB216A08AE01EB06
:101E60000A00206204E0D4E9012116F8010B904732
:101E7000BAF1010AF7D22078C00602D52046FEF753
:101E800049FB6E4609E016F8010B3E280FD0D4E955
:101E900001219047206A401C2062B8F10108F2D26B
:101EA0002046FEF74DFB09B00320BDE8F08F206A05
:101EB0002844206203E0D4E90121302090476D1EC0
:101EC000EBD3F8E7895F000002FCFFFF10B5436920
:101ED00013B1AFF3008001E0FFF7DAF8012010BD85
:101EE000128800F1240182840022C2840122EDE7DD
:101EF00011684FF0FF32E9E72DE9F34F4FF0000A88
:101F00000C4656468DB001200C9001F10C000B9050
:101F100062690B9801219047051E2DD0252D2CD0EC
:101F2000216A8847C0B162690B9801219047216AF4
:101F300088470028F7D16269411E0B98904700E05E
:101F4000761CA1690D988847216A88470028F7D137
:101F5000E1690D988847DBE7A1690D988847A84299
:101F6000074601D1761CD3E7E1690D9888477F1CAD
:101F700002D1BAF1000F6FD06BE162690B980027B4
:101F80003D46394690472A2804D162690B980121C1
:101F900090470125DFF8D08262690B9801219047B4
:101FA000A0F130010A290AD24745E5DC07EB870199
:101FB00000EB4107303FDFD445F01005ECE7E906C0
:101FC00001D46FF000476C280AD04C2814D0682840
:101FD00015D06A280DD074281CD07A281AD01DE09C
:101FE00062690B98012190476C2802D045F00405E6
:101FF00014E045F002050DE045F020050AE06269B5
:102000000B9801219047682802D045F0080505E0AB
:1020100045F4006562690B9801219047C4E90157B6
:1020200065283DD019DC58287AD00CDC452837D0FB
:1020300004DC252826D041289ED131E046282FD027
:10204000472899D12CE05B2877D0612828D06328D5
:102050007CD0642823D15AE0F6E06F2848D008DC11
:1020600066281DD067281BD0692821D06E2816D17C
:1020700027E0702845D0732868D0752847D0782885
:102080000DD14DE0A1690D988847252805463FF4FC
:1020900069AFE1690D9888476D1C3FF46AAFD8E0DD
:1020A0000D9923466A466FF00100AFF30080C5E04A
:1020B00045F0400023464FF000026060A80736D488
:1020C0003EE0E8077FF447AF2068011D216000680B
:1020D000290501D506701BE7290701D5068017E7FA
:1020E000A90703D5F117C0E9006111E706600FE702
:1020F00045F0400023464FF008026060A80716D460
:102100001EE040F60E0125EA0100606016E045F091
:10211000400023464FF00A026060A80707D40FE092
:1021200045F040006060A80708D5234610220D99AD
:102130006FF00100AFF3008080E007E0102223463B
:102140000D996FF00100FEF79DFB77E04FF000095D
:1021500063284F46C8464B46CB4602D05B2806D084
:1021600038E0E80601D40120A060012732E062696E
:10217000D4F80CB00B98012190475E2807D14FF09E
:10218000010949466269D4F80CB00B98904721695F
:1021900039B900210A4603AB43F82120491C08291C
:1021A000FADBD8B3216949B308F1010862690B98D9
:1021B000012190475D28F4D1B9F1000F09D000202A
:1021C00003A951F82020D24341F82020401C0828C0
:1021D000F7DB03AB2069002820794FEA40701ED05E
:1021E0005B462246CDF80080CDE901970D99002885
:1021F0006FF0010020DAAFF300801FE0C11703AADF
:1022000000EBD1614B1121F01F0102EB8302411A57
:1022100013680120884003431360C7E719E00D9954
:10222000224600286FF00100009702DAAFF3008029
:1022300004E0AFF3008001E0AFF3008000280ADA89
:10224000401C06D10C9820B14FF0FF300FB0BDE814
:10225000F08F5046FAE7E90701D10AF1010A064476
:1022600000200C9054E60000CCCCCC0C10B50146FC
:10227000C268900703D0900607D5886A0AE000F08C
:102280008AF801210160881E10BD8B6948681844D6
:102290000B69C01A91F848301BB191F84910401AE7
:1022A00010BD1103FCD50028FADD401E10BD70B52D
:1022B00016460C460546FEF773F8036893F80101CD
:1022C000012806D0FF2C0FD8185D68B101202C70B2
:1022D00070BDD3F807013246214603F207130344C9
:1022E0002846BDE8704018474FF0FF3070BD002809
:1022F00001D000F045B8704710B500F021F9BDE8F5
:102300001040FFF7F4BF10B500F034F9BDE81040FD
:10231000FFF7EDBF10B500F00EF8016919B100220A
:102320000261884701E08068804700F0E5F800001E
:1023300010B500F0E1F870B500F028F80468054623
:10234000A4B92020FEF779F8040011D00949002033
:102350002C60C4E900010849A1602073206160611C
:102360000649A06109B100F02DF9E061204670BD79
:1023700000F0C2F800000000312300080000000057
:1023800001491820ABBEFEE72600020010B5FEF79B
:1023900003F83C3010BD02F0D7BB00002DE9F0413E
:1023A0001F46044603260168072A01F4006004DB87
:1023B00008B116A505E016A503E008B115A500E0D3
:1023C00015A521F010002060A069C01EA0610FB10A
:1023D000401EA0612046FEF79DF84FB1D4E90121CF
:1023E00038469047206A401C2062C01C206206E0EC
:1023F000206AFAE7D4E9012115F8010B9047761E0F
:10240000F8D22046FEF79CF8BDE8F0814E414E0020
:102410006E616E00494E4600696E66002DE9F04718
:10242000814616468AB0334878440DC88DE80D00C1
:1024300030487844801C03AC0DC884E80D0041F698
:102440009B300844372190FBF1F290FBF1F5A5F1A8
:10245000800501FB12041B3C02D56442012000E010
:102460000020DFF890A080460027FA44AAF1BE0AB7
:102470000DE0E00709D03246684607EB47010AEB5A
:10248000810100F06AFB8DE8070064107F1C002CBE
:10249000EFD1184F7F44AC3F18E0E80714D007EBAA
:1024A00004100DF1180A90E80E008AE80E00C068CA
:1024B000F04201D198190890324606A903A800F00D
:1024C0004CFB03AB83E807006D10641C002DE4D1C6
:1024D00032466946B8F1000F03A802D000F029FB8C
:1024E00001E000F03AFBC9E90001C9F808200AB090
:1024F000BDE8F087C858000010B5002000F088F84B
:10250000AFF30080BDE810400120FFF739BF70B580
:1025100005460C460A2000E06D1C00F071F835B14C
:1025200028780028F8D102E0641C00F069F814B1A2
:1025300020780028F8D1BDE870400A2000F060B88B
:1025400010B5014602A0FFF7E2FF012010BD000018
:1025500053494752545245443A2052656469726562
:1025600063743A2063616E2774206F70656E3A2041
:102570000000000010B5012805D0002103A0FFF7DE
:10258000C6FF012010BD09A1F8E7000053494752DA
:10259000544D454D3A204F7574206F662068656133
:1025A00070206D656D6F7279000000003A204865FB
:1025B0006170206D656D6F727920636F72727570D6
:1025C0007465640010B58820FDF737FF002801D03E
:1025D0000021017010BD802902D808B1017809B12D
:1025E00000207047012100F8081B704718B100F166
:1025F0000802914201D0002070470021017070470D
:1026000008B569468DF800000320ABBE08BD7047D1
:1026100010B500F005F8BDE81040FFF768BE0000F7
:1026200010B5002102A0FFF772FF012010BD0000CD
:10263000534947414252543A2041626E6F726D6174
:102640006C207465726D696E6174696F6E00000054
:102650005FEA400C08BF91F0000F4FEA8C234FEA6D
:10266000C12243EA51514FEA1C5018BF00F5F04017
:102670004FEA300018BF41F000415FEA6C5C00F0A7
:102680002980BCF1FF3F08BF40F080407047130C29
:1026900006BF12044FF0100C4FF0000C130E04BFD5
:1026A00012020CF1080C130F04BF12010CF1040C00
:1026B000930F04BF92000CF1020CD30F04BF520021
:1026C0000CF1010C11464FF00002A0F11F00A0EB2D
:1026D0000C00704711F0004F08BF704731F0004107
:1026E0003FF4D5AF0B0C06BF09044FF0100C4FF0B0
:1026F000000C0B0E04BF09020CF1080C0B0F04BFF9
:1027000009010CF1040C8B0F04BF89000CF1020CC1
:10271000CB0F04BF49000CF1010CCCF12003A0EB5E
:102720000C0022FA03F302FA0CF241EA030100F171
:102730000100704720F07F4C80EA030023F07F47C0
:10274000ACEB070303F57C5300F0004003F1FF03FB
:102750002DE980494FEA154B09B44FEA144325EAA5
:102760000B4E24EA03480FF2042606EB1327490810
:102770003E785FEA320203FB0667C7F5000707FBF6
:1027800006F64FEA54374FEAD64606F1020607FB33
:10279000066CCCF1005C4FEA1C472CEA074C07FBA7
:1027A00006F40CFB06F504EB15464FEA961634BF0B
:1027B00000204FF000404FEAD13706FB07FC4FEAFC
:1027C0001C4C0CFB0BF7D21B03FB0CF761EB070156
:1027D0000CFB0EF7B0EB074072EB17420CFB08F74F
:1027E00034BFA2EB0742B2EB074261EB17414FEA5D
:1027F0000C444FEA910706FB07FC4FEA1C4C0CFB0C
:102800000BF7B0EBC74072EB573203FB0CF734BF4A
:10281000A2EBC742B2EBC74261EB57310CFB0EF79C
:10282000B0EBC70072EB57720CFB08F734BFA2EB9A
:10283000C702B2EBC70261EB5771039F4FEA816198
:1028400041EA921104EBCC044FEAD1374FEA82629D
:1028500006FB07FC42EA90124FEA80604FEA1C4CEC
:102860000CFB0BF7D21B03FB0CF761EB07010CFB16
:102870000EF7B0EB074072EB17420CFB08F734BFC2
:10288000A2EB0742B2EB074261EB17414FEA8C55CE
:102890004FEA910704EB9C2406FB07FC4FEA1C4C13
:1028A0000CFB0BF7B0EBC74072EB573203FB0CF796
:1028B00034BFA2EBC742B2EBC74261EB57310CFB0E
:1028C0000EF7B0EBC70072EB57720CFB08F734BF82
:1028D000A2EBC702B2EBC70261EB577115EB4C25B7
:1028E0004FEA816141EA92114FEA82624FEAD137A1
:1028F00042EA901206FB07FC44F100044FEA8060B4
:102900004FEA1C4C0CFB0BF7D21B03FB0CF761EBE3
:1029100007010CFB0EF7B0EB074072EB17420CFB04
:1029200008F734BFA2EB0742B2EB074261EB174155
:1029300015EB1C154FEA813141EA92414FEA823290
:1029400042EA90424FEA80304FEA0C7644F10004AC
:1029500048EA03434EEA0B484FF0000EB2EB080C76
:1029600071EB030724BF624639464EEB0E0E4FF063
:10297000000B0018524149414BEB0B0BB2EB080C1A
:1029800071EB03077BF1000B24BF624639464EEB27
:102990000E0E4FF0000B0018524149414BEB0B0B50
:1029A000B2EB080C71EB03077BF1000B24BF62460E
:1029B00039464EEB0E0E51EA020718BF46F00106EB
:1029C00016EB0E7655F1000254F1000103D5BDE877
:1029D0008901BDE80088BDE88901BDE80048B61955
:1029E000524141EB0101A3F10103704780807F7EDA
:1029F0007D7C7B7A79787776767574737271717075
:102A00006F6E6E6D6C6C6B6A6A6968686766666526
:102A10006464636362616160605F5F5E5E5D5D5CB4
:102A20005C5B5B5A5A595958585757565655555525
:102A30005454535352525251515050504F4F4F4E85
:102A40004E4D4D4D4C4C4C4B4B4B4A4A4A494949D3
:102A50004848484747474746464645454544444415
:102A6000444343434342424242414141002B26D426
:102A7000770021D01CB54FEA370703B44FF01000A0
:102A80004FF010014FF000000FBCBDE810400BF1FB
:102A9000010BBBF1010F08BF5FEA170722BF12F15C
:102AA000010211F101014FF0004143F1000300F078
:102AB000004043EA00007047F9D35708DAE746EAD6
:102AC000064613F1400F4FEA16461FDD13F1200FA3
:102AD000DFBF16430A46002120335B42C8D0C3F152
:102AE000200746EA064602FA07F74FEA164646EA84
:102AF0000706C3F1200722FA03F201FA07F721FAC9
:102B000003F14FF0000342EA0702B1E746EA02068A
:102B100046EA06464FEA164646EA0106BCBF46EAC2
:102B20000646360C4FF000034FF000024FF0000154
:102B30009EE72DE9C048934630B491E8380007C8B5
:102B400031EA400C48BF34EA430C03D5FFF7F2FDED
:102B5000FFF78CFFF0BCBDE800882DE9C048934624
:102B600030B491E8380007C810F0804F08BF13F068
:102B7000804F03D100F005F8FFF778FFF0BCBDE807
:102B8000008820F07F4780EA030023F07F4C07EBAA
:102B90000C03A3F57C5300F00040A3F1FE0392F078
:102BA000000F00F0B38095F0000F00F077802DE962
:102BB00001494FEA11404FEA144621EA004800FB60
:102BC00006FC24EA064708FB06F607FB08F800FBAC
:102BD00007F718EB06484CEB164C4FEA124B18EB74
:102BE00007484FEA15464CEB174022EA0B4E0BFB09
:102BF00006FC25EA06470EFB06F607FB0EFE0BFB5E
:102C000007F71EEB064E4CEB164C4FF000061EEB82
:102C1000074E4CEB174B18EB0B0840F1000018EB7C
:102C20000E0B58EB000840F100008F1A4FF0000126
:102C30003CBFC943661B14BFB5EB040C00213CBF6D
:102C4000C943F61B4FEA17444EEA8E0E27EA0445A5
:102C50004FEA1C4704FB07622CEA074C05FB07F709
:102C60000CFB05F604FB0CFC16EB074642EB174287
:102C700016EB0C4642EB1C421BEB060658EB02021D
:102C8000414146EA9E0601D5BDE80189B619524187
:102C900041EB0101A3F10103BDE801894FEA1445AD
:102CA0004FEA114724EA054621EA074C05FB07F4E1
:102CB00006FB07F70CFB06F105FB0CFC11EB0741CB
:102CC00044EB17444FEA124711EB0C4144EB1C4410
:102CD00022EA074C05FB07F206FB07F70CFB06F69A
:102CE00005FB0CFC16EB074642EB174216EB0C46B5
:102CF00042EB1C456A1854F1000148BF7047B619F1
:102D0000524141EB0101A3F10103704795F0000F1F
:102D100037D04FEA11424FEA144721EA024624EA2B
:102D2000074C02FB07F106FB07F70CFB06F402FB5E
:102D30000CFC14EB074441EB17414FEA154714EB29
:102D40000C4441EB1C4125EA074C02FB07F506FB4E
:102D500007F70CFB06F602FB0CFC16EB074645EBEF
:102D6000174516EB0C4645EB1C42121951F10001B8
:102D700048BF7047B619524141EB0101A3F101036D
:102D800070474FEA14454FEA114724EA054621EA05
:102D9000074C05FB07F106FB07F70CFB06F24FF0AB
:102DA000000605FB0CFC12EB074241EB174112EB4E
:102DB0000C4251EB1C4148BF7047921841EB010196
:102DC000A3F10103704700000000000010B502F0FD
:102DD0002BFCBDE8104002F005BB0021C16070472C
:102DE0000021014802F0E2B80064004031B500F073
:102DF000F7F8044600F0F4F80099001B8842F9D374
:102E000038BD00002DE9F84F714E4FF0000CDFF88F
:102E1000BC9163464FF001080F2706F1040E00BF76
:102E20000A6808FA03F42240A2427DD14D68A5F158
:102E3000805AAAF5881A4D4577D077DC032D08BF54
:102E40004FF0000C1BD00DDC002D6ED0012D08BF03
:102E5000D1F80CC013D0022D04BFD1F80CC00CF176
:102E6000080C0CE0112D04BFD1F80CC00CF1040CBF
:102E700005D0122D04BFD1F80CC00CF10C0CB2F52A
:102E8000807F34BF0546051D4FEA830428BF203CE0
:102E9000D5F800A007FA04FB2AEA0B0A0CFA04F49E
:102EA0004AEA04042C604C6814F0805F64D0494CFA
:102EB000A56945F00105A561A46904F00104009429
:102EC00023F0030404F1804505F58035D5F808A00A
:102ED0004FEA83744FEA147407FA04FB2AEA0B0AD8
:102EE000A0F1804BBBF5843B18D0A0F1804BBBF523
:102EF000863B08BF4FF0010B10D0A0F1804BBBF513
:102F0000883B08BF4FF0020B08D0A0F1804BBBF507
:102F10008A3B0CBF4FF0030B4FF0040B0BFA04F489
:102F200044EA0A04AC6002E026E03EE02AE04C6895
:102F300014F4803F346814BF1443944334604C68E5
:102F400014F4003FDEF8004014BF14439443CEF85D
:102F500000404C6814F4801F1F4C256814BF1543B3
:102F6000954325604C6814F4001F1C4C256814BF61
:102F70002A4325EA020222605B1C102BFFF450AFAB
:102F8000BDE8F88FBAF5881F0FD007DCBAF5803F8F
:102F900018BFBAF5801F7FF472AF06E0BAF5001FC4
:102FA00018BFBAF5041F7FF46AAFD1F808C0BCF1AE
:102FB000000F08BF4FF0040C3FF461AFBCF1010FEC
:102FC0004FF0080C0CBF0461446158E70000111079
:102FD0000004014000100240080401400C040140BC
:102FE0000148006870470000800100200248016825
:102FF000491C01607047000080010020074810B59F
:10300000016841F010010160032000F069F80F2011
:1030100000F006F800F062F8002010BD0020024029
:1030200038B52748C16941F00401C161C16901F0A7
:1030300004010091016941F004010161016921F07D
:103040000401016100F0FAFE1F4C1E482049206077
:103050004FF0FF30E0601D480068B0FBF1F0401E0B
:10306000606000202061A060204600F0B2FC0021DA
:10307000204600F0D7FC0421204600F0D3FC206855
:10308000416A144A116001F57A71816312491E2068
:1030900001F014FD4FF0E0214FF08040C1F8000135
:1030A0002068C16841F00101C1602068C16841F039
:1030B0000401C160204600F0A8FC002038BD0000DB
:1030C00000100240000800401C170020840100206E
:1030D00040420F007C010020B176000870470000DC
:1030E000074900F007000A684FF6FF031A4042EA5A
:1030F000002040F0FD7040F08060086070470000E4
:103100000CED00E02DE9F0478A4F044686B03868A0
:10311000884600F0070040450AD2386820F00700D2
:1031200040EA08003860386800F00700404573D175
:103130002078814E10F0020F05D07068A16820F051
:10314000F0000843706020784FF4003A10F0010F4F
:1031500072D061680122012933D0022945D00220B2
:1031600090FAA0F3B3FA83F343F020035B090CBF9A
:10317000736A336890FAA0F0B0FA80F000F01F0094
:1031800002FA00F003427AD0706820F0030008438E
:103190007060FFF725FF0546606841F28839012815
:1031A0003BD00228706800F00C0046D0002856D0B2
:1031B000FFF716FF401B48454DD906B00320BDE878
:1031C000F0879AFAAAF0B0FA80F040F020004009A7
:1031D00014BF3068706A9AFAAAF3B3FA83F303F063
:1031E0001F039A4010424AD0CEE74FF0007090FA89
:1031F000A0F3B3FA83F343F020035B0914BF3368F1
:10320000736A90FAA0F0B0FA80F000F01F0002FAA2
:1032100000F0034233D0B7E731E0706800F00C00F3
:1032200004281CD0FFF7DCFE401B4845C5D8706859
:1032300000F00C000428F5D111E008280FD000BFE1
:10324000FFF7CEFE401B4845B7D8706800F00C0071
:103250000828F5D103E0706810F00C0FA8D1386889
:1032600000F0070040450ED9386820F0070040EA1A
:1032700008003860386800F00700404503D006B009
:103280000120BDE8F087207810F0040F05D07068A9
:10329000E16820F4E06008437060207810F0080FC7
:1032A00006D07068216920F4605040EAC100706067
:1032B000224B0FCB8DE80F00214800680490716805
:1032C000204801F00C02042A1FD0082A1DD14FF417
:1032D000701393FAA3F301F47012B3FA83F3DA4094
:1032E00011F4803F1DF8022004BF174850430CD052
:1032F00071689AFAAAF301F40031B3FA83F3D94062
:1033000004AB595CB0FBF1F050437168F02292FAC3
:10331000A2F201F0F001B2FA82F2D1400B4A515C04
:10332000C8400B4908600F20FFF77AFE06B0002066
:10333000BDE8F08700200240001002402834000859
:103340003834000800127A0000093D00B47B000800
:103350008401002008480949006849684FF4E06288
:1033600092FAA2F201F4E061B2FA82F2D140044A88
:10337000515CC840704700008401002000100240EA
:10338000C47B000808480949006849684FF4605246
:1033900092FAA2F201F46051B2FA82F2D140044AE8
:1033A000515CC840704700008401002000100240BA
:1033B000C47B00081CA386B00FCB8DE80F001EA0B5
:1033C0001E4B0068049059681D4801F00C02042A45
:1033D00004BF06B07047082A1CBF06B0704701F44E
:1033E00070124FF4701C9CFAACFCBCFA8CFC22FAF4
:1033F0000CF211F4803F1DF8022001BF1148504328
:1034000006B0704759684FF4003393FAA3F301F400
:103410000031B3FA83F3D94004AB595C06B0B0FB7A
:10342000F1F0504370470000020304050607080945
:103430000A0B0C0D0E0F10100102000000100240CC
:1034400000127A0000093D002DE9F84F044600788B
:10345000FB4D10F0010F4FF0010626D0686877048D
:1034600000F00C00042808D0686800F00C00082860
:1034700060D1686810F4803F5CD097FAA7F0B0FA8A
:1034800080F040F02000400914BF2868686A97FA6D
:10349000A7F1B1FA81F101F01F0106FA01F108422A
:1034A00003D06068002800F08E8220784FF000087A
:1034B00010F0020F4FF0020772D068684FF0F80A60
:1034C00010F00C0F6DD0686800F00C00082804BFE5
:1034D000686810F4803F64D02069002896FAA6F04E
:1034E000B0FA80F04FEA800000F1844000F58400DB
:1034F00000F0E4800660FFF773FD814697FAA7F0BD
:10350000B0FA80F040F02000400914BF2868686AD3
:1035100097FAA7F1B1FA81F101F01F0106FA01F162
:1035200008427CD1FFF75CFDA0EB09000228E5D939
:1035300000F0EBB96068B0F5803F04BF286840F444
:1035400080300AD010B1B0F5A02F2BD0286820F41D
:1035500080302860286820F480202860606848B3A4
:10356000FFF73EFD4FEA000897FAA7F0B0FA80F0A7
:1035700040F02000400914BF2868686A97FAA7F154
:10358000B1FA81F101F01F0106FA01F108428CD174
:10359000FFF726FDA0EB08006428E5D900F0B5B9D7
:1035A0004EE028E0286840F480202860286840F435
:1035B0008030D2E7FFF714FD4FEA000897FAA7F032
:1035C000B0FA80F040F02000400914BF2868686A13
:1035D00097FAA7F1B1FA81F101F01F0106FA01F1A2
:1035E00008423FF462AFFFF7FBFCA0EB0800642841
:1035F000E4D900F08AB997FAA7F0B0FA80F040F069
:103600002000400914BF2868686A97FAA7F1B1FA48
:1036100081F101F01F0106FA01F1084200E004E027
:103620001CBF2069012840F0CE8128689AFAAAF2CE
:103630006169B2FA82F220F0F800914008432860F4
:10364000207810F0080F5DD0A069002896FAA6F047
:10365000B0FA80F04FEA800000F1844000F5840069
:1036600051D0C0F88064FFF7BBFC814697FAA7F001
:10367000B0FA80F040F06000B6EB501F08BF286839
:103680000AD097FAA7F0B0FA80F040F06000B7EBEC
:10369000501F0CBF286A686A97FAA7F1B1FA81F146
:1036A00001F01F0106FA01F1084228D1FFF798FC4A
:1036B000A0EB09000228D9D900F027B9C0F8008092
:1036C000FFF78EFC4FEA000997FAA7F0B0FA80F0F6
:1036D00040F02000400914BF2868686A97FAA7F1F3
:1036E000B1FA81F101F01F0106FA01F10842A7D0F9
:1036F000FFF776FCA0EB09000228E5D905E10120DF
:10370000FFF774FB2BE0C0F88084FFF769FC81466B
:1037100097FAA7F0B0FA80F040F06000B6EB501FC7
:1037200008BF28680AD097FAA7F0B0FA80F040F0F6
:103730006000B7EB501F0CBF286A686A97FAA7F1C0
:10374000B1FA81F101F01F0106FA01F1084206D039
:10375000FFF746FCA0EB09000228D9D9D5E0207874
:1037600010F0040F70D0E86940F08050E861E8691B
:10377000DFF8D0A000F080500090DAF8000040F4AC
:103780008070CAF80000FFF72BFC8146DAF80000D1
:1037900010F4807F0BD100BFFFF722FCA0EB0900E3
:1037A000642843D8DAF8000010F4807FF4D0E06891
:1037B000012804BF286A40F0010009D008B105289B
:1037C00035D0286A20F001002862286A20F0040021
:1037D0002862E06841F2883988B3FFF701FC82462D
:1037E00097FAA7F0B0FA80F040F04000B6EB501F17
:1037F00008BF28680AD097FAA7F0B0FA80F040F026
:103800004000B7EB501F0CBF286A686A97FAA7F10F
:10381000B1FA81F101F01F0106FA01F108423ED12F
:10382000FFF7DEFBA0EB0A004845D9D96DE0286A16
:1038300040F004002862286A40F00100C8E704E074
:10384000001002400070004029E0FFF7C9FB8246EB
:1038500097FAA7F0B0FA80F040F04000B6EB501FA6
:1038600008BF28680AD097FAA7F0B0FA80F040F0B5
:103870004000B7EB501F0CBF286A686A97FAA7F19F
:10388000B1FA81F101F01F0106FA01F1084206D0F8
:10389000FFF7A6FBA0EB0A004845D9D935E0E0695F
:1038A00000287BD0696801F00C01082977D04FF01F
:1038B0008079022899FAA9F0B0FA80F04FEA8000E6
:1038C00000F1844000F584004FF00077C0F80080DC
:1038D0001ED0FFF785FB044697FAA7F0B0FA80F0F8
:1038E00040F02000400914BF2868686A97FAA7F1E1
:1038F000B1FA81F101F01F0106FA01F1084265D029
:10390000FFF76EFB001B0228E6D90320BDE8F88F05
:10391000FFF766FB4FEA000897FAA7F0B0FA80F0CD
:1039200040F02000400914BF2968696A97FAA7F09F
:10393000B0FA80F000F01F0006FA00F0014206D055
:10394000FFF74EFBA0EB08000228E5D9DDE7206A6F
:10395000B0F5803F05D16868A16820F400300843C5
:103960006860D4E908010843696821F474110843C8
:10397000686099FAA9F0B0FA80F0800000F1844004
:1039800000F584000660FFF72BFB044697FAA7F0CA
:10399000B0FA80F040F02000400901E016E012E0AB
:1039A00014BF2868686A97FAA7F1B1FA81F101F0AB
:1039B0001F0106FA01F1084208D1FFF711FB001BB5
:1039C0000228E3D9A1E70120BDE8F88F0020BDE877
:1039D000F88F002804BF0120704710B5044690F806
:1039E000390028B9002084F83800204600F00CF88F
:1039F000022084F83900211D206800F08FFA012090
:103A000084F83900002010BD7047022180F8391079
:103A100001680A6842F001020A60012180F8391049
:103A2000002070470268012303FA01F1136A8B43F7
:103A30001362136A194311620168A1F18042B2F561
:103A4000963203D14A6C42F400424A64006801682D
:103A500041F00101016000207047006881B00168F9
:103A600011F0010F04BF016811F0020F03D040688C
:103A7000009001B07047016811F0040F04BF0168A5
:103A800011F0080FF3D101B0704738B50168044652
:103A9000086810F0010FC86800F4807018BF002893
:103AA00003D0E06B40F00100E0630868C0F340021F
:103AB0004869002A00F0010018BF002803D0E26B1B
:103AC00042F00402E2630A68C2F38002002A18BFCF
:103AD000002803D0E26B42F00202E2630A68C2F3FC
:103AE000C002002A18BF002803D0E06B40F0080095
:103AF000E0630868C0F34012C868012500F02000A8
:103B0000002A18BF00284AD094F839202046222ADB
:103B100018BF322A43D18268B2F5805F0FD00269A4
:103B2000E2B1496801F07F02816A4B1C83620A702E
:103B3000C18D491E0904090CC18515D02FE0036908
:103B4000826A4968002B14BFC9B2C1F30801118011
:103B5000816A14BF491C891C8162E9E74A68816A4D
:103B60004B1C83620A70E3E70168CA6822F02002F6
:103B7000CA6090F83910322904BF122180F8391038
:103B80000BD00168CA6822F48072CA6001684A6971
:103B900022F001024A6180F8395000F092F8206862
:103BA0000168C268C1F3C01102F08002002918BF89
:103BB000002A2DD094F83910122918BF322927D1A4
:103BC000A168B1F5805F0CD0206A421C22620178A6
:103BD00020684160E08C401E0104090CE18417D18B
:103BE0000CE0216A0988C1F30801416020690028BE
:103BF000206A14BF411C811C2162EBE72068C16868
:103C000021F08001C1602068C16841F04001C160BD
:103C100021680868CA68C0F3801002F040020028DA
:103C200018BF002A0FD0CA68204622F04002CA609E
:103C300094F83910322906BF222180F8391080F813
:103C4000395000F03FF8E06B002808BF38BD20680D
:103C500001684068009084F839502046FFF7FDFE67
:103C600038BD002804BF0120704770B5044690F8A5
:103C70003900002520B984F83850204600F020F89B
:103C8000022084F839002068C16821F40051C16025
:103C9000204600F079F92068016921F49041016122
:103CA0002068416921F02A0141612068C16841F41E
:103CB0000051C160E563012084F83900002070BD27
:103CC000704770470068016811F0400F1CBF6FF02B
:103CD0004001016070472DE9F04790B001264FF494
:103CE000E01A4FF4A0200024CDF824A00096CDE9DE
:103CF00001040225EF03CDE907576846FFF7A4FB4F
:103D00004FF00F084FF4806970B9CDF82880CDE9E5
:103D10000B54CDE90D9402210AA8FFF7F3F900280E
:103D200004BF10B0BDE8F0870096CDE90174CDF86E
:103D300024A0CDE907576846FFF786FB70B9CDF898
:103D40002880CDE90B54CDE90D9402210AA8FFF794
:103D5000D9F9002804BF10B0BDE8F0870320CDE9F1
:103D600000041020CDE904604FF46010CDE9084054
:103D700007956846FFF768FB70B9CDF82880CDE954
:103D80000B54CDE90D9402210AA8FFF7BBF90028D6
:103D900004BF10B0BDE8F087FEE7000038B5194950
:103DA000002450B1012811D0022818D003281FD0B8
:103DB00015A001F012FA204638BD1C4C886940F06D
:103DC00004008861886900F0040019E0184C8869D3
:103DD00040F008008861886900F0080010E0154C88
:103DE000886940F010008861886900F0100007E0E1
:103DF000114C886940F020008861886900F020003B
:103E00000090D8E70010024050696E6D6170206527
:103E100072726F723A2077726F6E6720706F727471
:103E2000206E756D6265722E000000000008014072
:103E3000000C014000100140001401401649486880
:103E4000164A10F00C03164818BF042B01D0082B9B
:103E500001D0026015E04A684B6802F470124FF01E
:103E6000020C13F4803F0CEB924203D04B6813F426
:103E7000003F03D00B4B5A43026002E0074B5A430A
:103E800002604968084AC1F30311515C026822FAD2
:103E900001F10160704700000010024000127A003A
:103EA0008401002000093D00B47B000810B5164CC9
:103EB000206840F00100206060681449084060609C
:103EC000206820F4102020F080702060206820F40A
:103ED00080202060606820F4FE0060604FF41F00C6
:103EE000A0600B49E00308600B490A480860FFF72F
:103EF00085F8FFF7F0FE206940F00400206120699A
:103F000020F00400206110BD001002400000FFF806
:103F100008ED00E000127A008401002030B402684D
:103F2000164BDFF85CC0174C984218BFB0F1804FB9
:103F300003D0604518BFA04203D14D6822F0700243
:103F40002A43984218BFB0F1804F03D0604518BF94
:103F5000A04205D1D1F80CC022F440724CEA020212
:103F600002608A68C2620A688262984204BF096974
:103F700001630121416130BC70470000002C014009
:103F800000040040000800402DE9F04104460068AC
:103F90000169E26821F44051114301612169A0687F
:103FA0000843616908432168CA6822F4037222F455
:103FB000A0521043C86020684169A26921F4407191
:103FC0001143416120685C4D3226A0F18041B1F57A
:103FD0009C3158D0FFF7BEF900EBC00101EB001097
:103FE00061688900B0FBF1F7FFF7B4F900EBC0019D
:103FF00001EB001061688900B0FBF1F0A5FB001037
:1040000040096FF01801484307EB800006EB0010F1
:10401000A5FB0010400900F0F007FFF79BF900EB4B
:10402000C00101EB001061688900B0FBF1F0A5FB55
:104030000010400907EB0017FFF78CF900EBC001F7
:1040400001EB001061688900B0FBF1F8FFF782F91D
:1040500000EBC00101EB001061688900B0FBF1F0DA
:10406000A5FB001040096FF01801484308EB8000E1
:1040700006EB0010A5FB00102168C0F34310384484
:104080008860BDE8F081FFF77DF900EBC00101EB2E
:10409000001061688900B0FBF1F7FFF773F900EBDE
:1040A000C00101EB001061688900B0FBF1F0A5FBD5
:1040B000001040096FF01801484307EB800006EB41
:1040C0000010A5FB0010400900F0F007FFF75AF9B7
:1040D00000EBC00101EB001061688900B0FBF1F05A
:1040E000A5FB0010400907EB0017FFF74BF900EBA9
:1040F000C00101EB001061688900B0FBF1F8FFF727
:1041000041F900EBC00101EB001061688900B0FBD0
:10411000F1F0A5FB001040096FF01801484308EBCF
:10412000800006EB0010A5FB00102168C0F34310CF
:1041300038448860BDE8F0811F85EB5100210148BB
:1041400000F034BF006400400021014800F02EBFA1
:10415000006400400FF26C081E4F1F4E1D4C97F973
:104160000000B0F1FF3F04D13F221CA129A001F0C3
:10417000D7F9B86800687968084214BF002501259E
:1041800094F90000B0F1FF3F04D1352213A121A022
:1041900001F0C6F96068002D14BFE168216908606C
:1041A0003068401C3060726820A14046FCF79CF9E2
:1041B0004146B06800F062FB4FF47A7000F040FABC
:1041C000CCE700005461736B32203D20303030303A
:1041D0000D0A0000D0010020EC0000206D62656433
:1041E0002D6F732F746172676574732F544152473A
:1041F00045545F53544D2F5441524745545F5354D7
:104200004D333246312F6770696F5F6F626A656345
:10421000742E68006F626A2D3E70696E20213D2009
:104220002850696E4E616D65294E43005461736B71
:1042300032203D2025640D0A000000004C3002F0C1
:104240009FBD10B50C464C3002F0D2FF204610BD89
:1042500010B500EB011000F19004D0F89C0028B9D3
:1042600040F28F220449054801F05AF9E0680168DC
:104270002046BDE810400847B97D0008B47D00081D
:1042800070B504464C3002F09FFE054600F47C51A8
:10429000606C002818BF002904D004F138020368BC
:1042A00010469847626B05F0FC01002A14BF0029F4
:1042B00070BD04F128001268BDE8704010477047D7
:1042C0002DE9F041054600680F461646016828466C
:1042D000884700F0EFFE05EB0610F96800F1900446
:1042E000A1B1E168204600291CBF89688847F868A9
:1042F00018B14268394620469047F868E0600122CC
:10430000314605F14C0002F00DFF0FE0E1680B4F64
:10431000204600291CBF8968884709482760E0605B
:104320000022314605F14C0002F0FCFE00F018FFBF
:10433000286841682846BDE8F0410847BD450008A7
:10434000A87D0008704700002DE9F0478846044624
:104350002E492D481E4617462060D1E90223002130
:10436000A260E3602A4A226148F207026261E161C9
:10437000A46104F10801216226496162BFF36F8FD5
:10438000BFF34F8F00216163616484F8481084F8A3
:104390004910442104F14C00FCF7EAFC02231022EE
:1043A0001D4904F1900000F0A3FB0662DFF86CA049
:1043B000A0F19005002600BF05EB061000F1900467
:1043C000DFF85C90E168204600291CBF89688847B7
:1043D000761CC4F80CA0C4F80090022EECD33A4628
:1043E000414605F14C0002F0E1FC05F14C00D5F826
:1043F000B01002F08FFC2A460A4905F14C0002F089
:10440000D7FD2846BDE8F0872C7D0008CC7B00084E
:1044100001A090E8637A0008DB2D0008A87D000861
:10442000BD45000851420008007B704770B5064644
:104430000D46204803F0D0FA4FF0FF3100F0BFF8EE
:104440001D480468002C2ED0A06848B32A46314687
:10445000FCF711FC20BBA068FCF7EEFBA8421FD1C3
:10446000144D286870B9154E4FF0FF31306801F0D7
:10447000A9F9286818B9281D00F0A8F82860306844
:1044800001F090F92868291D884204D059220C496E
:104490000C4801F045F8286800F094F8204670BDFB
:1044A0006468002CD0D1034803F096FA00F08AF833
:1044B000002070BD58170020880100204C0100200A
:1044C000787D0008647D000810B50446406828B176
:1044D000FFF7AAFF012804BF606810BD002010BDCF
:1044E00010B50446406810B1FFF79EFF08B10020E8
:1044F00010BD6068002818BF001F10BD406800286C
:1045000018BF0120704710B54068002808BF10BDD3
:10451000FFF78AFF00280CBF0120002010BD0068B3
:10452000704710B5044600202060606008782F288E
:104530000DD1487858B14B1C0021236022681078B7
:104540002F2806D038B1501C491C2060F6E72046C1
:1045500010BD501C20601846FFF768FF60602046C1
:1045600010BD70B5044600680168204688472046A3
:10457000FFF764FE054620684168204688472846C4
:1045800070BD704770B5044600680D46026820464D
:10459000904729462046FFF754FE054620684168AB
:1045A00020468847284670BD7047000010B5FFF7C9
:1045B000CBFE0149016010BD447D000870470068D2
:1045C00001F000B9006801F0EDB8000010B5044634
:1045D0000020A060E0602061606104F1080060607C
:1045E000201D01F0B5F82060002804BF02A000F0F3
:1045F000F4FD204610BD00004572726F7220696E96
:10460000697469616C697A696E6720746865206D88
:1046100075746578206F626A6563740A0000000033
:104620004FF0000CC0F814C0002B0CBF4FF0010C71
:104630004FF0000C80F82CC08183C0E9092370473B
:1046400000F0FABF70B50E4604464FF0FF3140301F
:10465000FFF7B5FF606928B104F14000FFF7B2FF32
:10466000802070BD2E48A061A06A58B9606A20F011
:10467000030000F0F7F9A06220B9562229A12FA06B
:1046800000F04EFF606A032819D9820817D0002174
:10469000334B12F0010002D0A16A0B60012190425D
:1046A0000DD200BFD4F828C0801C4CF82130D4F8BB
:1046B00028C0491C4CF82130491C9042F2D3251DDA
:1046C000B5420ED0E968284600291CBF8968884792
:1046D0003DB1F06818B14268314628469047F0680D
:1046E000E860214604F1180001F0D2F8606128B1B9
:1046F00004F14000FFF766FF002070BD94F82C0025
:1047000020B1A06A00F0A6F90020A06204F14000E8
:10471000FFF758FF04F1300000F046F8812070BD2B
:10472000654700086D6265642D6F732F72746F7337
:104730002F5468726561642E637070005F746872D4
:104740006561645F6465662E737461636B5F706F2F
:10475000696E74657220213D204E554C4C0000005E
:10476000A52E5AE270B50446051D006928B940F22D
:104770008F220B490B4800F0D3FEE86801682846F9
:1047800088474FF0FF3104F14000FFF718FF002089
:10479000606104F13000BDE8704000F005B8000031
:1047A000B97D0008B47D0008006801F049B810B573
:1047B00004460020A060E06004F108006060201D55
:1047C00001F010F82060204610BD10B50446FFF738
:1047D000C8FEC1B294F8B50028B1D4F8B800401CA6
:1047E000C4F8B80010BD0020C4F8B800D4E94502F0
:1047F000531E984207D0D4F81031984204BFD4F821
:104800000C319A4206D1421CC4F8142101700120D7
:1048100084F8B500D4E94410884228BFD4F80C01CC
:10482000C4F8140110BD30B5044685B0D4E9391080
:10483000884212D001782046FFF7A4FED4F8E800A1
:10484000401CC4F8E800D4F8E010884228BFD4F82F
:10485000DC00C4F8E80005B030BD0025694601223F
:1048600020460395FFF72CFD0399684600291CBFDD
:104870008968884784F8B45005B030BD70B50446E7
:1048800090F8B60084B00E4618B90A21204600F010
:104890005BF84FF0FF3104F1C400FFF790FED4E95C
:1048A0003910814238BF451A06D3D4F8E020511A96
:1048B000D4F8DC20801A0D183046FCF7BDF9A84268
:1048C00082BF6FF0010004B070BD00253046FCF7D8
:1048D000B3F9002814D9D4F8E400715D421CC4F87F
:1048E000E4200170D4E93810884228BFD4F8DC00F5
:1048F000C4F8E40030466D1CFCF79EF9A842EAD8E3
:1049000094F8B400A8B90E49012084F8B400D1E9A4
:104910000201CDE900010B480122CDE902406946C0
:104920002046FFF7CDFC0399684600291CBF896823
:10493000884704F1C400FFF745FE04B0002070BDB5
:10494000A07A00089C7D000870B584B00E46002552
:104950000446694601220395FFF7B2FC03996846B5
:1049600000291CBF896888476946002220460395B4
:10497000FFF7A6FC0399684600291CBF8968884791
:1049800084F8C06084F8B45084F8B5500C48C4F87A
:10499000B8500022D0E90010CDE90010094869465E
:1049A000CDE902402046FFF78BFC039968460029B9
:1049B0001CBF89688847012084F8B60004B070BD28
:1049C000A07A00089C7D00082DE9F0411F46DDE932
:1049D0000735069EFFF7EAFD1D4940F8C41BFFF7A7
:1049E000F5FD3030FFF7F2FD3030FFF7EFFD183006
:1049F000FFF7ECFDA0F59E743846FBF71EFDC4F8EA
:104A0000DC0020B1C119C4E93810C4F8E800304610
:104A1000FBF713FDC4F80C0120B18119C4E944105F
:104A2000C4F8180155B12846FCF706F9401CFBF7FD
:104A300004FD00281CBF2946FCF7DAF8002084F8A2
:104A4000B400C4F8B80084F8B6002046BDE8F08190
:104A5000147D000810B500F001F810BD10B5FBF78B
:104A600027FD10BD10B500F001F810BD10B5040011
:104A700007D1012405E0FCF703FA006800B90448F7
:104A800080472046FBF7D9FC0028F4D010BD000079
:104A9000D9160008490050EAC12018BF04204A0D69
:104AA00018BF40F0010040F2FF72B2EB515F08BF47
:104AB00040F00200012808BF052070472DE9F041B1
:104AC0000A4D0E4607462C682868B0F1006F07D1E2
:104AD0002146AC06EC222046FCF718F92046286057
:104AE00004EB87000664BDE8F081000008ED00E0FB
:104AF0002DE9F0411C4617460E00804607D00546BA
:104B000002E02846B0473D442046641EF9D24046A4
:104B1000BDE8F08110B50A480024214604604460D5
:104B20008460C460046100F0D5FB06480121046084
:104B300044608460C4600461BDE8104000F0CABBFA
:104B4000BC010020D0010020074810B5007848B112
:104B500002F0D2F830B1054900EB400001EB401003
:104B6000603810BD024810BDF9000020300A002056
:104B7000D017002002486A4620F007007047000066
:104B80003319002012F0004F1FBF22F00042D21D47
:104B900022F00703102202BFD21C22F003030C22D2
:104BA0001BB103EB020C8C4501D901207047024474
:104BB00001448360C0E90021C91AD01888429CBF13
:104BC00010600246F9D900201060704730380A287A
:104BD00001D2012070470020704700000549097884
:104BE000002908BF704700684FF6FF71DFF808C062
:104BF00000DF7047F90000207964000870B5094CA7
:104C00000546E0680C2824BF07A000F0E6FA0D482E
:104C1000E16800EB0110491C2860E16001F0B2FB83
:104C2000012070BD440100204E6F7420656E6F75C9
:104C30006768207374646C6962206D75746578654B
:104C4000730A0000D00C002004490978002908BF2D
:104C500070470068DFF808C000DF7047F9000020E7
:104C60009563000810B500F0E0FC10BD0328BCBF40
:104C7000002070470749002201EB800151F80C0C1D
:104C800041F80C2C002804BF4FF0FF30704701683A
:104C900049680847741700200328BCBF00207047EC
:104CA000064901EB800050F80C0C002804BF4FF0BF
:104CB000FF307047016889690847000074170020B9
:104CC0000328BCBF01207047064901EB800050F863
:104CD0000C0C002804BF4FF0FF3070470168C96812
:104CE00008470000741700202DE9F0470F4682B0F6
:104CF00082467F49FCF764F87E4C70B17E4950468D
:104D0000FCF75EF8C8B17D495046FCF759F820B36E
:104D10007B4C7C4D206880B33EE0206848B903227C
:104D20000221794802F042F84FF41651764801F01A
:104D3000F1FF02B00020BDE8F087206848B90322E7
:104D40000221714802F032F84FF416516E4801F01A
:104D5000E1FF02B00120BDE8F087206848B90322D6
:104D60000221694802F022F84FF41651664801F01A
:104D7000D1FF02B00220BDE8F087FFE74FF0FF311E
:104D8000286800F01FFD206818B9201DFFF71EFCE1
:104D90002060286800F006FD206804F104094845F9
:104DA00004D0592259495A4800F0BAFB4FF0FF315C
:104DB0002068FFF704FCDFF85C81002458F8240029
:104DC00018B1641C102CF9D301E0102C1CD34C4CEE
:104DD000206868B94FF0FF31286800F0F3FC2068C4
:104DE00018B9201DFFF7F2FB2060286800F0DAFCFC
:104DF0002068484504D059224449454800F090FBBA
:104E00002068FFF7DFFB63E03D4E4FF0FF3048F8CE
:104E10002400306868B94FF0FF31286800F0D2FCF8
:104E2000306818B9301DFFF7D1FB3060286800F0FA
:104E3000B9FC3068484504D059223449344800F060
:104E40006FFB3068FFF7BEFB9AF8000000263A2897
:104E500010D051466846FFF764FB6846FFF74EFBEB
:104E6000A0B36846FFF74FFB0028684609D0FFF75C
:104E700037FB23E06A4628A15046FBF7E5FC009883
:104E80001CE0FFF721FB08B317F0020F18BF022543
:104E900023D000BF17F00C0F18BF45F4007517F0B2
:104EA000040F18BF45F4806507466846FFF737FBD7
:104EB000014638682A4683683846984700281FBF4D
:104EC00048F82400E01C02B0BDE8F08748F82460F0
:104ED00002B04FF0FF30BDE8F08717F0040F18BFA5
:104EE0000125D7D117F0080F14BF09250025D1E7F8
:104EF000F87B000864010020FF7B0008077C0008A5
:104F0000B41700204C0100209C160020787D00087A
:104F1000647D0008741700203A2570000328BCBF88
:104F200000207047064A02EB800050F80C0C002865
:104F300004BF4FF0FF307047026813690022184722
:104F40007417002070B514460E46032818DA14486A
:104F5000006848B903220221124801F027FF4FF4EC
:104F60001651104801F0D6FE0025002C06D9715DBF
:104F70000C4802F03DF96D1CAC42F8D820460DE01B
:104F8000094901EB800050F80C0C002804BF4FF0D9
:104F9000FF3070BD01680B6831469847201A70BD1C
:104FA000640100209C160020741700202DE9F047B2
:104FB000384C0D4620604169374E11F0010F3746DD
:104FC0001CD08168354A32EA01010CBF0121002161
:104FD0008268334B33EA02020CBF01220022806850
:104FE000304B33EA00000CBF01200020114308437E
:104FF00004D07A6856F82500012190472068C168DE
:10500000406911F0030FC0F3400018BF002804D01E
:105010007A6856F825000021904720688169426926
:10502000C1F340014069C2F34022C0F3C0300029FF
:105030001CBF002A002804D07A6856F825000521F4
:10504000904720688169C1F3800841694069C1F3D4
:105050008029C0F3C030B8F1000F1CBFB9F1000FB8
:10506000002804D07A6856F8250007219047206868
:105070004069B8F1000FC0F3C0301ABFB9F1000F9A
:105080000028BDE8F08756F825007A68BDE8F047AB
:1050900002211047901500205C010020030000044D
:1050A0000003000800000310EFF31080012121EA43
:1050B0000000704770B5EFF31080012121EA000075
:1050C00080F0010572B60D4C6068002808BF25709D
:1050D0006068B0F1FF3F04D1332209A111A000F0B4
:1050E0001FFA606828B125B9372205A117A000F082
:1050F00017FA6068401C606070BD000094010020D9
:105100006D6265642D6F732F706C6174666F726D64
:105110002F6D6265645F637269746963616C2E638D
:1051200000000000696E746572727570745F656E60
:1051300061626C655F636F756E746572203C2055AB
:10514000494E5433325F4D4158000000696E74651A
:105150007272757074735F64697361626C65640008
:1051600010B50E4C6068002808BF10BDEFF310802A
:10517000012121EA000090F0010F04D1482208A18A
:1051800010A000F0CDF96068401E606060680028E3
:1051900006BF2078002810BD62B610BD9401002023
:1051A0006D6265642D6F732F706C6174666F726DC4
:1051B0002F6D6265645F637269746963616C2E63ED
:1051C00000000000696E74657272757074735F64BC
:1051D000697361626C65640070470FB410B503A910
:1051E000029800F0FBF9012000F000F804460548A1
:1051F000FBF739FC0448FBF736FC002C18BF00F025
:10520000B9F9FEE784180020D818002070B50446CC
:1052100090F900000D46B0F1FF3F04D1492209A1E9
:1052200016A000F07DF994F90000012D04D0BDE82E
:105230007040002100F0F6BBBDE87040012100F095
:10524000F1BB00006D6265642D6F732F746172672E
:105250006574732F5441524745545F53544D2F5436
:1052600041524745545F53544D333246312F677096
:10527000696F5F6170692E63000000006F626A2DC4
:105280003E70696E20213D202850696E4E616D652B
:10529000294E430070B50C4605460170B1F1FF3F41
:1052A00008BF70BDC4F30310FEF778FD0646002169
:1052B000204600F0B7FB04F00F00012101FA00F0D6
:1052C000686006F10800A8600830E860001D2861E9
:1052D00070BD000070B50D4604460026FFF7DAFFEA
:1052E000B5F1FF3F08BF70BD94F90000B0F1FF3F7A
:1052F00005D10949352201F1380000F011F9216981
:105300006068086001212046FFF780FF3146204693
:10531000BDE8704000F052B86C5300082DE9F04130
:1053200004460E4600271546FFF7B4FFB6F1FF3FCF
:1053300008BFBDE8F08194F90000B0F1FF3F04D14F
:1053400035220AA117A000F0EBF86068002D14BF09
:10535000E1682169086001212046FFF757FF3946BF
:105360002046BDE8F04100F029B800006D62656498
:105370002D6F732F746172676574732F5441524798
:1053800045545F53544D2F5441524745545F535435
:105390004D333246312F6770696F5F6F626A6563A4
:1053A000742E68006F626A2D3E70696E20213D2068
:1053B0002850696E4E616D65294E430090F90000DA
:1053C00000F0DCBB10B501F0DDF8BDE8104001F0E5
:1053D000C9B810B5002101F0D5F8BDE8104001F0C2
:1053E000C1B800009EB04FF4AA70FFF73FFB60B158
:1053F0004FF4007134A34FF4E1320091CDE9012361
:105400000B460A220921FFF7DFFA334C33A1A060D3
:10541000FFF734FA0FF2D40838490025049110A898
:105420004FF4006608952946FFF7C1F91030FFF7E1
:10543000CDF82B46324619464038FFF7F1F8304890
:105440001A9030481D901AA904A8FFF7FBF81D997F
:105450001AA800291CBF896888472B4F2A4D97F945
:105460000000B0F1FF3F05D128493F2201F138008B
:1054700000F056F8B86800687968084214BF002642
:10548000012695F90000B0F1FF3F05D11F493522F3
:1054900001F1380000F044F86868002E14BFE96894
:1054A000296908606068401C6060626818A1404615
:1054B000FBF71AF84146A068FFF7E0F94FF4FA70DD
:1054C000FFF7BEF8CAE700004C6F676765725F556B
:1054D0004152543200000000EC000020496E696324
:1054E00069616E646F2E2E2E0D0A00005461736B7D
:1054F00031203D20303030300D0A00005C7D000846
:1055000055410008A87D0008BC010020DC410008CE
:105510005461736B31203D2025640D0A00000000AA
:1055200070B514460D460646FFF7C4FD23462A46CD
:10553000314603A000F028F8BDE8704000F01AB82A
:105540006D626564206173736572746174696F6EF6
:10555000206661696C65643A2025732C2066696C4D
:10556000653A2025732C206C696E65202564200A1D
:1055700000000000FFF79EFD962002F0DFF9962064
:1055800002F0DCF9F8E700000FB470B5A0B025AC6C
:10559000249DFFF78FFD224629466846FAF792FFC1
:1055A000051E10DD0B48006820B9032202210A48BD
:1055B00001F0FCFB00246E460748315D01F018FE47
:1055C000641CAC42F8DBFFF7CBFD20B070BC5DF88B
:1055D00014FB0000640100209C16002070B5A0B0F0
:1055E0000C460546FFF766FD224629466846FAF74F
:1055F00069FF051E10DD0A48006820B90322022158
:10560000084801F0D3FB00246E460648315D01F0E6
:10561000EFFD641CAC42F8DBFFF7A2FD20B070BDCB
:10562000640100209C160020704710B5FEF706FCB0
:10563000BDE81040FDF7E2BCEFF31081002902D174
:10564000EFF3058109B182207047DFF808C000DF61
:10565000704700007D720008EFF31080002802D12F
:10566000EFF3058008B182207047EFF3148010F04B
:10567000010F03D0DFF808C000DF704701F008BE5B
:105680009172000800B589B0EFF31080002802D1B4
:10569000EFF3058010B109B0822000BDEFF3108058
:1056A00000280CD1EFF3058048B9EFF3148010F017
:1056B000010F04D0DFF884C000DF50B902E02048B9
:1056C0004078FAE71F48006800281EBF406800289D
:1056D0008047EFF3148010F003011B4806D0012926
:1056E00024D0022912D003291CD022E008A981F37A
:1056F0000988007810F0010F14BF0220032080F306
:105700001488BFF34F8FBFF36F8F12E0007810F053
:10571000010F0ED1032080F31488BFF34F8FBFF326
:105720006F8F06E0007810F0010F02D009B0FF2063
:1057300000BDDFF818C000DF09B000BD4D730008E0
:10574000F80000200C010020C47A000859730008FA
:1057500010B5EFF31081002903D100BFEFF30581ED
:1057600009B1002010BDEFF314810C4A01F00101D2
:105770005278114303D0DFF828C000DF10BD0021AC
:1057800000281CBF0468002C01D0207808B108460E
:1057900010BD204600F0F6FD204610BDF8000020A8
:1057A000E9730008EFF31081002902D1EFF30581BE
:1057B00009B182207047DFF808C000DF70470000A1
:1057C00007740008EFF31082002A02D1EFF305827C
:1057D0000AB182207047DFF808C000DF7047000080
:1057E0002974000810B5EFF31082002A03D100BF1E
:1057F000EFF305820AB1002010BDEFF314820E4BC7
:1058000002F001025B781A4303D0DFF830C000DFFA
:1058100010BD002200281CBF0468002C01D0207895
:1058200008B1104610BDB1F5803FFADA89B22046C2
:1058300000F0B2FF204610BDF8000020617400089F
:1058400010B5EFF31081002903D100BFEFF30581FC
:10585000B9B110F0030F4FF000044FF0800103D1F5
:1058600010B10278022A01D0084610BD4188A1F586
:105870007F42FF3A04BF812010BDFFF7AAFD2046FA
:1058800010BDDFF808C000DF10BD000087740008FD
:10589000F0B405460E460027EFF31080002802D131
:1058A000EFF3058010B1F0BC00207047EFF31480D7
:1058B000184C00F001006178084307D04FF0FF3129
:1058C000EFF31082A068002A06D00CE03A46314679
:1058D0002846F0BC01F0ECBDEFF30582002A04BFBE
:1058E000DFF834C000DF3A4631462846DFF82CC0E6
:1058F00000DF0546EFF31081A068002907D100BF43
:10590000EFF30581002904BFDFF814C000DF28464B
:10591000F0BC7047F800002029740008B17400083A
:10592000077400080C484FF0FF318068EFF31082D5
:10593000002A06D1EFF30582002A04BFDFF81CC05D
:1059400000DFDFF81CC000DF044601F026FE204621
:10595000DFF810C000DFFEE7F8000020297400081F
:105960002D750008497500080E4D80244FF0FF3159
:10597000EFF310822868002A03D100BFEFF30582FD
:105980000AB1204602E0DFF820C000DF1028EDD188
:105990000846DFF818C000DF0028E7D002460846B6
:1059A0009047E3E758010020A573000881750008BF
:1059B00010B5044601F0BAFD21460246BDE810408C
:1059C00001A0FFF70ABC0000525458206572726FA4
:1059D0007220636F64653A203078253038582C2067
:1059E0007461736B2049443A203078253038580A66
:1059F0000000000001F088B9074801684FF0E0207E
:105A0000416100218161072101610448016841F081
:105A10007F41016040177047C07A000820ED00E028
:105A2000704700002DE9F04385B00C460546B0F103
:105A3000FF3F04D156223CA148A0FFF771FD04F0BE
:105A40000F08C4F30217C4F3C316C5F3031005F01F
:105A50000F09FEF7A3F946498A6942F001028A61FB
:105A60008969444C01F001010491AEB10A2E13D2B0
:105A7000DFE806F012050A0E25292F353B3F616845
:105A800041F00101616007E0616841F0020102E05C
:105A9000616841F004016160012101FA09F100919E
:105AA000354951F82810CDE90117032103916946C2
:105AB000FDF7A8F90D2D18BF0E2D24D11DE061684A
:105AC00041F00801E7E7616821F0300141F0100181
:105AD000E1E7616821F0C00141F04001DBE7616866
