:020000040800F2
:1000000000500020750300087D0300087F030008EE
:100010008103000883030008850300080000000036
:10002000000000000000000000000000AD02000819
:100030008903000800000000250300086103000890
:100040008F0300088F0300088F0300088F03000848
:100050008F0300088F0300088F0300088F03000838
:100060008F0300088F0300088F0300088F03000828
:100070008F0300088F0300088F0300088F03000818
:100080008F0300088F0300088F03000891410008C8
:100090009D4100088F030008352E00088F030008DB
:1000A0008F0300088F0300088F0300088F030008E8
:1000B0008F0300088F0300088F0300088F030008D8
:1000C0008F0300088F0300088F0300088F030008C8
:1000D0008F0300088F0300088F0300088F030008B8
:1000E0008F0300088F0300088F03000800F002F858
:1000F00000F096F80AA090E8000C82448344AAF12C
:100100000107DA4501D100F08BF8AFF2090EBAE829
:100110000F0013F0010F18BFFB1A43F0010318473B
:10012000E885000008860000103A24BF78C878C12E
:10013000FAD8520724BF30C830C144BF04680C60ED
:10014000704700000023002400250026103A28BF35
:1001500078C1FBD8520728BF30C148BF0B60704739
:100160006E2900F07787702900F09F82662908F0D9
:100170002981652908F02681672908F023816129F2
:1001800008F0228103681B0A28BF41F08001692919
:1001900000F01082642900F00D82752900F00A82B7
:1001A0006F2901F05D80782900F06B82E92900F069
:1001B000F787E42900F0F487F52900F0F187EF29AB
:1001C00001F05A80F82900F06A820368DB0928BF31
:1001D00041F08001632900F07887732900F07D8762
:1001E000E32901F0A786F32901F0AC8600207047CF
:1001F0001FB59DE8030000F08AFE00F066FE0400D3
:100200000020002108F052F8401C6060002000210E
:1002100008F062F8E06001F0A5F900F03FFE1FBDB4
:1002200005F018F805F08EF805F01AFD07F034FC1B
:100230000348002105F084FE05F028FDFEE70000DC
:100240002C01002080F309887047EFF30980704784
:10025000684680F3098804480078C00714BF02206C
:10026000032080F314887047F8830008DFF818C073
:10027000EFF305831B0618BF6047EFF31483DB071A
:1002800008BF604700DF704749640008DFF818C006
:10029000EFF305831B0618BF6047EFF31483DB07FA
:1002A00008BF604700DF704761670008EFF309800F
:1002B000816911F8021CF1B990E80F10E047EFF3E3
:1002C000098C8CE80700144B93E8060091420FD08C
:1002D00039B12CE9F00FC1F82CC00CB406F0A6FE21
:1002E0000CBC1A60D2F82CC0BCE8F00F8CF3098863
:1002F0006FF0020E704710B5084A1268914209D893
:10030000074C54F8214090E80F10A047EFF3098CF8
:100310008CE80F0010BD00001C0100201C2E0008FE
:100320001C2E000806F0F2FC0C4B93E806009142EC
:1003300010D0EFF3098C2CE9F00FC1F82CC00CB4ED
:1003400006F074FE0CBC1A60D2F82CC0BCE8F00FAA
:100350008CF309886FF0020E704700001C0100202A
:1003600006F05AFFE0E7000005F0B2FE06F054FF89
:10037000DAE700000648804706480047FEE7FEE748
:10038000FEE7FEE7FEE7FEE7FEE7FEE7FEE7FEE745
:10039000013F0008ED00000800487047C018002029
:1003A00010B500F092FD001D10BD00BF017F0000E0
:1003B0000B3020F0070070472DE9F04117460E463C
:1003C0000446FFF7F5FFA042054633D9002F1CBFB6
:1003D00006F10C0004F072FF30467468F4B1216835
:1003E000A94217D305F1080291423CBF6168416000
:1003F00007D3626861194A602268521B0A60416033
:100400002560002F1CBF06F10C0004F08DFF201D9D
:10041000BDE8F08120466468002CE0D129463046D2
:1004200000F061FD0028D7D1002F1CBF06F10C00A1
:1004300004F07AFF0020BDE8F08110B5044600F01A
:100440003FFD01682046BDE810400122B4E770B5C9
:1004500016460D46041F002808BF70BD002E1CBFA5
:1004600005F10C0004F02AFF2B465868002818BF3D
:10047000A04238BF0346F8D31968CA18A24218BF71
:100480005C6003D122681C461144196021680A1976
:10049000824218BF606004D142686260006808440C
:1004A0002060002E1CBF05F10C0004F03DFF70BD64
:1004B00010B5044600F004FD01682046BDE8104078
:1004C0000122C4E71CB50C46064B7B4469460090EC
:1004D000204600F0D8FD04460020694600F0E6FD05
:1004E00020461CBDDF0B00000FB41CB5084B06AA4C
:1004F0007B4469460090059800F0C5FD0446002045
:10050000694600F0D3FD20461CBC5DF814FB0000DA
:10051000B90B000070B5044685690068C10601D5B5
:10052000302600E02026C00707D070BDD4E90121A5
:1005300030469047206A401C20626D1EF6D570BD83
:1005400070B5044685690078C00707D170BDD4E94D
:10055000012120209047206A401C20626D1EF6D5A4
:1005600070BD70B50C460546012A05D02878800676
:1005700000D5EA69002302E0012305E05B1C9342F9
:1005800002D2E05C0028F9D1A869E618C01AA86177
:10059000286A184428622846FFF7BCFF04E0D5E922
:1005A000012114F8010B9047B442F8D32846FFF715
:1005B000C7FF70BD2DE9F04106460024106875297B
:1005C000314616A510D000F0DAFC002802DA4042CD
:1005D00013A507E031688A0701D512A502E0490793
:1005E00004D511A5012401E000F0D2FC00210A226B
:1005F00006F1240709E0B0FBF2FCB0FBF2F302FBCA
:100600001C00303078541846491C0028F3D123468A
:100610002A463046BDE8F04100F0C3BC00000000AF
:100620002D0000002B00000020000000F0B40D465B
:100630000188090502D5214C7C4402E01F4C7C4412
:100640000E34002100F1240608E002F00F07120921
:10065000E75D42EA03721B097754491C52EA03071B
:10066000F3D102780023120704D5702D06D009B10A
:10067000022311342246F0BC00F093BC0123103455
:10068000F8E770B504460D462146106800F080FC7E
:10069000024629462046BDE870400023C6E7D21D29
:1006A00022F00703D3E90023C0E70368126843F090
:1006B000200303600823C3610023B7E7077F00001E
:1006C0002DE9F05F894604464FF0000ADFF874B167
:1006D000FB44C0F820A02046E1688847002874D079
:1006E000252806D0D4E901219047206A401C2062C9
:1006F000F1E700265F462046E16888472028054646
:1007000007DB312D05D2781910F8200C08B106430B
:10071000F1E7B00701D526F00406C4F81CA00027B5
:10072000C4F818A02A2D09D0284604F0BFFD38B31C
:1007300004EB8708303DC8F8185019E059F8041B3D
:10074000204604EB87029161E1688847012F054646
:1007500018D1E069002820DA26F020061DE0D8F83C
:10076000180000EB800005EB40003038C8F8180096
:100770002046E1688847054604F098FD0028EED140
:10078000012F0AD02E2D08D12046E16888477F1C12
:100790000546022F46F02006C4DBA069002803DAD4
:1007A000404246F00106A061F00701D026F0100695
:1007B0006C2D0BD0682D09D04C2D39D06A2D35D039
:1007C000742D35D07A2D33D016E038E0E1682F460D
:1007D00020468847B842054609D16C2F26D04FF4F1
:1007E0008060E168064320468847054604E06C2F98
:1007F0001AD04FF4807006430DB3A5F141001928BB
:1008000002D8203546F400664A462946204626602E
:100810004E46FFF7A5FC80B101280BD0F61D26F04F
:10082000070000F1080956E74020E4E78020D8E7F8
:100830000020D6E706F104094DE7284652E7206A72
:10084000BDE8F09F977E00000FB400B58DB010A9F1
:10085000099000910B904FF0FF300A9000200C900F
:10086000064878440690064878446A4607900F99EF
:1008700009A800F01FFD0DB05DF814FB6F0A000021
:10088000870A00002DE9FF5F1D464FF0FF3B9146B0
:100890004FF000085F46D5E90146A96901987F1C21
:1008A0008847296A824688470028F6D1BAF1FF3F77
:1008B0000CD0002E24F4C06419DD600614D5BAF102
:1008C0002B0F09D0BAF12D0F0ED103E0584604B01A
:1008D000BDE8F09F44F48064A96901987F1C8847B3
:1008E000761E8246002E02DDBAF1300F03D0B9F138
:1008F000000F26D032E0A969761E01987F1C44F4CF
:1009000000748847002E824605DDBAF1780F06D0C4
:10091000BAF1580F03D0B9F1000F10D01EE0B9F1B1
:10092000000F02D0B9F1100F18D1A969761E0198F5
:100930007F1C24F4007488478246102002E00820BF
:1009400000E00A20814609E0A96908FB0908761E33
:1009500001987F1C44F4007488478246002E05DD10
:100960004946504600F092FC0028EDDAE96901980A
:100970008847A00502D46FF00100A8E7E00725D161
:10098000600613D5600502D5C8F1000000E04046BE
:1009900029680A1D2A600968220501D5087015E03A
:1009A000220701D5088011E008600FE02868011DCA
:1009B00029600068210502D580F8008006E0210743
:1009C00002D5A0F8008001E0C0F8008038467EE73C
:1009D0002DE9F04704464FF000094FF0FF37C56896
:1009E000D4E90486A80707D0204600F043FD30462E
:1009F00004F0ACFC002802DA3846BDE8F087280590
:100A000002D54046FFF754FD4C21204600F0DAF9AC
:100A1000206D20F0010020654846EEE72DE9F04109
:100A2000044600F14C07384604F048FCE0688107B2
:100A300012D0800601D5A66A04E0A1696068084466
:100A40002169461A204600F015FD00220546314670
:100A5000204600F05FFC00E00025384604F064FC0E
:100A60002846BDE8F0812DE9F04118B1BDE8F0411C
:100A7000FFF7D4BF0B4E0025304604F01FFC0A4C94
:100A80006F1E07E02046FFF7C9FF00B13D46206D0D
:100A900020F00104002CF5D1304604F045FC284636
:100AA000DFE70000B4010020201900202DE9F04705
:100AB00016468846814602F14C07384604F0FEFB94
:100AC0003046FFF785FF18F8010B61280AD072281D
:100AD00002D077283FD102E00125002405E002255D
:100AE000042402E0082448F2020518F8010B2B2820
:100AF00006D0622809D018F8010C74280AD00BE03F
:100B000045F0030544F00204EFE745F0040544F026
:100B10000104EAE744F010044846214604F054FC7E
:100B2000411C18D00021316171604FF40071F560F3
:100B3000F1617061200704D530460222002100F0E7
:100B4000E9FB306D40F001003065384604F0ECFB05
:100B50003046BDE8F0870026F7E72DE9F04115465D
:100B60000E460746204C204604F0A8FB2A46314694
:100B70003846FFF79BFF0546204604F0D5FB284684
:100B8000BDE8F0812DE9F0410E468046164D28461D
:100B900004F094FB154C206DC10704D0410804D02B
:100BA00020F00104F7E7224612E05420FFF745FC4D
:100BB000070017D0206D47F001010843542120653C
:100BC000384600F0FFF807F14C0004F087FB3A4686
:100BD00031464046FFF76AFF0446284604F0A4FB6E
:100BE0002046CDE70024F8E7B401002020190020BA
:100BF00040EA0103024630B59B0710D14FF00134A3
:100C000000E008C208C91D1B9D4315EAC41FF8D0A7
:100C100013F0FF0102F8011B0DD01B0AF8E711F8D1
:100C2000013B002B02F8013B05D011F8013B002BE2
:100C300002F8013BF3D130BD10B5431C02E010F8BF
:100C4000011B71B18107FAD14FF0013202C88C1A31
:100C50008C4314EAC211F9D0C01A0A0603D0C01E90
:100C600010BDC01A10BD0A0401D0801E10BD0902BB
:100C7000FCD0401E10BD40EA010370B59B072ED189
:100C80004FF00136042A2AD308C810C99D1B9D4382
:100C9000121F15EAC61517D0D8B2E1B2401A50EAB1
:100CA000056110D198B2A1B2401A50EA05410AD1AB
:100CB00023F07F4024F07F41401A50EA052102D101
:100CC000180EA0EB146070BDA342DBD018BA21BA95
:100CD000884201D9012070BD4FF0FF3070BD0AB9C4
:100CE000002070BD10F8013B11F8014B63B1A34225
:100CF0000AD1521E08D010F8013B11F8014B1BB16C
:100D0000A34201D1521EEDD1181B70BD10B5203A7F
:100D1000C0F00B80B1E81850203AA0E81850B1E8B4
:100D20001850A0E81850BFF4F5AF5FEA027C24BF6A
:100D3000B1E81850A0E8185044BF18C918C0BDE861
:100D400010405FEA827C24BF51F8043B40F8043B2A
:100D500008BF7047D20728BF31F8023B48BF11F8DF
:100D6000012B28BF20F8023B48BF00F8012B704739
:100D700002F0FF0343EA032242EA024200F002B813
:100D80004FF000020429C0F0128010F0030C00F0B4
:100D90001B80CCF1040CBCF1020F18BF00F8012B32
:100DA000A8BF20F8022BA1EB0C0100F00DB85FEA00
:100DB000C17C24BF00F8012B00F8012B48BF00F8CC
:100DC000012B70474FF0000200B51346944696463B
:100DD000203922BFA0E80C50A0E80C50B1F120014E
:100DE000BFF4F7AF090728BFA0E80C5048BF0CC0FC
:100DF0005DF804EB890028BF40F8042B08BF70475A
:100E000048BF20F8022B11F0804F18BF00F8012BCB
:100E1000704700004FF0013C50F8042B51F8043BA0
:100E20009A4221D1A2EB0C03934313EACC1317D1BE
:100E300050F8042B51F8043B9A4215D1A2EB0C0355
:100E4000934313EACC130BD150F8042B51F8043B15
:100E50009A4209D1A2EB0C03934313EACC13DBD0E3
:100E60004FF00000704700BFD01A01BAB1FA81F10B
:100E700001F0180122FA01F0CB40C1F12001DBB2F0
:100E8000C0B2C01A2CFA01F3D11A914311EAC3116E
:100E9000E6D17047704770477047000070B5064C48
:100EA0007C44064D7D4403E0206820448047241D97
:100EB000AC42F9D170BD0000B0790000B0790000FB
:100EC00010B5FFF769FA083010BD10B5FFF764FAE6
:100ED000203010BD10B5FFF75FFA343010BD7047F9
:100EE00070477047704738B504460A460020694687
:100EF000AFF30080002808BF38BD024600992046A5
:100F000000F016FC012038BD012001F026BAF8B52A
:100F1000AFF30080054600200C46102000BF0646B7
:100F2000A819A0420DD9324669460020AFF30080CF
:100F3000070008BF01F011FA0098A04218BF05464B
:100F4000C419FFF7BDFF05600746F01D20F007003C
:100F50004619284600F00AF8B44208BFF8BDA21BA3
:100F600031463868BDE8F84000F0E2BB002101607E
:100F7000C0E901100C3004F0B1B9102070470968C5
:100F80004A0501D540B27047C905FCD500B270478B
:100F900009684A0501D5C0B27047C905FCD580B2C1
:100FA00070472DE9F0470D4699469246044600F1F8
:100FB00024080168880604D5E06921F01001216049
:100FC00000E00120A84201DD471B00E00027A169E5
:100FD0007A1902EB0900081AA0612078C00602D431
:100FE0002046FFF797FA002608E0D4E901211AF815
:100FF00006009047206A401C761C20624E45F4DBB8
:101000002078C0060AD52046FFF784FA06E0D4E926
:10101000012130209047206A401C2062381EA7F131
:101020000107F4DC07E0D4E9012118F80500904736
:10103000206A401C2062281EA5F10105F3DC204631
:10104000FFF77EFA2078000602D50220BDE8F0877F
:101050000120FBE711680268006A530501D508709A
:101060000AE0D30501D5088006E0130603D5C217B0
:10107000C1E9000200E008600120704701694A1CD4
:1010800002610878704700B58FB0CDE901310021C9
:10109000059105497944CDE9031011466846FFF7EB
:1010A0000FFB0FB000BD0000E5FFFFFF0A6802F86C
:1010B000010B0A60704710B5436913B1AFF30080AC
:1010C00001E0FFF74EFA012010BD127800F1240173
:1010D0000A7000224A700122EDE711684FF0FF32DA
:1010E000E9E700002DE9FF5F15468A460446DFF870
:1010F000AC80F8440027D8E900103E46CDE9001046
:1011000010E03AF816106A4602A801F0FAF8411CFD
:1011100007D02178890603D5E269391891420DD8A4
:101120000744761C2078800602D5E069B84205DDC8
:10113000AE42E6DB3AF816000028E2D1A069C01BF7
:10114000A0612046FFF7E6F9D8E90010CDE90010CC
:10115000002017E03AF818106A4602A801F0D1F80A
:10116000B0F1FF3F81460BD000250DF1080B05E0E3
:10117000D4E901211BF8050090476D1C4D45F7D3BC
:1011800008F10100B0428046E4DB206A3844206266
:101190002046FFF7D5F9BDE8FF9F000086740000E8
:1011A0002DE9F0418046D21D22F007020025D2E948
:1011B0000002F52915A614D0011E72F1000106DA0D
:1011C0000023D0EB030063EB020211A608E0D8F87D
:1011D00000108B0701D50FA602E0490701D50EA626
:1011E00001251146002408F1240704E000F0BFFAAD
:1011F00030323A55641C50EA0102F7D12B46324690
:1012000021464046BDE8F041FFF7CBBE000000009C
:101210002D0000002B0000002000000030B4002151
:1012200000F1240408E002F00705D208303542EA54
:101230004372DB086554491C52EA0305F3D1046884
:10124000002310A2250708D504F020040C4304D085
:10125000C46901230CA2641EC46130BCFFF7A1BEA7
:1012600010B5044621461068FFF792FE024620465C
:10127000BDE810400023D1E7D21D22F00701D1E9DB
:101280000023CBE700000000300000003A2800D225
:10129000303820F02002412A01D3A2F137008842E1
:1012A00001D34FF0FF30704702681144137801609A
:1012B00018467047D1600549794451610449794421
:1012C000116200211161114600F040BEEDFFFFFFE9
:1012D00037050000426842B1016811F8013B23B1B3
:1012E000521EC0E90012184670470121C160881ED5
:1012F000704742685AB1C368016843B983688B423A
:1013000005D0491E521CC0E90012002070474FF062
:10131000FF3070472DE9F041044616460D464769F7
:10132000007B80072ED0384604F03AF850BB3EB31D
:10133000012E02D0022E25D104E0204600F0C0FF8D
:1013400005441DE0384604F017F8E168002841F034
:101350001001E16005DA204600F058F80120BDE8F0
:10136000F081C9030BD56268E16A914200D8114649
:10137000A26911442269891A814200DD08460544A8
:10138000002D01DA0220EAE7E16A6068E268814242
:1013900006D29103E06203D522F4003141F010023D
:1013A000A6690027AE4213DCE16A814201D90B46EF
:1013B00000E0034603EB060C2369ACEB030CAC45E1
:1013C00006DD814201D98C4600E084469C4505D16A
:1013D000A760276042F02000A5620DE0AD1BE66922
:1013E000AE1B8142A66000D90846C01A281A2060A8
:1013F0005819606022F0200003490840E060002096
:1014000084F84870ABE70000BFCFD7FFC16821F474
:10141000001141F08001C1600021816001607047CE
:101420002DE9F047814614460E464FF0FF3832480A
:10143000D5685769054209D03846A16904F0DEF83D
:10144000002811DB2C48C0430540E5602B4632469E
:101450004946384604F0E6F8A16920F00042B21A85
:1014600011440028A16103D02046FFF7CFFF40467A
:10147000BDE8F08770B504460569C06A61688842B6
:1014800000D80846E16821F42011E160C90312D5B3
:10149000A84208D02246411B2846FFF7C1FF10B1E1
:1014A0004FF0FF3070BD0020E562C4E90150E068F4
:1014B00020F48030E060002070BD10B50446C068A4
:1014C00020F02000E060A16AA06988420DD020468B
:1014D000FFF7D0FFE06820F4405040F01000E060DB
:1014E000A06AA0612069E062606044F24001E068A7
:1014F0008843E06010BD0000100002002DE9F047B5
:1015000004461E4690460D46C7684C30814603F09F
:10151000D5FEB80714D0780212D44046B8F5807FC3
:1015200009D0B0F5007F06D0B8F5806F08D101264C
:1015300004F1240506E0701E6FF07F41884201D35C
:10154000012409E02561E6616560E06820F47060CF
:1015500040EA0800E0600024484603F0E5FE20462B
:10156000BDE8F08710B565485421FFF72BFC6448AF
:101570005421FFF727FC63485421FFF723FC6248FE
:101580005E49624A624B01605D4810605D4A1A60C4
:10159000431C0B65511C01650120106557484C30F8
:1015A00003F09CFE56484C3003F098FE55484C30F2
:1015B00003F094FE574803F091FE58484F4A56A155
:1015C0007844FFF7CAFA20B9544878440A3800F042
:1015D000BDFE54484A4A52A17844FFF7BEFA20B9EA
:1015E000504878440A3800F0B1FE4F48454A4CA1B3
:1015F0007844FFF7B2FA20B94B4878440A3800F033
:10160000A5FE40233D48DC0000212246FFF776FF7F
:1016100020B142487844543800F098FE38482246B9
:1016200040230021FFF76AFF20B13E487844543838
:1016300000F08CFE3348224610230021FFF75EFFA6
:10164000002806D038487844BDE81040563800F0ED
:101650007DBE10BD2B482DE9F041006D2D4E20F0D0
:101660000104304603F02AFE244D4C35284603F091
:1016700025FE2248FFF7ACF9284603F055FE284620
:10168000AFF300801E4D4C35284603F017FE1C4872
:10169000FFF79EF9284603F047FE2846AFF3008087
:1016A000184D4C35284603F009FE1648FFF790F90F
:1016B000284603F039FE2846AFF3008014E0206D81
:1016C00020F0010504F14C00074603F0F7FD204629
:1016D000FFF77EF9384603F027FE3846AFF3008067
:1016E0002046FEF7E5FE2C46002CE8D1304603F0FC
:1016F0001BFE0848AFF30080BDE8F08120190020F0
:1017000074190020C8190020A8010020AC01002095
:10171000B0010020B401002072000000686F0000DA
:1017200077000000576F0000476F000000F01CBEFC
:1017300030B404468C464368002B18BF634538BF5D
:101740001846F8D303681844604507D0C81C20F039
:10175000070000F1040CACEB0100121A2146CCF892
:10176000002030BC00220CF10400FEF770BE30B542
:10177000B0F10A024FEA900E71F100034EEA817E49
:10178000B0EB0E0061EB91014FEA101E4EEA017EB4
:1017900010EB0E0041EB11114FEA102E4EEA016ED4
:1017A00010EB0E0041EB11214FEA104E4EEA014EB4
:1017B00010EB0E0041EB1141401841F100014FEADE
:1017C000D00040EA41704FEAD10110EB80054FEAAA
:1017D000810444EA907444EB01046D1944EB040461
:1017E000521BA3414FF0000348BF0A3200D530BD61
:1017F000401C41F1000130BD10B50446FEF7D0FD9C
:101800000068005D00F0010010BD70472DE9FF4F3A
:101810000C461E464FF0FF378BB0D2E90001DDF8D1
:1018200060800A908A46C1F30A5505B93D460021F9
:1018300008464FF00000BAF1000F00F4400005DA4E
:1018400000EB80004FF4400101EA50004FEA90594C
:10185000B9F1010F00DDB9460A9850EA4A000ED0EE
:1018600044F61050A5F2FF3545432F14B8F1000F90
:101870001ED07542291E1EDDC9F100021CE0B8F120
:10188000010F4FF0000001D0302103E0F24305E0EA
:101890002154401CB042FBDB304600220021215481
:1018A0000B99C1F80880C1E900200FB0BDE8F08FA6
:1018B000BD1B6D1CDEE74A4600DA694206A800F04F
:1018C000D7FD06AB93E8070003AB83E8070050465B
:1018D0000A9900F0E7FE8DE80700A0F500501F38D8
:1018E00000900398002D09DD42F21F014A4608448A
:1018F00003A90390684601F046F908E0A0F50050FE
:101900004A461F3803A90390684601F050F98DE854
:1019100007000004000C03D04FF0FF30410800E046
:101920001046B8F1000F03D00022009215461EE0C9
:10193000751E05D4FFF71BFF303262556D1EF9D5B9
:10194000B3460122084302D000227F1C04E0207825
:10195000302801D100227F1E002A099786D01DE081
:10196000112D07DAFFF703FF303262556D1C50EA84
:101970000102F5D1084302D00098C8B10EE0002161
:10198000681E05E0235C625C63542254401E491CBF
:101990008142F7DBAB46A81B401E0990002004F8EB
:1019A0000B000B98099AC0F80880C0E9002B7CE76F
:1019B00011264FF0000859E72DE9F04F88460446FC
:1019C000D21D22F0070191B0D1E90001CDE90A0151
:1019D00003F0D8FB02460B98C00F01D02D2007E082
:1019E0002068810701D52B2002E0202101EAC000F8
:1019F000032A099001D0072A05DB03464146204609
:101A000000F0F6FC0BE12078800601D5E06900E0EB
:101A10000620B8F1650F814606D0B8F1660F18D0E0
:101A2000B8F1670F70D131E00020B9F1110F0090CB
:101A300001DB112301E009F101030AAA01A90CA8A5
:101A4000FFF7E4FEDDE90C70002609F1010583468D
:101A500047E001204B4600904FF000470AAA01A939
:101A60000CA8FFF7D3FEDDE90DB00C995D4600260A
:101A700010B909F101000D18B9EB050003D4C0F14C
:101A8000FF3609F10105A5EB09002BE0B9F1010FC3
:101A900001DA4FF001090020B9F1110F009048461A
:101AA00001DD112300E003460AAA01A90CA8FFF7F3
:101AB000ADFEDDE90C704D46002683462078000718
:101AC0000AD4AB4500DA5D4601A8012D04DD4119B9
:101AD00011F8011C302907D04F4502DA17F1040F25
:101AE00004DA012082460FE06D1EEEE7002F02DCD3
:101AF000ED1B3E4403E0781CA84200DD7D1CB81BB2
:101B000000F1010A4FF000472078000703D4AA45EE
:101B100001DB4FF0FF3A0021B7F1004F0DF1430810
:101B20008DF8431024D002202B23002F01DA7F42AE
:101B30002D230A21021EA0F1010000DC5FB197FBFA
:101B4000F1FC97FBF1F201FB1C7C17460CF1300C09
:101B500008F801CDEEE7A8F101000370218809051E
:101B600001D5452100E06521A0F1010800F8011C24
:101B700009980FA9A1EB0807FF1D00B10120411929
:101B800001EBEA70A1693844081A401EA061207870
:101B9000C00602D42046FEF7BDFC099828B1D4E95E
:101BA00001219047206A401C20622078C00622D57F
:101BB0002046FEF7AFFC1EE0002E04DBB34502DD3D
:101BC00001A8805D00E03020D4E901219047206A1F
:101BD000401C2062761CAAF101005FEA000A0AD1CB
:101BE000FFF773F9C0680168405CD4E901219047B0
:101BF000206A401C2062281EA5F10105DCDC07E0FC
:101C0000D4E9012118F8010B9047206A401C20629A
:101C1000381EA7F10107F3DC2046FEF791FC0320F4
:101C200011B043E62DE9F04F04460D46D21D22F0D7
:101C3000070089B0D0E9009248461746394603F0BC
:101C4000A1FA0246F80F01D02D2307E02068810792
:101C500001D52B2302E0202101EAC0038DF82030BA
:101C60000BB1012000E00020032A824601D0072AA0
:101C700004DB2946204600F0BBFB3DE120788006CE
:101C800001D40D2500E0E569C7F30A560D2D49DAA8
:101C900000214FEA175B08464FF00000002F00F4C8
:101CA000400007DA00EB80004FF4400100EBD070F9
:101CB00001EA60008115012901DD4FF0FF310022AA
:101CC0004FEA850CBCF1180F06D31346ACF118008F
:101CD0004FF08052C24003E04FF4801323FA0CF31C
:101CE0000CF10C0CBCF1200F04D3ACF1200C09FA60
:101CF0000CF001E007FA0CF000294FF0004801DD7C
:101D000018B90FE00ED140450CD319EB02095F4121
:101D100021B9404502D19F4329EA0209BBEB175F75
:101D200000D0761C2088000502D57B48784402E06C
:101D300079487844193808AA302302F80A30037C1D
:101D40000AF10101002E0AF1020A53546A4602DC2C
:101D50004FF0300101E04FF031014FF001088DF8F4
:101D6000001002D0A6F2FF3603E059EA470100D086
:101D70006A4E002D02DC2178090704D54FF00208D5
:101D80002E218DF80110C44600210BE0C7F3034358
:101D90003F01C35C491C6D1E02F80830052908F19B
:101DA000010801DA002DF1DC00210CE000EB1973D1
:101DB000491C1B786D1E082902F808304FEA0919E2
:101DC00008F1010801DA002DF0DC2178890602D53E
:101DD00014E0A8F10108E04505DD02EB080111F867
:101DE000011C3029F5D0B8F1000F07DD02EB080126
:101DF00011F8011C2E2901D1A8F10108002D05DDE3
:101E00003E2102F808106D1E08F10108407C002EEA
:101E100002F8080008F1010804DA2D20764202F8E1
:101E2000080002E02B2002F808000A214FF47A7023
:101E3000864208F101080BDB96FBF0F3303302F821
:101E4000083096FBF0F308F1010800FB136601E08F
:101E5000642E0CDB642096FBF0F3303302F808307C
:101E600096FBF0F308F1010800FB136601E00A2E6F
:101E700006DB96FBF1F0303002F8080008F10108AB
:101E800096FBF1F001FB1060303002F80800A16908
:101E900008F1010808EB050202EB0A00081AA0612C
:101EA0002078C00602D42046FEF734FB216A08AE33
:101EB00001EB0A00206204E0D4E9012116F8010BCD
:101EC0009047BAF1010AF7D22078C00602D5204621
:101ED000FEF720FB6E4609E016F8010B3E280FD0F6
:101EE000D4E901219047206A401C2062B8F1010822
:101EF000F2D22046FEF724FB09B00320BDE8F08FA4
:101F0000206A2844206203E0D4E901213020904770
:101F10006D1EEBD3F8E700006768000002FCFFFFCE
:101F200010B5436913B1AFF3008001E0FFF7DAF8B1
:101F3000012010BD128800F1240182840022C28495
:101F40000122EDE711684FF0FF32E9E72DE9F34F89
:101F50004FF0000A0C4656468DB001200C9001F15E
:101F60000C000B9062690B9801219047051E2DD043
:101F7000252D2CD0216A8847C0B162690B980121B8
:101F80009047216A88470028F7D16269411E0B9863
:101F9000904700E0761CA1690D988847216A884720
:101FA0000028F7D1E1690D988847DBE7A1690D9812
:101FB0008847A842074601D1761CD3E7E1690D980E
:101FC00088477F1C02D1BAF1000F6FD06BE16269C4
:101FD0000B9800273D46394690472A2804D162696C
:101FE0000B98012190470125DFF8D08262690B9898
:101FF00001219047A0F130010A290AD24745E5DCCA
:1020000007EB870100EB4107303FDFD445F01005B7
:10201000ECE7E90601D46FF000476C280AD04C28A1
:1020200014D0682815D06A280DD074281CD07A28BE
:102030001AD01DE062690B98012190476C2802D0EC
:1020400045F0040514E045F002050DE045F02005DB
:102050000AE062690B9801219047682802D045F098
:10206000080505E045F4006562690B980121904779
:10207000C4E9015765283DD019DC58287AD00CDC1A
:10208000452837D004DC252826D041289ED131E0D0
:1020900046282FD0472899D12CE05B2877D061289B
:1020A00028D063287CD0642823D15AE0F6E06F283A
:1020B00048D008DC66281DD067281BD0692821D0AD
:1020C0006E2816D127E0702845D0732868D075286F
:1020D00047D078280DD14DE0A1690D988847252873
:1020E00005463FF469AFE1690D9888476D1C3FF4E0
:1020F0006AAFD8E00D9923466A466FF00100AFF34E
:102100000080C5E045F0400023464FF000026060CB
:10211000A80736D43EE0E8077FF447AF2068011DEA
:1021200021600068290501D506701BE7290701D544
:10213000068017E7A90703D5F117C0E9006111E789
:1021400006600FE745F0400023464FF0080260604C
:10215000A80716D41EE040F60E0125EA01006060D3
:1021600016E045F0400023464FF00A026060A807E1
:1021700007D40FE045F040006060A80708D523466B
:1021800010220D996FF00100AFF3008080E007E0AE
:10219000102223460D996FF00100FEF773FB77E0E4
:1021A0004FF0000963284F46C8464B46CB4602D045
:1021B0005B2806D038E0E80601D40120A0600127A2
:1021C00032E06269D4F80CB00B98012190475E2888
:1021D00007D14FF0010949466269D4F80CB00B9859
:1021E0009047216939B900210A4603AB43F8212001
:1021F000491C0829FADBD8B3216949B308F1010861
:1022000062690B98012190475D28F4D1B9F1000F64
:1022100009D0002003A951F82020D24341F8202002
:10222000401C0828F7DB03AB2069002820794FEA1F
:1022300040701ED05B462246CDF80080CDE9019764
:102240000D9900286FF0010020DAAFF300801FE045
:10225000C11703AA00EBD1614B1121F01F0102EB62
:102260008302411A13680120884003431360C7E7C3
:1022700019E00D99224600286FF00100009702DA5C
:10228000AFF3008004E0AFF3008001E0AFF3008023
:1022900000280ADA401C06D10C9820B14FF0FF301C
:1022A0000FB0BDE8F08F5046FAE7E90701D10AF117
:1022B000010A064400200C9054E60000CCCCCC0C63
:1022C00010B50146C268900703D0900607D5886A0A
:1022D0000AE000F08AF801210160881E10BD8B69B8
:1022E000486818440B69C01A91F848301BB191F83E
:1022F0004910401A10BD1103FCD50028FADD401E1C
:1023000010BD70B516460C460546FEF749F8036841
:1023100093F80101012806D0FF2C0FD8185D68B191
:1023200001202C7070BDD3F807013246214603F21C
:10233000071303442846BDE8704018474FF0FF30AC
:1023400070BD002801D000F045B8704710B500F00E
:1023500021F9BDE81040FFF7F4BF10B500F034F9E3
:10236000BDE81040FFF7EDBF10B500F00EF80169B1
:1023700019B100220261884701E08068804700F0BF
:10238000E5F8000010B500F0E1F870B500F028F8AD
:1023900004680546A4B92020FEF74FF8040011D0C8
:1023A000094900202C60C4E900010849A16020739C
:1023B000206160610649A06109B100F02DF9E0617A
:1023C000204670BD00F0C2F8000000008523000820
:1023D0000000000001491820ABBEFEE72600020005
:1023E00010B5FDF7D9FF3C3010BD02F01DBF000055
:1023F0002DE9F0411F46044603260168072A01F42F
:10240000006004DB08B116A505E016A503E008B1DD
:1024100015A500E015A521F010002060A069C01EE0
:10242000A0610FB1401EA0612046FEF773F84FB1C6
:10243000D4E9012138469047206A401C2062C01C24
:10244000206206E0206AFAE7D4E9012115F8010BC1
:102450009047761EF8D22046FEF772F8BDE8F0816C
:102460004E414E006E616E00494E4600696E660038
:102470002DE9F047814616468AB0334878440DC8A6
:102480008DE80D0030487844801C03AC0DC884E80A
:102490000D0041F69B300844372190FBF1F290FB90
:1024A000F1F5A5F1800501FB12041B3C02D5644245
:1024B000012000E00020DFF890A080460027FA44C9
:1024C000AAF1BE0A0DE0E00709D03246684607EBE4
:1024D00047010AEB810100F06AFB8DE807006410F8
:1024E0007F1C002CEFD1184F7F44AC3F18E0E80769
:1024F00014D007EB04100DF1180A90E80E008AE8DA
:102500000E00C068F04201D198190890324606A921
:1025100003A800F04CFB03AB83E807006D10641CBC
:10252000002DE4D132466946B8F1000F03A802D06D
:1025300000F029FB01E000F03AFBC9E90001C9F80D
:1025400008200AB0BDE8F087A861000010B500209F
:1025500000F088F8AFF30080BDE810400120FFF7DD
:1025600039BF70B505460C460A2000E06D1C00F02E
:1025700071F835B128780028F8D102E0641C00F029
:1025800069F814B120780028F8D1BDE870400A201D
:1025900000F060B810B5014602A0FFF7E2FF01208D
:1025A00010BD000053494752545245443A205265E9
:1025B0006469726563743A2063616E2774206F707A
:1025C000656E3A200000000010B5012805D00021FA
:1025D00003A0FFF7C6FF012010BD09A1F8E7000026
:1025E00053494752544D454D3A204F7574206F66FC
:1025F0002068656170206D656D6F72790000000064
:102600003A2048656170206D656D6F727920636F47
:10261000727275707465640010B58820FDF70DFF47
:10262000002801D00021017010BD802902D808B116
:10263000017809B100207047012100F8081B70479C
:1026400018B100F10802914201D00020704700212A
:102650000170704708B569468DF800000320ABBED5
:1026600008BD704710B500F005F8BDE81040FFF751
:1026700068BE000010B5002102A0FFF772FF012024
:1026800010BD0000534947414252543A2041626E06
:102690006F726D616C207465726D696E6174696FC3
:1026A0006E0000005FEA400C08BF91F0000F4FEA97
:1026B0008C234FEAC12243EA51514FEA1C5018BF04
:1026C00000F5F0404FEA300018BF41F000415FEAEA
:1026D0006C5C00F02980BCF1FF3F08BF40F08040F7
:1026E0007047130C06BF12044FF0100C4FF0000C93
:1026F000130E04BF12020CF1080C130F04BF1201D9
:102700000CF1040C930F04BF92000CF1020CD30FD8
:1027100004BF52000CF1010C11464FF00002A0F171
:102720001F00A0EB0C00704711F0004F08BF70476E
:1027300031F000413FF4D5AF0B0C06BF09044FF058
:10274000100C4FF0000C0B0E04BF09020CF1080C2A
:102750000B0F04BF09010CF1040C8B0F04BF89009F
:102760000CF1020CCB0F04BF49000CF1010CCCF1B1
:102770002003A0EB0C0022FA03F302FA0CF241EA68
:10278000030100F10100704720F07F4C80EA030054
:1027900023F07F47ACEB070303F57C5300F00040C8
:1027A00003F1FF032DE980494FEA154B09B44FEAC5
:1027B000144325EA0B4E24EA03480FF2042606EBE5
:1027C000132749083E785FEA320203FB0667C7F524
:1027D000000707FB06F64FEA54374FEAD64606F1E4
:1027E000020607FB066CCCF1005C4FEA1C472CEAA2
:1027F000074C07FB06F40CFB06F504EB15464FEA05
:10280000961634BF00204FF000404FEAD13706FB48
:1028100007FC4FEA1C4C0CFB0BF7D21B03FB0CF71D
:1028200061EB07010CFB0EF7B0EB074072EB1742B0
:102830000CFB08F734BFA2EB0742B2EB074261EB97
:1028400017414FEA0C444FEA910706FB07FC4FEA99
:102850001C4C0CFB0BF7B0EBC74072EB573203FB81
:102860000CF734BFA2EBC742B2EBC74261EB573162
:102870000CFB0EF7B0EBC70072EB57720CFB08F7BE
:1028800034BFA2EBC702B2EBC70261EB5771039FE3
:102890004FEA816141EA921104EBCC044FEAD1374F
:1028A0004FEA826206FB07FC42EA90124FEA806020
:1028B0004FEA1C4C0CFB0BF7D21B03FB0CF761EB34
:1028C00007010CFB0EF7B0EB074072EB17420CFB55
:1028D00008F734BFA2EB0742B2EB074261EB1741A6
:1028E0004FEA8C554FEA910704EB9C2406FB07FC4A
:1028F0004FEA1C4C0CFB0BF7B0EBC74072EB5732A6
:1029000003FB0CF734BFA2EBC742B2EBC74261EB4B
:1029100057310CFB0EF7B0EBC70072EB57720CFB94
:1029200008F734BFA2EBC702B2EBC70261EB5771E5
:1029300015EB4C254FEA816141EA92114FEA826220
:102940004FEAD13742EA901206FB07FC44F100043B
:102950004FEA80604FEA1C4C0CFB0BF7D21B03FBC9
:102960000CF761EB07010CFB0EF7B0EB074072EBC5
:1029700017420CFB08F734BFA2EB0742B2EB074249
:1029800061EB174115EB1C154FEA813141EA924189
:102990004FEA823242EA90424FEA80304FEA0C76A8
:1029A00044F1000448EA03434EEA0B484FF0000E9E
:1029B000B2EB080C71EB030724BF624639464EEBBD
:1029C0000E0E4FF0000B0018524149414BEB0B0B20
:1029D000B2EB080C71EB03077BF1000B24BF6246DE
:1029E00039464EEB0E0E4FF0000B00185241494194
:1029F0004BEB0B0BB2EB080C71EB03077BF1000BFD
:102A000024BF624639464EEB0E0E51EA020718BF4C
:102A100046F0010616EB0E7655F1000254F1000166
:102A200003D5BDE88901BDE80088BDE88901BDE89E
:102A30000048B619524141EB0101A3F1010370476F
:102A400080807F7E7D7C7B7A7978777676757473EB
:102A5000727171706F6E6E6D6C6C6B6A6A696868AA
:102A6000676666656464636362616160605F5F5E40
:102A70005E5D5D5C5C5B5B5A5A59595858575756B6
:102A8000565555555454535352525251515050501B
:102A90004F4F4F4E4E4D4D4D4C4C4C4B4B4B4A4A6D
:102AA0004A494949484848474747474646464545B1
:102AB00045444444444343434342424242414141EA
:102AC000002B26D4770021D01CB54FEA370703B47A
:102AD0004FF010004FF010014FF000000FBCBDE8A8
:102AE00010400BF1010BBBF1010F08BF5FEA1707A4
:102AF00022BF12F1010211F101014FF0004143F137
:102B0000000300F0004043EA00007047F9D3570883
:102B1000DAE746EA064613F1400F4FEA16461FDD94
:102B200013F1200FDFBF16430A46002120335B421A
:102B3000C8D0C3F1200746EA064602FA07F74FEA73
:102B4000164646EA0706C3F1200722FA03F201FA05
:102B500007F721FA03F14FF0000342EA0702B1E759
:102B600046EA020646EA06464FEA164646EA0106E5
:102B7000BCBF46EA0646360C4FF000034FF0000299
:102B80004FF000019EE72DE9C048934630B491E82C
:102B9000380007C831EA400C48BF34EA430C03D57B
:102BA000FFF7F2FDFFF78CFFF0BCBDE800882DE9D0
:102BB000C048934630B491E8380007C810F0804F01
:102BC00008BF13F0804F03D100F005F8FFF778FF3E
:102BD000F0BCBDE8008820F07F4780EA030023F0C6
:102BE0007F4C07EB0C03A3F57C5300F00040A3F1EE
:102BF000FE0392F0000F00F0B38095F0000F00F09C
:102C000077802DE901494FEA11404FEA144621EA45
:102C1000004800FB06FC24EA064708FB06F607FB13
:102C200008F800FB07F718EB06484CEB164C4FEA88
:102C3000124B18EB07484FEA15464CEB174022EAB7
:102C40000B4E0BFB06FC25EA06470EFB06F607FBC0
:102C50000EFE0BFB07F71EEB064E4CEB164C4FF02F
:102C600000061EEB074E4CEB174B18EB0B0840F120
:102C7000000018EB0E0B58EB000840F100008F1A13
:102C80004FF000013CBFC943661B14BFB5EB040CF9
:102C900000213CBFC943F61B4FEA17444EEA8E0E93
:102CA00027EA04454FEA1C4704FB07622CEA074C5D
:102CB00005FB07F70CFB05F604FB0CFC16EB0746BF
:102CC00042EB174216EB0C4642EB1C421BEB06068E
:102CD00058EB0202414146EA9E0601D5BDE8018952
:102CE000B619524141EB0101A3F10103BDE801898D
:102CF0004FEA14454FEA114724EA054621EA074CFA
:102D000005FB07F406FB07F70CFB06F105FB0CFCC3
:102D100011EB074144EB17444FEA124711EB0C410A
:102D200044EB1C4422EA074C05FB07F206FB07F7BD
:102D30000CFB06F605FB0CFC16EB074642EB1742B4
:102D400016EB0C4642EB1C456A1854F1000148BFD3
:102D50007047B619524141EB0101A3F101037047DD
:102D600095F0000F37D04FEA11424FEA144721EA9D
:102D7000024624EA074C02FB07F106FB07F70CFBAF
:102D800006F402FB0CFC14EB074441EB17414FEA3D
:102D9000154714EB0C4441EB1C4125EA074C02FBA0
:102DA00007F506FB07F70CFB06F602FB0CFC16EB1F
:102DB000074645EB174516EB0C4645EB1C4212192E
:102DC00051F1000148BF7047B619524141EB010172
:102DD000A3F1010370474FEA14454FEA114724EA73
:102DE000054621EA074C05FB07F106FB07F70CFB3C
:102DF00006F24FF0000605FB0CFC12EB074241EB1C
:102E0000174112EB0C4251EB1C4148BF704792181E
:102E100041EB0101A3F10103704700000000000035
:102E200010B502F005FFBDE8104002F083BD00219F
:102E3000C16070470021014802F028BC00640040D6
:102E400031B500F0F7F8044600F0F4F80099001BE3
:102E50008842F9D338BD00002DE9F84F714E4FF08C
:102E6000000CDFF8BC9163464FF001080F2706F114
:102E7000040E00BF0A6808FA03F42240A2427DD182
:102E80004D68A5F1805AAAF5881A4D4577D077DCB0
:102E9000032D08BF4FF0000C1BD00DDC002D6ED0B1
:102EA000012D08BFD1F80CC013D0022D04BFD1F8FA
:102EB0000CC00CF1080C0CE0112D04BFD1F80CC0B3
:102EC0000CF1040C05D0122D04BFD1F80CC00CF18C
:102ED0000C0CB2F5807F34BF0546051D4FEA830414
:102EE00028BF203CD5F800A007FA04FB2AEA0B0A09
:102EF0000CFA04F44AEA04042C604C6814F0805F75
:102F000064D0494CA56945F00105A561A46904F0A8
:102F10000104009423F0030404F1804505F5803595
:102F2000D5F808A04FEA83744FEA147407FA04FB3B
:102F30002AEA0B0AA0F1804BBBF5843B18D0A0F124
:102F4000804BBBF5863B08BF4FF0010B10D0A0F1C2
:102F5000804BBBF5883B08BF4FF0020B08D0A0F1B7
:102F6000804BBBF58A3B0CBF4FF0030B4FF0040BBB
:102F70000BFA04F444EA0A04AC6002E026E03EE006
:102F80002AE04C6814F4803F346814BF144394431F
:102F900034604C6814F4003FDEF8004014BF144362
:102FA0009443CEF800404C6814F4801F1F4C2568F1
:102FB00014BF1543954325604C6814F4001F1C4C46
:102FC000256814BF2A4325EA020222605B1C102BED
:102FD000FFF450AFBDE8F88FBAF5881F0FD007DCBB
:102FE000BAF5803F18BFBAF5801F7FF472AF06E0D4
:102FF000BAF5001F18BFBAF5041F7FF46AAFD1F805
:1030000008C0BCF1000F08BF4FF0040C3FF461AFE3
:10301000BCF1010F4FF0080C0CBF0461446158E78C
:10302000000011100004014000100240080401409B
:103030000C04014001480068704700007C0100203A
:1030400002480168491C0160704700007C010020B3
:10305000074810B5016841F010010160032000F03D
:1030600069F80F2000F006F800F062F8002010BDAB
:103070000020024038B52748C16941F00401C16110
:10308000C16901F004010091016941F0040101618D
:10309000016921F00401016100F0FAFE1F4C1E4895
:1030A000204920604FF0FF30E0601D480068B0FB11
:1030B000F1F0401E606000202061A060204600F01A
:1030C000B2FC0021204600F0D7FC0421204600F08D
:1030D000D3FC2068416A144A116001F57A7181635A
:1030E00012491E2002F062F84FF0E0214FF08040BC
:1030F000C1F800012068C16841F00101C160206889
:10310000C16841F00401C160204600F0A8FC002025
:1031100038BD000000100240000800400C180020DC
:103120008001002040420F0078010020DD7F000870
:1031300070470000074900F007000A684FF6FF03D8
:103140001A4042EA002040F0FD7040F080600860C4
:10315000704700000CED00E02DE9F0478A4F04466F
:1031600086B03868884600F0070040450AD23868C3
:1031700020F0070040EA08003860386800F00700D7
:10318000404573D12078814E10F0020F05D0706851
:10319000A16820F0F0000843706020784FF4003AF6
:1031A00010F0010F72D061680122012933D0022989
:1031B00045D0022090FAA0F3B3FA83F343F0200342
:1031C0005B090CBF736A336890FAA0F0B0FA80F024
:1031D00000F01F0002FA00F003427AD0706820F07D
:1031E000030008437060FFF725FF0546606841F261
:1031F000883901283BD00228706800F00C0046D0C6
:10320000002856D0FFF716FF401B48454DD906B0A1
:103210000320BDE8F0879AFAAAF0B0FA80F040F0F7
:103220002000400914BF3068706A9AFAAAF3B3FA12
:1032300083F303F01F039A4010424AD0CEE74FF0C9
:10324000007090FAA0F3B3FA83F343F020035B0914
:1032500014BF3368736A90FAA0F0B0FA80F000F0FF
:103260001F0002FA00F0034233D0B7E731E0706884
:1032700000F00C0004281CD0FFF7DCFE401B484582
:10328000C5D8706800F00C000428F5D111E00828BA
:103290000FD000BFFFF7CEFE401B4845B7D870687F
:1032A00000F00C000828F5D103E0706810F00C0F56
:1032B000A8D1386800F0070040450ED9386820F0E2
:1032C000070040EA08003860386800F00700404511
:1032D00003D006B00120BDE8F087207810F0040F7D
:1032E00005D07068E16820F4E060084370602078E1
:1032F00010F0080F06D07068216920F4605040EA91
:10330000C1007060224B0FCB8DE80F002148006890
:1033100004907168204801F00C02042A1FD0082A8A
:103320001DD14FF4701393FAA3F301F47012B3FAA2
:1033300083F3DA4011F4803F1DF8022004BF1748E0
:1033400050430CD071689AFAAAF301F40031B3FA31
:1033500083F3D94004AB595CB0FBF1F05043716882
:10336000F02292FAA2F201F0F001B2FA82F2D14018
:103370000B4A515CC8400B4908600F20FFF77AFEEA
:1033800006B00020BDE8F087002002400010024097
:103390007C3400088C34000800127A0000093D00DB
:1033A000E88400088001002008480949006849684D
:1033B0004FF4E06292FAA2F201F4E061B2FA82F212
:1033C000D140044A515CC840704700008001002091
:1033D00000100240F884000808480949006849685C
:1033E0004FF4605292FAA2F201F46051B2FA82F202
:1033F000D140044A515CC840704700008001002061
:1034000000100240F88400081CA386B00FCB8DE8A2
:103410000F001EA01E4B0068049059681D4801F063
:103420000C02042A04BF06B07047082A1CBF06B06D
:10343000704701F470124FF4701C9CFAACFCBCFA9B
:103440008CFC22FA0CF211F4803F1DF8022001BF1F
:103450001148504306B0704759684FF4003393FA4F
:10346000A3F301F40031B3FA83F3D94004AB595C00
:1034700006B0B0FBF1F050437047000002030405B2
:10348000060708090A0B0C0D0E0F101001020000B0
:103490000010024000127A0000093D002DE9F84FAB
:1034A00004460078FB4D10F0010F4FF0010626D0C6
:1034B0006868770400F00C00042808D0686800F001
:1034C0000C00082860D1686810F4803F5CD097FA3F
:1034D000A7F0B0FA80F040F02000400914BF28683F
:1034E000686A97FAA7F1B1FA81F101F01F0106FAB3
:1034F00001F1084203D06068002800F08E82207835
:103500004FF0000810F0020F4FF0020772D0686809
:103510004FF0F80A10F00C0F6DD0686800F00C0046
:10352000082804BF686810F4803F64D02069002830
:1035300096FAA6F0B0FA80F04FEA800000F18440DD
:1035400000F5840000F0E4800660FFF773FD81461B
:1035500097FAA7F0B0FA80F040F02000400914BFBD
:103560002868686A97FAA7F1B1FA81F101F01F01A2
:1035700006FA01F108427CD1FFF75CFDA0EB0900DF
:103580000228E5D900F0EBB96068B0F5803F04BFD0
:10359000286840F480300AD010B1B0F5A02F2BD0AD
:1035A000286820F480302860286820F48020286073
:1035B000606848B3FFF73EFD4FEA000897FAA7F0AE
:1035C000B0FA80F040F02000400914BF2868686A13
:1035D00097FAA7F1B1FA81F101F01F0106FA01F1A2
:1035E00008428CD1FFF726FDA0EB08006428E5D93E
:1035F00000F0B5B94EE028E0286840F4802028604B
:10360000286840F48030D2E7FFF714FD4FEA000845
:1036100097FAA7F0B0FA80F040F02000400914BFFC
:103620002868686A97FAA7F1B1FA81F101F01F01E1
:1036300006FA01F108423FF462AFFFF7FBFCA0EB92
:1036400008006428E4D900F08AB997FAA7F0B0FA24
:1036500080F040F02000400914BF2868686A97FA9B
:10366000A7F1B1FA81F101F01F0106FA01F1084258
:1036700000E004E01CBF2069012840F0CE812868EA
:103680009AFAAAF26169B2FA82F220F0F800914047
:1036900008432860207810F0080F5DD0A06900284A
:1036A00096FAA6F0B0FA80F04FEA800000F184406C
:1036B00000F5840051D0C0F88064FFF7BBFC814660
:1036C00097FAA7F0B0FA80F040F06000B6EB501F18
:1036D00008BF28680AD097FAA7F0B0FA80F040F047
:1036E0006000B7EB501F0CBF286A686A97FAA7F111
:1036F000B1FA81F101F01F0106FA01F1084228D167
:10370000FFF798FCA0EB09000228D9D900F027B9EF
:10371000C0F80080FFF78EFC4FEA000997FAA7F087
:10372000B0FA80F040F02000400914BF2868686AB1
:1037300097FAA7F1B1FA81F101F01F0106FA01F140
:103740000842A7D0FFF776FCA0EB09000228E5D9D4
:1037500005E10120FFF774FB2BE0C0F88084FFF740
:1037600069FC814697FAA7F0B0FA80F040F060005B
:10377000B6EB501F08BF28680AD097FAA7F0B0FA36
:1037800080F040F06000B7EB501F0CBF286A686AF9
:1037900097FAA7F1B1FA81F101F01F0106FA01F1E0
:1037A000084206D0FFF746FCA0EB09000228D9D951
:1037B000D5E0207810F0040F70D0E86940F0805018
:1037C000E861E869DFF8D0A000F080500090DAF8F6
:1037D000000040F48070CAF80000FFF72BFC81461F
:1037E000DAF8000010F4807F0BD100BFFFF722FC55
:1037F000A0EB0900642843D8DAF8000010F4807FB9
:10380000F4D0E068012804BF286A40F0010009D024
:1038100008B1052835D0286A20F001002862286AFE
:1038200020F004002862E06841F2883988B3FFF78D
:1038300001FC824697FAA7F0B0FA80F040F0400011
:10384000B6EB501F08BF28680AD097FAA7F0B0FA65
:1038500080F040F04000B7EB501F0CBF286A686A48
:1038600097FAA7F1B1FA81F101F01F0106FA01F10F
:1038700008423ED1FFF7DEFBA0EB0A004845D9D94C
:103880006DE0286A40F004002862286A40F00100D8
:10389000C8E704E0001002400070004029E0FFF794
:1038A000C9FB824697FAA7F0B0FA80F040F04000DA
:1038B000B6EB501F08BF28680AD097FAA7F0B0FAF5
:1038C00080F040F04000B7EB501F0CBF286A686AD8
:1038D00097FAA7F1B1FA81F101F01F0106FA01F19F
:1038E000084206D0FFF7A6FBA0EB0A004845D9D94D
:1038F00035E0E06900287BD0696801F00C010829F7
:1039000077D04FF08079022899FAA9F0B0FA80F0C8
:103910004FEA800000F1844000F584004FF000770A
:10392000C0F800801ED0FFF785FB044697FAA7F089
:10393000B0FA80F040F02000400914BF2868686A9F
:1039400097FAA7F1B1FA81F101F01F0106FA01F12E
:10395000084265D0FFF76EFB001B0228E6D9032062
:10396000BDE8F88FFFF766FB4FEA000897FAA7F06B
:10397000B0FA80F040F02000400914BF2968696A5D
:1039800097FAA7F0B0FA80F000F01F0006FA00F0F6
:10399000014206D0FFF74EFBA0EB08000228E5D954
:1039A000DDE7206AB0F5803F05D16868A16820F4A2
:1039B000003008436860D4E908010843696821F4CD
:1039C00074110843686099FAA9F0B0FA80F0800099
:1039D00000F1844000F584000660FFF72BFB0446ED
:1039E00097FAA7F0B0FA80F040F02000400901E01B
:1039F00016E012E014BF2868686A97FAA7F1B1FAD6
:103A000081F101F01F0106FA01F1084208D1FFF728
:103A100011FB001B0228E3D9A1E70120BDE8F88FC4
:103A20000020BDE8F88F002804BF0120704710B5C2
:103A3000044690F8390028B9002084F83800204660
:103A400000F00CF8022084F83900211D206800F0F5
:103A50008FFA012084F83900002010BD7047022140
:103A600080F8391001680A6842F001020A600121F9
:103A700080F83910002070470268012303FA01F131
:103A8000136A8B431362136A194311620168A1F12F
:103A90008042B2F5963203D14A6C42F400424A6445
:103AA0000068016841F00101016000207047006872
:103AB00081B0016811F0010F04BF016811F0020F1D
:103AC00003D04068009001B07047016811F0040F06
:103AD00004BF016811F0080FF3D101B0704738B589
:103AE00001680446086810F0010FC86800F480708F
:103AF00018BF002803D0E06B40F00100E0630868C5
:103B0000C0F340024869002A00F0010018BF0028F5
:103B100003D0E26B42F00402E2630A68C2F380025F
:103B2000002A18BF002803D0E26B42F00202E263D1
:103B30000A68C2F3C002002A18BF002803D0E06B55
:103B400040F00800E0630868C0F34012C86801252F
:103B500000F02000002A18BF00284AD094F839202D
:103B60002046222A18BF322A43D18268B2F5805FEC
:103B70000FD00269E2B1496801F07F02816A4B1CF3
:103B800083620A70C18D491E0904090CC18515D0D4
:103B90002FE00369826A4968002B14BFC9B2C1F3E0
:103BA00008011180816A14BF491C891C8162E9E700
:103BB0004A68816A4B1C83620A70E3E70168CA683D
:103BC00022F02002CA6090F83910322904BF122175
:103BD00080F839100BD00168CA6822F48072CA607C
:103BE00001684A6922F001024A6180F8395000F008
:103BF00092F820680168C268C1F3C01102F0800227
:103C0000002918BF002A2DD094F83910122918BFA6
:103C1000322927D1A168B1F5805F0CD0206A421CFF
:103C20002262017820684160E08C401E0104090C8A
:103C3000E18417D10CE0216A0988C1F308014160D1
:103C400020690028206A14BF411C811C2162EBE717
:103C50002068C16821F08001C1602068C16841F01E
:103C60004001C16021680868CA68C0F3801002F092
:103C70004002002818BF002A0FD0CA68204622F050
:103C80004002CA6094F83910322906BF222180F818
:103C9000391080F8395000F03FF8E06B002808BF79
:103CA00038BD206801684068009084F8395020468B
:103CB000FFF7FDFE38BD002804BF0120704770B536
:103CC000044690F83900002520B984F83850204681
:103CD00000F020F8022084F839002068C16821F43F
:103CE0000051C160204600F079F92068016921F493
:103CF000904101612068416921F02A0141612068F9
:103D0000C16841F40051C160E563012084F83900C5
:103D1000002070BD704770470068016811F0400FC7
:103D20001CBF6FF04001016070472DE9F04790B073
:103D300001264FF4E01A4FF4A0200024CDF824A06F
:103D40000096CDE901040225EF03CDE90757684647
:103D5000FFF7A4FB4FF00F084FF4806970B9CDF85E
:103D60002880CDE90B54CDE90D9402210AA8FFF774
:103D7000F3F9002804BF10B0BDE8F0870096CDE944
:103D80000174CDF824A0CDE907576846FFF786FBFC
:103D900070B9CDF82880CDE90B54CDE90D940221FE
:103DA0000AA8FFF7D9F9002804BF10B0BDE8F087D2
:103DB0000320CDE900041020CDE904604FF4601029
:103DC000CDE9084007956846FFF768FB70B9CDF864
:103DD0002880CDE90B54CDE90D9402210AA8FFF704
:103DE000BBF9002804BF10B0BDE8F087FEE7000073
:103DF00038B51949002450B1012811D0022818D033
:103E000003281FD015A001F058FD204638BD1C4CDA
:103E1000886940F004008861886900F0040019E0B6
:103E2000184C886940F008008861886900F0080033
:103E300010E0154C886940F010008861886900F036
:103E4000100007E0114C886940F020008861886903
:103E500000F020000090D8E70010024050696E6D1D
:103E60006170206572726F723A2077726F6E672090
:103E7000706F7274206E756D6265722E00000000A6
:103E800000080140000C01400010014000140140F6
:103E900016494868164A10F00C03164818BF042B40
:103EA00001D0082B01D0026015E04A684B6802F48B
:103EB00070124FF0020C13F4803F0CEB924203D0CF
:103EC0004B6813F4003F03D00B4B5A43026002E0EF
:103ED000074B5A4302604968084AC1F30311515C19
:103EE000026822FA01F101607047000000100240F0
:103EF00000127A008001002000093D00E8840008DB
:103F000010B5164C206840F001002060606814492C
:103F100008406060206820F4102020F0807020604D
:103F2000206820F480202060606820F4FE0060603B
:103F30004FF41F00A0600B49E00308600B490A48DA
:103F40000860FFF785F8FFF7F0FE206940F00400F5
:103F50002061206920F00400206110BD00100240A3
:103F60000000FFF808ED00E000127A008001002058
:103F700030B40268164BDFF85CC0174C984218BF8B
:103F8000B0F1804F03D0604518BFA04203D14D6807
:103F900022F070022A43984218BFB0F1804F03D03C
:103FA000604518BFA04205D1D1F80CC022F4407280
:103FB0004CEA020202608A68C2620A68826298421F
:103FC00004BF096901630121416130BC70470000F1
:103FD000002C014000040040000800402DE9F041A1
:103FE000044600680169E26821F44051114301610F
:103FF0002169A0680843616908432168CA6822F4FE
:10400000037222F4A0521043C86020684169A2697B
:1040100021F440711143416120685C4D3226A0F1CA
:104020008041B1F59C3158D0FFF7BEF900EBC001DB
:1040300001EB001061688900B0FBF1F7FFF7B4F9FC
:1040400000EBC00101EB001061688900B0FBF1F0EA
:10405000A5FB001040096FF01801484307EB8000F2
:1040600006EB0010A5FB0010400900F0F007FFF779
:104070009BF900EBC00101EB001061688900B0FB07
:10408000F1F0A5FB0010400907EB0017FFF78CF9D2
:1040900000EBC00101EB001061688900B0FBF1F892
:1040A000FFF782F900EBC00101EB001061688900A5
:1040B000B0FBF1F0A5FB001040096FF01801484378
:1040C00008EB800006EB0010A5FB00102168C0F390
:1040D000431038448860BDE8F081FFF77DF900EBBC
:1040E000C00101EB001061688900B0FBF1F7FFF738
:1040F00073F900EBC00101EB001061688900B0FBAF
:10410000F1F0A5FB001040096FF01801484307EBE0
:10411000800006EB0010A5FB0010400900F0F0073E
:10412000FFF75AF900EBC00101EB0010616889004C
:10413000B0FBF1F0A5FB0010400907EB0017FFF7FB
:104140004BF900EBC00101EB001061688900B0FB86
:10415000F1F8FFF741F900EBC00101EB00106168D5
:104160008900B0FBF1F0A5FB001040096FF01801C9
:10417000484308EB800006EB0010A5FB0010216807
:10418000C0F3431038448860BDE8F0811F85EB51CF
:104190000021014801F07ABA006400400021014882
:1041A00001F074BA0064004082B000263B4FB14673
:1041B000761C32463AA13E48FCF796F93C480FF28D
:1041C000F40B01908DF8009038680DF1040A4FF05F
:1041D00004086D46002804BF02208DF8000058D066
:1041E0004FF0FF31354800F04EFA396808688860B2
:1041F00000281CBF8468002C0ED058466168FCF76C
:1042000009FE78B13968886830B140688860002854
:104210001CBF8468002CF0D1002D18BF052035D0BC
:10422000287033E0002CF7D0206920B1002D18BF92
:1042300007202BD0F4E7E068404504D0002D1CBFD8
:104240000820287022E0C4E902A821680868886074
:1042500000281CBF8068002818D02169491C2161F2
:1042600042681AB161680068904705E00068D4E9C7
:10427000011203681B6898472168886830B140685C
:10428000886000281CBF80680028E6D10B4800F039
:10429000FDF9962000F050FA8AE70000F0000020B7
:1042A0005461736B32203D2025640D0A000000002C
:1042B000B80100202F6C6F6700000000B8020020DA
:1042C0004C3003F071B910B50C464C3003F0A4FB30
:1042D000204610BD10B500EB011000F19004D0F89D
:1042E0009C0028B940F28F220449054801F01CFCCB
:1042F000E06801682046BDE810400847E9860008EC
:10430000E486000870B504464C3003F071FA0546A7
:1043100000F47C51606C002818BF002904D004F11F
:104320003802036810469847626B05F0FC01002ACA
:1043300014BF002970BD04F128001268BDE8704068
:10434000104770472DE9F041054600680F461646B4
:1043500001682846884701F01DFA05EB0610F96848
:1043600000F19004A1B1E168204600291CBF8968D2
:104370008847F86818B14268394620469047F8687F
:10438000E0600122314605F14C0003F0DFFA0FE056
:10439000E1680B4F204600291CBF896888470948FF
:1043A0002760E0600022314605F14C0003F0CEFAB0
:1043B00001F046FA286841682846BDE8F041084700
:1043C00085460008D8860008704770B50446006826
:1043D00001682046884704F14C0003F037FB05468E
:1043E0002068416820468847284670BD70B504465D
:1043F000006801682046884704F14C0003F032FB56
:1044000005462068416820468847284670BD000060
:104410002DE9F047884604462E492D481E4617468A
:104420002060D1E902230021A260E3602A4A2261D0
:1044300048F207026261E161A46104F108012162AE
:1044400026496162BFF36F8FBFF34F8F0021616315
:10445000616484F8481084F84910442104F14C0048
:10446000FCF7B0FC022310221D4904F1900000F07B
:10447000B9FE0662DFF86CA0A0F19005002600BF2F
:1044800005EB061000F19004DFF85C90E16820462F
:1044900000291CBF89688847761CC4F80CA0C4F8A2
:1044A0000090022EECD33A46414605F14C0003F051
:1044B00091F805F14C00D5F8B01003F03FF82A460A
:1044C0000A4905F14C0003F087F92846BDE8F0875A
:1044D0005C8600080085000801A090E88F83000832
:1044E0002F2E0008D886000885460008D54200080F
:1044F000007B704770B506460D46204803F002FF6A
:104500004FF0FF3100F0BFF81D480468002C2ED09A
:10451000A06848B32A463146FCF7ADFB20BBA06833
:10452000FCF78AFBA8421FD1144D286870B9154EBC
:104530004FF0FF31306801F059FC286818B9281D88
:1045400000F0A8F82860306801F040FC2868291DB8
:10455000884204D059220C490C4801F0E5FA286839
:1045600000F094F8204670BD6468002CD0D1034858
:1045700003F0C8FE00F08AF8002070BD4818002043
:104580008401002048010020A886000894860008C5
:1045900010B50446406828B1FFF7AAFF012804BF00
:1045A000606810BD002010BD10B50446406810B111
:1045B000FFF79EFF08B1002010BD6068002818BFFB
:1045C000001F10BD4068002818BF0120704710B5BB
:1045D0004068002808BF10BDFFF78AFF00280CBF05
:1045E0000120002010BD0068704710B5044600206F
:1045F0002060606008782F280DD1487858B14B1C96
:1046000000212360226810782F2806D038B1501C72
:10461000491C2060F6E7204610BD501C206018465B
:10462000FFF768FF6060204610BD70B50446006863
:104630000168204688472046FFF742FE054620686D
:10464000416820468847284670BD704770B50446CB
:1046500000680D4602682046904729462046FFF72D
:1046600032FE05462068416820468847284670BDCE
:104670007047000010B5FFF7CBFE0149016010BD87
:10468000748600087047006801F0B0BB006801F054
:104690009DBB000010B504460020A060E0602061D2
:1046A000606104F108006060201D01F055FB20608E
:1046B000002804BF02A001F000F9204610BD000050
:1046C0004572726F7220696E697469616C697A698A
:1046D0006E6720746865206D75746578206F626AF6
:1046E0006563740A0000000010B50446006801F01C
:1046F0005DFB204610BD406901F0DEBB406901F062
:10470000EBBB4FF0000CC0F814C0002B0CBF4FF0F7
:10471000010C4FF0000C80F82CC08183C0E9092304
:10472000704710B50B4604461146184601F0F8FBD9
:10473000A260C4E9000110BD01F082BA70B50E4656
:1047400004464FF0FF314030FFF79DFF606928B10C
:1047500004F14000FFF79AFF802070BD2E48A06151
:10476000A06A58B9606A20F0030000F0F3FCA06270
:1047700020B9562229A12FA001F0D6F9606A03289A
:1047800019D9820817D00021334B12F0010002D052
:10479000A16A0B60012190420DD200BFD4F828C05D
:1047A000801C4CF82130D4F828C0491C4CF821302A
:1047B000491C9042F2D3251DB5420ED0E968284627
:1047C00000291CBF896888473DB1F06818B142686C
:1047D000314628469047F068E860214604F1180009
:1047E00001F0AEFB606128B104F14000FFF74EFF1D
:1047F000002070BD94F82C0020B1A06A00F0A2FC4B
:104800000020A06204F14000FFF740FF04F13000F7
:1048100000F046F8812070BD5D4800086D62656457
:104820002D6F732F72746F732F5468726561642ECD
:10483000637070005F7468726561645F6465662EA2
:10484000737461636B5F706F696E74657220213D74
:10485000204E554C4C000000A52E5AE270B504467F
:10486000051D006928B940F28F220B490B4801F061
:104870005BF9E8680168284688474FF0FF3104F18A
:104880004000FFF700FF0020606104F13000BDE848
:10489000704000F005B80000E9860008E4860008D2
:1048A000006801F0E1BA10B504460020A060E060A5
:1048B00004F108006060201D01F0A8FA2060204685
:1048C00010BD00002DE9F843884607465FEA02095B
:1048D0004FF0000418BF89F80040384E3068E0B14E
:1048E0004FF0FF313648FFF7CEFE31680868886028
:1048F00000281CBF8568002D24D038466968FCF765
:1049000089FA90B131688868E0B140688860002811
:104910001CBF8568002DF0D114E0B9F1000F1CBF59
:10492000022010700020BDE8F8835DB1B9F1000FDE
:104930001CBF042089F800002148FFF7A7FE284685
:10494000BDE8F8831420FBF778FD002808BF009429
:1049500020D00546142000F001FC30B1C460046092
:1049600044604FF0FF31846001612860C5E9017443
:10497000C5E9038436680C20FBF75FFD8560F168AC
:10498000B1B171684860C0E900147060F068401C03
:10499000F060D1E7002CFDD0B9F1000F1CBF03205F
:1049A00089F800000648FFF771FE0020BDE8F88393
:1049B0003060706004604460E8E70000F0000020B0
:1049C000B80200202DE9F0478846174681461D00B1
:1049D0004FF0000118BF2970314E306808B34FF016
:1049E000FF313048FFF74FFE3168086888600028C3
:1049F0001CBF8468002C0ED048466168FCF70AFA98
:104A0000A8B13068816831B14B688360002B1CBF4E
:104A10009C68002CF0D1002D18BF05203BD02870D9
:104A200039E0002D1CBF02201870BDE8F087002C73
:104A3000F1D0206920B1002D18BF07202BD0EEE760
:104A4000E068B84204D0002D1CBF0820287022E086
:104A5000C4E9028721680868886000281CBF806854
:104A6000002818D02169491C216142681AB1616887
:104A70000068904705E00068D4E9011203681B68EC
:104A800098472168886830B14068886000281CBF5A
:104A900080680028E6D1BDE8F0470248FFF7F6BD80
:104AA000F0000020B802002070B50446D0F8F400F1
:104AB000FFF78BFC00281ABF0025012670BD00BF40
:104AC000D4F8F400FFF7B1FDC1B2607918B1A06865
:104AD000401CA06070BDA560206E421C2266017063
:104AE000D4E91720904228BFA06D2066626E9042E4
:104AF00008BF6671207C884204D1012104F19C002A
:104B0000FFF7FCFDD4F8F400FFF75FFC0028D7D1D5
:104B100070BD30B5044685B0D0F8F400FFF766FCF0
:104B200000281CBFD4E90D1081421BD00578D4F8B1
:104B3000F4002946FFF78AFDA06B401CA063216B9F
:104B4000884228BFE06AA063D4E93E014554E16B86
:104B5000D4F8FC008842B4BF401C0020C4F8FC001C
:104B600005B030BD00202071039069460122D4F8C1
:104B7000F400FFF7E7FB0399684600291CBF89682A
:104B8000884705B030BD00002DE9F04114460A46C3
:104B900005461FA11046FCF73DF9002818BFBDE8E7
:104BA000F081002C08BFBDE8F0812846216800F0A4
:104BB00037F8194D16A62868002808BFBDE8F0810F
:104BC0004FF0FF311548FFF75EFD296800270868A0
:104BD000886000281CBF8468002C0ED030466168B5
:104BE000FCF718F950B12968886830B140688860CE
:104BF00000281CBF8468002CF0D13C4620690028A6
:104C00001CBF401E20610548BDE8F041FFF73EBDD6
:104C10002F6C6F6700000000F0000020B802002039
:104C200070B50E4604468CB04FF0FF311430FFF7DC
:104C30002AFDD4E90D10814238BF451A04D3226BF6
:104C4000511AE26A801A0D183046FBF7F5FFA842A8
:104C500082BF6FF001000CB070BD00253046FBF73D
:104C6000EBFFB0F1FF3F11D0606B715D421C6263DE
:104C70000170D4E90C10884228BFE06A60633046B6
:104C80006D1CFBF7D9FF401CA842EDD82079002805
:104C90005AD101262671A079002500283FD007951A
:104CA00004A90122D4F8F400FFF74CFB079904A8EB
:104CB00000291CBF89688847D4F8F400FFF796FBE9
:104CC00000281CBFD4E90D1081421AD00578D4F811
:104CD000F4002946FFF7BAFCA06B401CA063216BCF
:104CE000884228BFE06AA063D4E93E014554E16BE5
:104CF000D4F8FC008842B4BF401C0020C4F8FC007B
:104D00000DE025710B9508A90122D4F8F400FFF7F6
:104D100019FB0B9908A800291CBF89688847A67150
:104D200001220D49D1E90401CDE900010B48694692
:104D3000CDE90240D4F8F400FFF704FB039968467C
:104D400000291CBF8968884704F11400FFF79EFC06
:104D50000CB0002070BD0000CC830008CC86000899
:104D60009EB0054602A85A4F4FF0020B4FF00008C4
:104D7000CDF870004FF0FF32012118A8FFF7D1FCE9
:104D800018980828F6D1199810F0010FF2D00121D7
:104D900005F19C00FFF7AFFC002602AC4FF0400984
:104DA00095F810A0711E05F14000FFF76CFCD5E9E5
:104DB0001801884204BF687900281BD0696E481C1E
:104DC0006866EA6D0978904228BFA86D68662A6E09
:104DD000824218BF85F8058051450BD0761C04F837
:104DE000011B4E4506D0D5E91801884204BF6879F9
:104DF0000028E3D105F14000FFF748FC8DF86C80F6
:104E0000386834A40DF1700A4FF004091BAE002875
:104E100008BF8DF86CB0ADD04FF0FF312F48FFF7D1
:104E200032FC009439680868886000281CBF8468D8
:104E3000002C0ED061680098FBF7ECFF78B1396860
:104E4000886830B14068886000281CBF8468002CE6
:104E5000F0D1002E18BF052035D0307033E0002C83
:104E6000F7D0206920B1002E18BF07202BD0F4E71F
:104E7000E068484504D0002E1CBF0820307022E0B6
:104E8000C4E902A920680168816000291CBF886804
:104E9000002818D02169491C216142681AB1616853
:104EA0000068904705E00068D4E9011203681B68B8
:104EB00098472168886830B14068886000281CBF26
:104EC00080680028E6D10548FFF7E0FB52E70000C4
:104ED000F00000202F636D6400000000B802002085
:104EE0002DE9FF4F87B08D49DDE9147ADDE9168998
:104EF0001D4640F8141BFFF7CDFB2C30FFF7CAFB13
:104F00002C30FFF7C7FB1830FFF7C4FB844940F88B
:104F1000181F002606614FF4006B31463030FFF752
:104F2000C2FC1030FFF7B6FBA0F1400433465A46EE
:104F300019462046FFF7E5FBB4209C3C00F00EF933
:104F400020B1DDE908125346FFF794FBC4F8F400E2
:104F50002846FBF772FAE06248B128442063E06A11
:104F60006063C4E90E052946E06AFBF709FF28469D
:104F7000FBF763FAC4F8F80018B123222946FBF7BF
:104F8000F7FE3846C4F8FC60FBF757FAA06548B155
:104F90003844E065A06D2066C4E919073946A06D64
:104FA000FBF7EEFEB8F1000F0AD04046FBF744FED7
:104FB000401CFBF742FA00281CBF4146FBF718FED5
:104FC0000022042157A0FFF77DFC0022042157A0F6
:104FD000FFF778FC0FF24C18564F8DF810600DF16A
:104FE000100A3868002804BF02208DF8100045D050
:104FF0004FF0FF315048FFF746FB3968086888607A
:1050000000281CBF8568002D0ED040466968FBF75C
:1050100001FF98B13868816831B149688160002921
:105020001CBF8D68002DF0D1BAF1000F1CBF052008
:105030008AF800004048FFF729FB1FE0002DF3D05D
:105040000820FBF7FAF9070008BF059601D1002EEA
:10505000FDD0C7E900462D680C20FBF7EEF987600C
:10506000E968002955D069684860C0E900166860A1
:10507000E868401CE8603048FFF708FB0396694683
:105080000122D4F8F400FFF75DF90399684600297E
:105090001CBF89688847694603960022D4F8F4004B
:1050A000FFF750F90399684600291CBF89688847B3
:1050B00084F8109026716671A660A6711F4E204D6F
:1050C0000022D6E900018DE833006946D4F8F400E7
:1050D000FFF738F90399684600291CBF896888479B
:1050E000D6E902018DE83300694604F19C00FFF720
:1050F00025FB0399684600291CBF896888474FF63D
:10510000FF7104F19C00FFF7F6FA0BB02046BDE8F2
:10511000F08F2860686006604660A9E7488600084E
:105120008C8600082F6C6F67000000002F636D6491
:1051300000000000F0000020B8020020CC8300082E
:10514000CC86000810B500F001F810BD10B5FBF7D3
:10515000AFF910BD10B500F001F810BD10B5040096
:1051600007D1012405E0FBF7B5FE006800B904484B
:1051700080472046FBF761F90028F4D010BD0000FD
:105180002D170008490050EAC12018BF04204A0D1D
:1051900018BF40F0010040F2FF72B2EB515F08BF50
:1051A00040F00200012808BF052070472DE9F041BA
:1051B0000A4D0E4607462C682868B0F1006F07D1EB
:1051C0002146AC06EC222046FBF7A0FD20462860D5
:1051D00004EB87000664BDE8F081000008ED00E004
:1051E000012070472DE9F0411C4617460E0080460D
:1051F00007D0054602E02846B0473D442046641EDD
:10520000F9D24046BDE8F08110B50448FFF742FAF4
:10521000BDE81040024A0349FFF7E2BFB802002090
:1052200000000008E9460008074810B5007848B1BA
:1052300002F076F930B1054900EB400001EB401077
:10524000603810BD024810BDF5000020200B002082
:10525000C018002002486A4620F00700704700008E
:10526000231A002012F0004F1FBF22F00042D21D6F
:1052700022F00703102202BFD21C22F003030C22EB
:105280001BB103EB020C8C4501D90120704702448D
:1052900001448360C0E90021C91AD01888429CBF2C
:1052A00010600246F9D900201060704730380A2893
:1052B00001D201207047002070470000054909789D
:1052C000002908BF704700684FF6FF71DFF808C07B
:1052D00000DF7047F5000020A16C000870B5094C94
:1052E0000546E0680C2824BF07A000F0E6FA0D4848
:1052F000E16800EB0110491C2860E16001F056FCF8
:10530000012070BD400100204E6F7420656E6F75E6
:105310006768207374646C6962206D757465786564
:10532000730A0000C00D002004490978002908BF55
:1053300070470068DFF808C000DF7047F500002004
:10534000BD6B000810B500F074FC10BD0328BCBF95
:10535000002070470749002201EB800151F80C0C36
:1053600041F80C2C002804BF4FF0FF307047016853
:1053700049680847641800200328BCBF0020704714
:10538000064901EB800050F80C0C002804BF4FF0D8
:10539000FF307047016889690847000064180020E1
:1053A0000328BCBF01207047064901EB800050F87C
:1053B0000C0C002804BF4FF0FF3070470168C9682B
:1053C00008470000641800202DE9F0470F4682B01E
:1053D00082467F49FBF71EFD7E4C70B17E495046E8
:1053E000FBF718FDC8B17D495046FBF713FD20B30C
:1053F0007B4C7C4D206880B33EE0206848B9032296
:105400000221794802F0E6F84FF41651764802F08E
:1054100095F802B00020BDE8F087206848B9032263
:105420000221714802F0D6F84FF416516E4802F08E
:1054300085F802B00120BDE8F087206848B9032252
:105440000221694802F0C6F84FF41651664802F08E
:1054500075F802B00220BDE8F087FFE74FF0FF319A
:10546000286800F0C3FC206818B9201DFFF712F966
:105470002060286800F0AAFC206804F1040948456F
:1054800004D0592259495A4800F04EFB4FF0FF31E1
:105490002068FFF7F8F8DFF85C81002458F8240052
:1054A00018B1641C102CF9D301E0102C1CD34C4C07
:1054B000206868B94FF0FF31286800F097FC206839
:1054C00018B9201DFFF7E6F82060286800F07EFC80
:1054D0002068484504D059224449454800F024FB3F
:1054E0002068FFF7D3F863E03D4E4FF0FF3048F8F7
:1054F0002400306868B94FF0FF31286800F076FC6E
:10550000306818B9301DFFF7C5F83060286800F022
:105510005DFC3068484504D059223449344800F0D5
:1055200003FB3068FFF7B2F89AF8000000263A282B
:1055300010D051466846FFF758F86846FFF742F822
:10554000A0B36846FFF743F80028684609D0FFF784
:105550002BF823E06A4628A15046FBF775F900981E
:105560001CE0FFF715F808B317F0020F18BF02256B
:1055700023D000BF17F00C0F18BF45F4007517F0CB
:10558000040F18BF45F4806507466846FFF72BF8FF
:10559000014638682A4683683846984700281FBF66
:1055A00048F82400E01C02B0BDE8F08748F8246009
:1055B00002B04FF0FF30BDE8F08717F0040F18BFBE
:1055C0000125D7D117F0080F14BF09250025D1E711
:1055D0002C85000860010020338500083B85000809
:1055E000A4180020480100208C170020A88600087D
:1055F00094860008641800203A2570000328BCBF78
:1056000000207047064A02EB800050F80C0C00287E
:1056100004BF4FF0FF30704702681369002218473B
:105620006418002070B514460E46032818DA144892
:10563000006848B903220221124801F0CBFF4FF461
:105640001651104801F07AFF0025002C06D9715D33
:105650000C4802F0E1F96D1CAC42F8D820460DE090
:10566000094901EB800050F80C0C002804BF4FF0F2
:10567000FF3070BD01680B6831469847201A70BD35
:10568000600100208C170020641800202DE9F047ED
:10569000384C0D4620604169374E11F0010F3746F6
:1056A0001CD08168354A32EA01010CBF012100217A
:1056B0008268334B33EA02020CBF01220022806869
:1056C000304B33EA00000CBF012000201143084397
:1056D00004D07A6856F82500012190472068C168F7
:1056E000406911F0030FC0F3400018BF002804D038
:1056F0007A6856F825000021904720688169426940
:10570000C1F340014069C2F34022C0F3C030002918
:105710001CBF002A002804D07A6856F8250005210D
:10572000904720688169C1F3800841694069C1F3ED
:105730008029C0F3C030B8F1000F1CBFB9F1000FD1
:10574000002804D07A6856F8250007219047206881
:105750004069B8F1000FC0F3C0301ABFB9F1000FB3
:105760000028BDE8F08756F825007A68BDE8F047C4
:105770000221104780160020580100200300000479
:105780000003000800000310EFF31080012121EA5C
:105790000000704770B5EFF31080012121EA00008E
:1057A00080F0010572B60D4C6068002808BF2570B6
:1057B0006068B0F1FF3F04D1332209A111A000F0CD
:1057C000B3F9606828B125B9372205A117A000F008
:1057D000ABF96068401C606070BD00009001002063
:1057E0006D6265642D6F732F706C6174666F726D7E
:1057F0002F6D6265645F637269746963616C2E63A7
:1058000000000000696E746572727570745F656E79
:1058100061626C655F636F756E746572203C2055C4
:10582000494E5433325F4D4158000000696E746533
:105830007272757074735F64697361626C65640021
:1058400010B50E4C6068002808BF10BDEFF3108043
:10585000012121EA000090F0010F04D1482208A1A3
:1058600010A000F061F96068401E60606068002868
:1058700006BF2078002810BD62B610BD9001002040
:105880006D6265642D6F732F706C6174666F726DDD
:105890002F6D6265645F637269746963616C2E6306
:1058A00000000000696E74657272757074735F64D5
:1058B000697361626C65640070470FB410B503A929
:1058C000029800F08FF9012000F000F80446054826
:1058D000FBF7C9F80448FBF7C6F8002C18BF00F026
:1058E0004DF9FEE774190020C81900200246084847
:1058F00010B500EB810050F8040C002808BF10BD63
:10590000114601F053FABDE8104001F03FBA000023
:10591000E407002010B501F049FABDE8104001F09D
:1059200035BA10B5002101F041FABDE8104001F090
:105930002DBA0000A4B0DFF89C810027D8F8000041
:1059400090B9791E6448FEF79EFE1420FFF706FC0E
:1059500028B1C76007604760791E87600161C8F899
:1059600000005D48FEF792FE4FF48070FFF7F6FBF3
:1059700060B15AA14FF4E1324FF40073CDE9003227
:10598000CDE902170A220921FFF7AAFA57491BABF2
:105990000422086056A0209020A959A0FFF712F811
:1059A00059490026049110A84FF400640897314625
:1059B000FEF779FF1030FEF76DFE3B462246194692
:1059C0004038FEF79EFE51481C9051481F901CA97C
:1059D00004A8FEF7B3FE1F991CA800291CBF896804
:1059E0008847761C32464BA14E48FAF77DFD4D485C
:1059F0000FF20C1B20908DF86C70D8F800000DF1A0
:105A0000800A4FF004091BAD002804BF02208DF866
:105A10006C005AD04FF0FF312F48FEF734FED8F813
:105A200000000168816000291CBF8C68002C0FD029
:105A300058466168FBF7EEF980B1D8F80010886825
:105A400030B14068886000281CBF8468002CEFD10A
:105A5000002D18BF052035D0287033E0002CF7D07A
:105A6000206920B1002D18BF07202BD0F4E7E06893
:105A7000484504D0002D1CBF0820287022E0C4E94E
:105A800002A921680868886000281CBF8068002877
:105A900018D02169491C216142681AB16168006807
:105AA000904705E00068D4E9011203681B68984735
:105AB0002168886830B14068886000281CBF806811
:105AC0000028E6D10448FEF7E1FD6420FEF734FE2D
:105AD00087E70000F0000020B80200204C6F6767E5
